{
  "_format": "hh-sol-artifact-1",
  "contractName": "Reputation",
  "sourceName": "contracts/Reputation.sol",
  "abi": [
    {
      "anonymous": false,
      "inputs": [
        {
          "indexed": true,
          "internalType": "string",
          "name": "agentId",
          "type": "string"
        },
        {
          "indexed": false,
          "internalType": "string",
          "name": "eventType",
          "type": "string"
        },
        {
          "indexed": false,
          "internalType": "int256",
          "name": "delta",
          "type": "int256"
        }
      ],
      "name": "ReputationUpdated",
      "type": "event"
    },
    {
      "inputs": [
        {
          "internalType": "string",
          "name": "agentId",
          "type": "string"
        }
      ],
      "name": "endorse",
      "outputs": [],
      "stateMutability": "nonpayable",
      "type": "function"
    },
    {
      "inputs": [
        {
          "internalType": "string",
          "name": "agentId",
          "type": "string"
        }
      ],
      "name": "getReputation",
      "outputs": [
        {
          "components": [
            {
              "internalType": "uint256",
              "name": "tasksCompleted",
              "type": "uint256"
            },
            {
              "internalType": "uint256",
              "name": "tasksFailed",
              "type": "uint256"
            },
            {
              "internalType": "uint256",
              "name": "totalCogEarned",
              "type": "uint256"
            },
            {
              "internalType": "uint256",
              "name": "endorsements",
              "type": "uint256"
            },
            {
              "internalType": "uint256",
              "name": "lastUpdated",
              "type": "uint256"
            }
          ],
          "internalType": "struct Reputation.AgentRep",
          "name": "",
          "type": "tuple"
        }
      ],
      "stateMutability": "view",
      "type": "function"
    },
    {
      "inputs": [
        {
          "internalType": "string",
          "name": "agentId",
          "type": "string"
        }
      ],
      "name": "getScore",
      "outputs": [
        {
          "internalType": "uint256",
          "name": "",
          "type": "uint256"
        }
      ],
      "stateMutability": "view",
      "type": "function"
    },
    {
      "inputs": [
        {
          "internalType": "string",
          "name": "agentId",
          "type": "string"
        },
        {
          "internalType": "uint256",
          "name": "cogEarned",
          "type": "uint256"
        }
      ],
      "name": "recordTaskComplete",
      "outputs": [],
      "stateMutability": "nonpayable",
      "type": "function"
    },
    {
      "inputs": [
        {
          "internalType": "string",
          "name": "agentId",
          "type": "string"
        }
      ],
      "name": "recordTaskFailed",
      "outputs": [],
      "stateMutability": "nonpayable",
      "type": "function"
    },
    {
      "inputs": [
        {
          "internalType": "string",
          "name": "",
          "type": "string"
        }
      ],
      "name": "reputations",
      "outputs": [
        {
          "internalType": "uint256",
          "name": "tasksCompleted",
          "type": "uint256"
        },
        {
          "internalType": "uint256",
          "name": "tasksFailed",
          "type": "uint256"
        },
        {
          "internalType": "uint256",
          "name": "totalCogEarned",
          "type": "uint256"
        },
        {
          "internalType": "uint256",
          "name": "endorsements",
          "type": "uint256"
        },
        {
          "internalType": "uint256",
          "name": "lastUpdated",
          "type": "uint256"
        }
      ],
      "stateMutability": "view",
      "type": "function"
    }
  ],
  "bytecode": "0x608060405234801561001057600080fd5b50610c50806100206000396000f3fe608060405234801561001057600080fd5b50600436106100625760003560e01c806316020273146100675780633d1103f4146100975780633dbb97c7146100c75780633f904bb8146100e35780634e90845d146100ff578063c38a01151461011b575b600080fd5b610081600480360381019061007c9190610538565b61014f565b60405161008e919061059e565b60405180910390f35b6100b160048036038101906100ac9190610538565b6101c6565b6040516100be9190610630565b60405180910390f35b6100e160048036038101906100dc9190610677565b610233565b005b6100fd60048036038101906100f89190610538565b6102eb565b005b61011960048036038101906101149190610538565b610388565b005b61013560048036038101906101309190610818565b610444565b604051610146959493929190610861565b60405180910390f35b600080600084846040516101649291906108e4565b9081526020016040518091039020905060008160010154826000015461018a919061092c565b90506000810361019f576064925050506101c0565b80606483600001546101b19190610960565b6101bb91906109d1565b925050505b92915050565b6101ce610490565b600083836040516101e09291906108e4565b90815260200160405180910390206040518060a001604052908160008201548152602001600182015481526020016002820154815260200160038201548152602001600482015481525050905092915050565b60008084846040516102469291906108e4565b90815260200160405180910390209050600181600001600082825461026b919061092c565b9250508190555081816002016000828254610286919061092c565b9250508190555042816004018190555083836040516102a69291906108e4565b60405180910390207f5cfaa30335c907ba6dbead1c970ec59683388dbea566ad6ba450db80e7b71bec836040516102dd9190610a78565b60405180910390a250505050565b60008083836040516102fe9291906108e4565b908152602001604051809103902090506001816003016000828254610323919061092c565b9250508190555042816004018190555082826040516103439291906108e4565b60405180910390207f5cfaa30335c907ba6dbead1c970ec59683388dbea566ad6ba450db80e7b71bec600160405161037b9190610b37565b60405180910390a2505050565b600080838360405161039b9291906108e4565b9081526020016040518091039020905060018160010160008282546103c0919061092c565b9250508190555042816004018190555082826040516103e09291906108e4565b60405180910390207f5cfaa30335c907ba6dbead1c970ec59683388dbea566ad6ba450db80e7b71bec7fffffffffffffffffffffffffffffffffffffffffffffffffffffffffffffffff6040516104379190610bec565b60405180910390a2505050565b6000818051602081018201805184825260208301602085012081835280955050505050506000915090508060000154908060010154908060020154908060030154908060040154905085565b6040518060a0016040528060008152602001600081526020016000815260200160008152602001600081525090565b6000604051905090565b600080fd5b600080fd5b600080fd5b600080fd5b600080fd5b60008083601f8401126104f8576104f76104d3565b5b8235905067ffffffffffffffff811115610515576105146104d8565b5b602083019150836001820283011115610531576105306104dd565b5b9250929050565b6000806020838503121561054f5761054e6104c9565b5b600083013567ffffffffffffffff81111561056d5761056c6104ce565b5b610579858286016104e2565b92509250509250929050565b6000819050919050565b61059881610585565b82525050565b60006020820190506105b3600083018461058f565b92915050565b6105c281610585565b82525050565b60a0820160008201516105de60008501826105b9565b5060208201516105f160208501826105b9565b50604082015161060460408501826105b9565b50606082015161061760608501826105b9565b50608082015161062a60808501826105b9565b50505050565b600060a08201905061064560008301846105c8565b92915050565b61065481610585565b811461065f57600080fd5b50565b6000813590506106718161064b565b92915050565b6000806000604084860312156106905761068f6104c9565b5b600084013567ffffffffffffffff8111156106ae576106ad6104ce565b5b6106ba868287016104e2565b935093505060206106cd86828701610662565b9150509250925092565b600080fd5b6000601f19601f8301169050919050565b7f4e487b7100000000000000000000000000000000000000000000000000000000600052604160045260246000fd5b610725826106dc565b810181811067ffffffffffffffff82111715610744576107436106ed565b5b80604052505050565b60006107576104bf565b9050610763828261071c565b919050565b600067ffffffffffffffff821115610783576107826106ed565b5b61078c826106dc565b9050602081019050919050565b82818337600083830152505050565b60006107bb6107b684610768565b61074d565b9050828152602081018484840111156107d7576107d66106d7565b5b6107e2848285610799565b509392505050565b600082601f8301126107ff576107fe6104d3565b5b813561080f8482602086016107a8565b91505092915050565b60006020828403121561082e5761082d6104c9565b5b600082013567ffffffffffffffff81111561084c5761084b6104ce565b5b610858848285016107ea565b91505092915050565b600060a082019050610876600083018861058f565b610883602083018761058f565b610890604083018661058f565b61089d606083018561058f565b6108aa608083018461058f565b9695505050505050565b600081905092915050565b60006108cb83856108b4565b93506108d8838584610799565b82840190509392505050565b60006108f18284866108bf565b91508190509392505050565b7f4e487b7100000000000000000000000000000000000000000000000000000000600052601160045260246000fd5b600061093782610585565b915061094283610585565b925082820190508082111561095a576109596108fd565b5b92915050565b600061096b82610585565b915061097683610585565b925082820261098481610585565b9150828204841483151761099b5761099a6108fd565b5b5092915050565b7f4e487b7100000000000000000000000000000000000000000000000000000000600052601260045260246000fd5b60006109dc82610585565b91506109e783610585565b9250826109f7576109f66109a2565b5b828204905092915050565b600082825260208201905092915050565b7f7461736b5f636f6d706c65746500000000000000000000000000000000000000600082015250565b6000610a49600d83610a02565b9150610a5482610a13565b602082019050919050565b6000819050919050565b610a7281610a5f565b82525050565b60006040820190508181036000830152610a9181610a3c565b9050610aa06020830184610a69565b92915050565b7f656e646f7273656d656e74000000000000000000000000000000000000000000600082015250565b6000610adc600b83610a02565b9150610ae782610aa6565b602082019050919050565b6000819050919050565b6000819050919050565b6000610b21610b1c610b1784610af2565b610afc565b610a5f565b9050919050565b610b3181610b06565b82525050565b60006040820190508181036000830152610b5081610acf565b9050610b5f6020830184610b28565b92915050565b7f7461736b5f6661696c6564000000000000000000000000000000000000000000600082015250565b6000610b9b600b83610a02565b9150610ba682610b65565b602082019050919050565b6000819050919050565b6000610bd6610bd1610bcc84610bb1565b610afc565b610a5f565b9050919050565b610be681610bbb565b82525050565b60006040820190508181036000830152610c0581610b8e565b9050610c146020830184610bdd565b9291505056fea26469706673582212209550875bd6de192267850918ea695e21d791a75baf20c4a3925fde67c20062a864736f6c63430008180033",
  "linkReferences": {},
  "deployedLinkReferences": {}
}