{
  "_format": "hh-sol-artifact-1",
  "contractName": "TaskMarket",
  "sourceName": "contracts/TaskMarket.sol",
  "abi": [
    {
      "inputs": [],
      "stateMutability": "nonpayable",
      "type": "constructor"
    },
    {
      "anonymous": false,
      "inputs": [
        {
          "indexed": true,
          "internalType": "uint256",
          "name": "taskId",
          "type": "uint256"
        },
        {
          "indexed": true,
          "internalType": "address",
          "name": "acceptor",
          "type": "address"
        },
        {
          "indexed": false,
          "internalType": "string",
          "name": "acceptorAgentId",
          "type": "string"
        }
      ],
      "name": "TaskAccepted",
      "type": "event"
    },
    {
      "anonymous": false,
      "inputs": [
        {
          "indexed": true,
          "internalType": "uint256",
          "name": "taskId",
          "type": "uint256"
        }
      ],
      "name": "TaskCancelled",
      "type": "event"
    },
    {
      "anonymous": false,
      "inputs": [
        {
          "indexed": true,
          "internalType": "uint256",
          "name": "taskId",
          "type": "uint256"
        },
        {
          "indexed": false,
          "internalType": "uint256",
          "name": "reward",
          "type": "uint256"
        }
      ],
      "name": "TaskCompleted",
      "type": "event"
    },
    {
      "anonymous": false,
      "inputs": [
        {
          "indexed": true,
          "internalType": "uint256",
          "name": "taskId",
          "type": "uint256"
        },
        {
          "indexed": true,
          "internalType": "address",
          "name": "poster",
          "type": "address"
        },
        {
          "indexed": false,
          "internalType": "uint256",
          "name": "reward",
          "type": "uint256"
        }
      ],
      "name": "TaskCreated",
      "type": "event"
    },
    {
      "inputs": [
        {
          "internalType": "uint256",
          "name": "taskId",
          "type": "uint256"
        },
        {
          "internalType": "string",
          "name": "acceptorAgentId",
          "type": "string"
        },
        {
          "internalType": "address",
          "name": "rewardRecipient",
          "type": "address"
        }
      ],
      "name": "acceptTask",
      "outputs": [],
      "stateMutability": "nonpayable",
      "type": "function"
    },
    {
      "inputs": [
        {
          "internalType": "uint256",
          "name": "taskId",
          "type": "uint256"
        },
        {
          "internalType": "string",
          "name": "acceptorAgentId",
          "type": "string"
        },
        {
          "internalType": "address",
          "name": "rewardRecipient",
          "type": "address"
        },
        {
          "internalType": "address",
          "name": "acceptorAddress",
          "type": "address"
        }
      ],
      "name": "acceptTaskFor",
      "outputs": [],
      "stateMutability": "nonpayable",
      "type": "function"
    },
    {
      "inputs": [
        {
          "internalType": "uint256",
          "name": "taskId",
          "type": "uint256"
        }
      ],
      "name": "cancelTask",
      "outputs": [],
      "stateMutability": "nonpayable",
      "type": "function"
    },
    {
      "inputs": [
        {
          "internalType": "uint256",
          "name": "taskId",
          "type": "uint256"
        }
      ],
      "name": "completeTask",
      "outputs": [],
      "stateMutability": "nonpayable",
      "type": "function"
    },
    {
      "inputs": [
        {
          "internalType": "uint256",
          "name": "taskId",
          "type": "uint256"
        }
      ],
      "name": "completeTaskFor",
      "outputs": [],
      "stateMutability": "nonpayable",
      "type": "function"
    },
    {
      "inputs": [
        {
          "internalType": "string",
          "name": "posterAgentId",
          "type": "string"
        },
        {
          "internalType": "string",
          "name": "title",
          "type": "string"
        },
        {
          "internalType": "uint256",
          "name": "rewardAmount",
          "type": "uint256"
        }
      ],
      "name": "createTask",
      "outputs": [
        {
          "internalType": "uint256",
          "name": "",
          "type": "uint256"
        }
      ],
      "stateMutability": "payable",
      "type": "function"
    },
    {
      "inputs": [
        {
          "internalType": "uint256",
          "name": "taskId",
          "type": "uint256"
        }
      ],
      "name": "getTask",
      "outputs": [
        {
          "components": [
            {
              "internalType": "uint256",
              "name": "id",
              "type": "uint256"
            },
            {
              "internalType": "address",
              "name": "poster",
              "type": "address"
            },
            {
              "internalType": "string",
              "name": "posterAgentId",
              "type": "string"
            },
            {
              "internalType": "string",
              "name": "title",
              "type": "string"
            },
            {
              "internalType": "uint256",
              "name": "rewardAmount",
              "type": "uint256"
            },
            {
              "internalType": "enum TaskMarket.TaskStatus",
              "name": "status",
              "type": "uint8"
            },
            {
              "internalType": "address",
              "name": "acceptor",
              "type": "address"
            },
            {
              "internalType": "string",
              "name": "acceptorAgentId",
              "type": "string"
            },
            {
              "internalType": "address",
              "name": "rewardRecipient",
              "type": "address"
            },
            {
              "internalType": "uint256",
              "name": "createdAt",
              "type": "uint256"
            },
            {
              "internalType": "uint256",
              "name": "completedAt",
              "type": "uint256"
            }
          ],
          "internalType": "struct TaskMarket.TaskInfo",
          "name": "",
          "type": "tuple"
        }
      ],
      "stateMutability": "view",
      "type": "function"
    },
    {
      "inputs": [],
      "name": "nextTaskId",
      "outputs": [
        {
          "internalType": "uint256",
          "name": "",
          "type": "uint256"
        }
      ],
      "stateMutability": "view",
      "type": "function"
    },
    {
      "inputs": [],
      "name": "relayer",
      "outputs": [
        {
          "internalType": "address",
          "name": "",
          "type": "address"
        }
      ],
      "stateMutability": "view",
      "type": "function"
    },
    {
      "inputs": [
        {
          "internalType": "uint256",
          "name": "",
          "type": "uint256"
        }
      ],
      "name": "tasks",
      "outputs": [
        {
          "internalType": "uint256",
          "name": "id",
          "type": "uint256"
        },
        {
          "internalType": "address",
          "name": "poster",
          "type": "address"
        },
        {
          "internalType": "string",
          "name": "posterAgentId",
          "type": "string"
        },
        {
          "internalType": "string",
          "name": "title",
          "type": "string"
        },
        {
          "internalType": "uint256",
          "name": "rewardAmount",
          "type": "uint256"
        },
        {
          "internalType": "enum TaskMarket.TaskStatus",
          "name": "status",
          "type": "uint8"
        },
        {
          "internalType": "address",
          "name": "acceptor",
          "type": "address"
        },
        {
          "internalType": "string",
          "name": "acceptorAgentId",
          "type": "string"
        },
        {
          "internalType": "address",
          "name": "rewardRecipient",
          "type": "address"
        },
        {
          "internalType": "uint256",
          "name": "createdAt",
          "type": "uint256"
        },
        {
          "internalType": "uint256",
          "name": "completedAt",
          "type": "uint256"
        }
      ],
      "stateMutability": "view",
      "type": "function"
    }
  ],
  "bytecode": "0x608060405234801561001057600080fd5b5033600260006101000a81548173ffffffffffffffffffffffffffffffffffffffff021916908373ffffffffffffffffffffffffffffffffffffffff160217905550612aa9806100616000396000f3fe6080604052600436106100915760003560e01c80638d977672116100595780638d97767214610180578063a787bd7e146101c7578063c5dce454146101f0578063e1e2955814610219578063fdc3d8d71461024257610091565b80631d65e77e146100965780631f30accb146100d357806341a4e30a146100fc5780637eec20a81461012c5780638406c07914610155575b600080fd5b3480156100a257600080fd5b506100bd60048036038101906100b8919061199a565b61026d565b6040516100ca9190611c1b565b60405180910390f35b3480156100df57600080fd5b506100fa60048036038101906100f59190611cce565b6105b6565b005b61011660048036038101906101119190611d42565b610865565b6040516101239190611de6565b60405180910390f35b34801561013857600080fd5b50610153600480360381019061014e919061199a565b610c24565b005b34801561016157600080fd5b5061016a610e78565b6040516101779190611e10565b60405180910390f35b34801561018c57600080fd5b506101a760048036038101906101a2919061199a565b610e9e565b6040516101be9b9a99989796959493929190611e84565b60405180910390f35b3480156101d357600080fd5b506101ee60048036038101906101e99190611f44565b6110fd565b005b3480156101fc57600080fd5b506102176004803603810190610212919061199a565b611477565b005b34801561022557600080fd5b50610240600480360381019061023b919061199a565b6115a4565b005b34801561024e57600080fd5b506102576116d3565b6040516102649190611de6565b60405180910390f35b6102756118ac565b6001600083815260200190815260200160002060405180610160016040529081600082015481526020016001820160009054906101000a900473ffffffffffffffffffffffffffffffffffffffff1673ffffffffffffffffffffffffffffffffffffffff1673ffffffffffffffffffffffffffffffffffffffff16815260200160028201805461030490611ffb565b80601f016020809104026020016040519081016040528092919081815260200182805461033090611ffb565b801561037d5780601f106103525761010080835404028352916020019161037d565b820191906000526020600020905b81548152906001019060200180831161036057829003601f168201915b5050505050815260200160038201805461039690611ffb565b80601f01602080910402602001604051908101604052809291908181526020018280546103c290611ffb565b801561040f5780601f106103e45761010080835404028352916020019161040f565b820191906000526020600020905b8154815290600101906020018083116103f257829003601f168201915b50505050508152602001600482015481526020016005820160009054906101000a900460ff16600381111561044757610446611aa7565b5b600381111561045957610458611aa7565b5b81526020016005820160019054906101000a900473ffffffffffffffffffffffffffffffffffffffff1673ffffffffffffffffffffffffffffffffffffffff1673ffffffffffffffffffffffffffffffffffffffff1681526020016006820180546104c390611ffb565b80601f01602080910402602001604051908101604052809291908181526020018280546104ef90611ffb565b801561053c5780601f106105115761010080835404028352916020019161053c565b820191906000526020600020905b81548152906001019060200180831161051f57829003601f168201915b505050505081526020016007820160009054906101000a900473ffffffffffffffffffffffffffffffffffffffff1673ffffffffffffffffffffffffffffffffffffffff1673ffffffffffffffffffffffffffffffffffffffff168152602001600882015481526020016009820154815250509050919050565b6000600160008681526020019081526020016000209050600060038111156105e1576105e0611aa7565b5b8160050160009054906101000a900460ff16600381111561060557610604611aa7565b5b14610645576040517f08c379a000000000000000000000000000000000000000000000000000000000815260040161063c90612078565b60405180910390fd5b3373ffffffffffffffffffffffffffffffffffffffff168160010160009054906101000a900473ffffffffffffffffffffffffffffffffffffffff1673ffffffffffffffffffffffffffffffffffffffff16036106d7576040517f08c379a00000000000000000000000000000000000000000000000000000000081526004016106ce906120e4565b60405180910390fd5b600073ffffffffffffffffffffffffffffffffffffffff168273ffffffffffffffffffffffffffffffffffffffff1603610746576040517f08c379a000000000000000000000000000000000000000000000000000000000815260040161073d90612150565b60405180910390fd5b60018160050160006101000a81548160ff0219169083600381111561076e5761076d611aa7565b5b0217905550338160050160016101000a81548173ffffffffffffffffffffffffffffffffffffffff021916908373ffffffffffffffffffffffffffffffffffffffff16021790555083838260060191826107c9929190612356565b50818160070160006101000a81548173ffffffffffffffffffffffffffffffffffffffff021916908373ffffffffffffffffffffffffffffffffffffffff1602179055503373ffffffffffffffffffffffffffffffffffffffff16857f05d0d345381f6856dc2a2aebc8fe6727ea16a9ee8c3e7e0ca51d11a59b04c7d88686604051610856929190612462565b60405180910390a35050505050565b60008082116108a9576040517f08c379a00000000000000000000000000000000000000000000000000000000081526004016108a0906124d2565b60405180910390fd5b8134146108eb576040517f08c379a00000000000000000000000000000000000000000000000000000000081526004016108e29061253e565b60405180910390fd5b60008060008154809291906108ff9061258d565b9190505590506040518061016001604052808281526020013373ffffffffffffffffffffffffffffffffffffffff16815260200188888080601f016020809104026020016040519081016040528093929190818152602001838380828437600081840152601f19601f82011690508083019250505050505050815260200186868080601f016020809104026020016040519081016040528093929190818152602001838380828437600081840152601f19601f820116905080830192505050505050508152602001848152602001600060038111156109e1576109e0611aa7565b5b8152602001600073ffffffffffffffffffffffffffffffffffffffff168152602001604051806020016040528060008152508152602001600073ffffffffffffffffffffffffffffffffffffffff1681526020014281526020016000815250600160008381526020019081526020016000206000820151816000015560208201518160010160006101000a81548173ffffffffffffffffffffffffffffffffffffffff021916908373ffffffffffffffffffffffffffffffffffffffff1602179055506040820151816002019081610ab991906125d5565b506060820151816003019081610acf91906125d5565b506080820151816004015560a08201518160050160006101000a81548160ff02191690836003811115610b0557610b04611aa7565b5b021790555060c08201518160050160016101000a81548173ffffffffffffffffffffffffffffffffffffffff021916908373ffffffffffffffffffffffffffffffffffffffff16021790555060e0820151816006019081610b6691906125d5565b506101008201518160070160006101000a81548173ffffffffffffffffffffffffffffffffffffffff021916908373ffffffffffffffffffffffffffffffffffffffff160217905550610120820151816008015561014082015181600901559050503373ffffffffffffffffffffffffffffffffffffffff16817f6cf53aa7292e664152c2ea948c3b3c95d4b05c36daeb2626d0293473c4a4a15385604051610c0f9190611de6565b60405180910390a38091505095945050505050565b600060016000838152602001908152602001600020905060006003811115610c4f57610c4e611aa7565b5b8160050160009054906101000a900460ff166003811115610c7357610c72611aa7565b5b14610cb3576040517f08c379a0000000000000000000000000000000000000000000000000000000008152600401610caa906126f3565b60405180910390fd5b3373ffffffffffffffffffffffffffffffffffffffff168160010160009054906101000a900473ffffffffffffffffffffffffffffffffffffffff1673ffffffffffffffffffffffffffffffffffffffff1614610d45576040517f08c379a0000000000000000000000000000000000000000000000000000000008152600401610d3c9061275f565b60405180910390fd5b60038160050160006101000a81548160ff02191690836003811115610d6d57610d6c611aa7565b5b021790555060008160010160009054906101000a900473ffffffffffffffffffffffffffffffffffffffff1673ffffffffffffffffffffffffffffffffffffffff168260040154604051610dc0906127b0565b60006040518083038185875af1925050503d8060008114610dfd576040519150601f19603f3d011682016040523d82523d6000602084013e610e02565b606091505b5050905080610e46576040517f08c379a0000000000000000000000000000000000000000000000000000000008152600401610e3d90612811565b60405180910390fd5b827fc6eacc3aa5b2aa77b5a826b832a804ca0b71830ec74f9aa57a15edd978c31ed660405160405180910390a2505050565b600260009054906101000a900473ffffffffffffffffffffffffffffffffffffffff1681565b60016020528060005260406000206000915090508060000154908060010160009054906101000a900473ffffffffffffffffffffffffffffffffffffffff1690806002018054610eed90611ffb565b80601f0160208091040260200160405190810160405280929190818152602001828054610f1990611ffb565b8015610f665780601f10610f3b57610100808354040283529160200191610f66565b820191906000526020600020905b815481529060010190602001808311610f4957829003601f168201915b505050505090806003018054610f7b90611ffb565b80601f0160208091040260200160405190810160405280929190818152602001828054610fa790611ffb565b8015610ff45780601f10610fc957610100808354040283529160200191610ff4565b820191906000526020600020905b815481529060010190602001808311610fd757829003601f168201915b5050505050908060040154908060050160009054906101000a900460ff16908060050160019054906101000a900473ffffffffffffffffffffffffffffffffffffffff169080600601805461104890611ffb565b80601f016020809104026020016040519081016040528092919081815260200182805461107490611ffb565b80156110c15780601f10611096576101008083540402835291602001916110c1565b820191906000526020600020905b8154815290600101906020018083116110a457829003601f168201915b5050505050908060070160009054906101000a900473ffffffffffffffffffffffffffffffffffffffff1690806008015490806009015490508b565b600260009054906101000a900473ffffffffffffffffffffffffffffffffffffffff1673ffffffffffffffffffffffffffffffffffffffff163373ffffffffffffffffffffffffffffffffffffffff161461118d576040517f08c379a00000000000000000000000000000000000000000000000000000000081526004016111849061287d565b60405180910390fd5b6000600160008781526020019081526020016000209050600060038111156111b8576111b7611aa7565b5b8160050160009054906101000a900460ff1660038111156111dc576111db611aa7565b5b1461121c576040517f08c379a000000000000000000000000000000000000000000000000000000000815260040161121390612078565b60405180910390fd5b600073ffffffffffffffffffffffffffffffffffffffff168273ffffffffffffffffffffffffffffffffffffffff16141580156112a957508060010160009054906101000a900473ffffffffffffffffffffffffffffffffffffffff1673ffffffffffffffffffffffffffffffffffffffff168273ffffffffffffffffffffffffffffffffffffffff1614155b6112e8576040517f08c379a00000000000000000000000000000000000000000000000000000000081526004016112df906128e9565b60405180910390fd5b600073ffffffffffffffffffffffffffffffffffffffff168373ffffffffffffffffffffffffffffffffffffffff1603611357576040517f08c379a000000000000000000000000000000000000000000000000000000000815260040161134e90612150565b60405180910390fd5b60018160050160006101000a81548160ff0219169083600381111561137f5761137e611aa7565b5b0217905550818160050160016101000a81548173ffffffffffffffffffffffffffffffffffffffff021916908373ffffffffffffffffffffffffffffffffffffffff16021790555084848260060191826113da929190612356565b50828160070160006101000a81548173ffffffffffffffffffffffffffffffffffffffff021916908373ffffffffffffffffffffffffffffffffffffffff1602179055508173ffffffffffffffffffffffffffffffffffffffff16867f05d0d345381f6856dc2a2aebc8fe6727ea16a9ee8c3e7e0ca51d11a59b04c7d88787604051611467929190612462565b60405180910390a3505050505050565b600260009054906101000a900473ffffffffffffffffffffffffffffffffffffffff1673ffffffffffffffffffffffffffffffffffffffff163373ffffffffffffffffffffffffffffffffffffffff1614611507576040517f08c379a00000000000000000000000000000000000000000000000000000000081526004016114fe9061287d565b60405180910390fd5b60006001600083815260200190815260200160002090506001600381111561153257611531611aa7565b5b8160050160009054906101000a900460ff16600381111561155657611555611aa7565b5b14611596576040517f08c379a000000000000000000000000000000000000000000000000000000000815260040161158d90612955565b60405180910390fd5b6115a082826116d9565b5050565b6000600160008381526020019081526020016000209050600160038111156115cf576115ce611aa7565b5b8160050160009054906101000a900460ff1660038111156115f3576115f2611aa7565b5b14611633576040517f08c379a000000000000000000000000000000000000000000000000000000000815260040161162a90612955565b60405180910390fd5b3373ffffffffffffffffffffffffffffffffffffffff168160010160009054906101000a900473ffffffffffffffffffffffffffffffffffffffff1673ffffffffffffffffffffffffffffffffffffffff16146116c5576040517f08c379a00000000000000000000000000000000000000000000000000000000081526004016116bc906129e7565b60405180910390fd5b6116cf82826116d9565b5050565b60005481565b60028160050160006101000a81548160ff0219169083600381111561170157611700611aa7565b5b021790555042816009018190555060008073ffffffffffffffffffffffffffffffffffffffff168260070160009054906101000a900473ffffffffffffffffffffffffffffffffffffffff1673ffffffffffffffffffffffffffffffffffffffff1603611792578160050160019054906101000a900473ffffffffffffffffffffffffffffffffffffffff166117b8565b8160070160009054906101000a900473ffffffffffffffffffffffffffffffffffffffff165b905060008173ffffffffffffffffffffffffffffffffffffffff1683600401546040516117e4906127b0565b60006040518083038185875af1925050503d8060008114611821576040519150601f19603f3d011682016040523d82523d6000602084013e611826565b606091505b505090508061186a576040517f08c379a000000000000000000000000000000000000000000000000000000000815260040161186190612a53565b60405180910390fd5b837ff9c405f91e34dcd1dc136cf6992ada4a8c24a2803e0fab7546364c64dac7ba2b846004015460405161189e9190611de6565b60405180910390a250505050565b60405180610160016040528060008152602001600073ffffffffffffffffffffffffffffffffffffffff1681526020016060815260200160608152602001600081526020016000600381111561190557611904611aa7565b5b8152602001600073ffffffffffffffffffffffffffffffffffffffff16815260200160608152602001600073ffffffffffffffffffffffffffffffffffffffff16815260200160008152602001600081525090565b600080fd5b600080fd5b6000819050919050565b61197781611964565b811461198257600080fd5b50565b6000813590506119948161196e565b92915050565b6000602082840312156119b0576119af61195a565b5b60006119be84828501611985565b91505092915050565b6119d081611964565b82525050565b600073ffffffffffffffffffffffffffffffffffffffff82169050919050565b6000611a01826119d6565b9050919050565b611a11816119f6565b82525050565b600081519050919050565b600082825260208201905092915050565b60005b83811015611a51578082015181840152602081019050611a36565b60008484015250505050565b6000601f19601f8301169050919050565b6000611a7982611a17565b611a838185611a22565b9350611a93818560208601611a33565b611a9c81611a5d565b840191505092915050565b7f4e487b7100000000000000000000000000000000000000000000000000000000600052602160045260246000fd5b60048110611ae757611ae6611aa7565b5b50565b6000819050611af882611ad6565b919050565b6000611b0882611aea565b9050919050565b611b1881611afd565b82525050565b600061016083016000830151611b3760008601826119c7565b506020830151611b4a6020860182611a08565b5060408301518482036040860152611b628282611a6e565b91505060608301518482036060860152611b7c8282611a6e565b9150506080830151611b9160808601826119c7565b5060a0830151611ba460a0860182611b0f565b5060c0830151611bb760c0860182611a08565b5060e083015184820360e0860152611bcf8282611a6e565b915050610100830151611be6610100860182611a08565b50610120830151611bfb6101208601826119c7565b50610140830151611c106101408601826119c7565b508091505092915050565b60006020820190508181036000830152611c358184611b1e565b905092915050565b600080fd5b600080fd5b600080fd5b60008083601f840112611c6257611c61611c3d565b5b8235905067ffffffffffffffff811115611c7f57611c7e611c42565b5b602083019150836001820283011115611c9b57611c9a611c47565b5b9250929050565b611cab816119f6565b8114611cb657600080fd5b50565b600081359050611cc881611ca2565b92915050565b60008060008060608587031215611ce857611ce761195a565b5b6000611cf687828801611985565b945050602085013567ffffffffffffffff811115611d1757611d1661195f565b5b611d2387828801611c4c565b93509350506040611d3687828801611cb9565b91505092959194509250565b600080600080600060608688031215611d5e57611d5d61195a565b5b600086013567ffffffffffffffff811115611d7c57611d7b61195f565b5b611d8888828901611c4c565b9550955050602086013567ffffffffffffffff811115611dab57611daa61195f565b5b611db788828901611c4c565b93509350506040611dca88828901611985565b9150509295509295909350565b611de081611964565b82525050565b6000602082019050611dfb6000830184611dd7565b92915050565b611e0a816119f6565b82525050565b6000602082019050611e256000830184611e01565b92915050565b600082825260208201905092915050565b6000611e4782611a17565b611e518185611e2b565b9350611e61818560208601611a33565b611e6a81611a5d565b840191505092915050565b611e7e81611afd565b82525050565b600061016082019050611e9a600083018e611dd7565b611ea7602083018d611e01565b8181036040830152611eb9818c611e3c565b90508181036060830152611ecd818b611e3c565b9050611edc608083018a611dd7565b611ee960a0830189611e75565b611ef660c0830188611e01565b81810360e0830152611f088187611e3c565b9050611f18610100830186611e01565b611f26610120830185611dd7565b611f34610140830184611dd7565b9c9b505050505050505050505050565b600080600080600060808688031215611f6057611f5f61195a565b5b6000611f6e88828901611985565b955050602086013567ffffffffffffffff811115611f8f57611f8e61195f565b5b611f9b88828901611c4c565b94509450506040611fae88828901611cb9565b9250506060611fbf88828901611cb9565b9150509295509295909350565b7f4e487b7100000000000000000000000000000000000000000000000000000000600052602260045260246000fd5b6000600282049050600182168061201357607f821691505b60208210810361202657612025611fcc565b5b50919050565b7f5461736b206e6f74206f70656e00000000000000000000000000000000000000600082015250565b6000612062600d83611e2b565b915061206d8261202c565b602082019050919050565b6000602082019050818103600083015261209181612055565b9050919050565b7f43616e6e6f7420616363657074206f776e207461736b00000000000000000000600082015250565b60006120ce601683611e2b565b91506120d982612098565b602082019050919050565b600060208201905081810360008301526120fd816120c1565b9050919050565b7f52657761726420726563697069656e7420726571756972656400000000000000600082015250565b600061213a601983611e2b565b915061214582612104565b602082019050919050565b600060208201905081810360008301526121698161212d565b9050919050565b600082905092915050565b7f4e487b7100000000000000000000000000000000000000000000000000000000600052604160045260246000fd5b60008190508160005260206000209050919050565b60006020601f8301049050919050565b600082821b905092915050565b60006008830261220c7fffffffffffffffffffffffffffffffffffffffffffffffffffffffffffffffff826121cf565b61221686836121cf565b95508019841693508086168417925050509392505050565b6000819050919050565b600061225361224e61224984611964565b61222e565b611964565b9050919050565b6000819050919050565b61226d83612238565b6122816122798261225a565b8484546121dc565b825550505050565b600090565b612296612289565b6122a1818484612264565b505050565b5b818110156122c5576122ba60008261228e565b6001810190506122a7565b5050565b601f82111561230a576122db816121aa565b6122e4846121bf565b810160208510156122f3578190505b6123076122ff856121bf565b8301826122a6565b50505b505050565b600082821c905092915050565b600061232d6000198460080261230f565b1980831691505092915050565b6000612346838361231c565b9150826002028217905092915050565b6123608383612170565b67ffffffffffffffff8111156123795761237861217b565b5b6123838254611ffb565b61238e8282856122c9565b6000601f8311600181146123bd57600084156123ab578287013590505b6123b5858261233a565b86555061241d565b601f1984166123cb866121aa565b60005b828110156123f3578489013582556001820191506020850194506020810190506123ce565b86831015612410578489013561240c601f89168261231c565b8355505b6001600288020188555050505b50505050505050565b82818337600083830152505050565b60006124418385611e2b565b935061244e838584612426565b61245783611a5d565b840190509392505050565b6000602082019050818103600083015261247d818486612435565b90509392505050565b7f526577617264206d757374206265203e20300000000000000000000000000000600082015250565b60006124bc601283611e2b565b91506124c782612486565b602082019050919050565b600060208201905081810360008301526124eb816124af565b9050919050565b7f53656e642065786163742072657761726420616d6f756e742061732049564500600082015250565b6000612528601f83611e2b565b9150612533826124f2565b602082019050919050565b600060208201905081810360008301526125578161251b565b9050919050565b7f4e487b7100000000000000000000000000000000000000000000000000000000600052601160045260246000fd5b600061259882611964565b91507fffffffffffffffffffffffffffffffffffffffffffffffffffffffffffffffff82036125ca576125c961255e565b5b600182019050919050565b6125de82611a17565b67ffffffffffffffff8111156125f7576125f661217b565b5b6126018254611ffb565b61260c8282856122c9565b600060209050601f83116001811461263f576000841561262d578287015190505b612637858261233a565b86555061269f565b601f19841661264d866121aa565b60005b8281101561267557848901518255600182019150602085019450602081019050612650565b86831015612692578489015161268e601f89168261231c565b8355505b6001600288020188555050505b505050505050565b7f43616e206f6e6c792063616e63656c206f70656e207461736b73000000000000600082015250565b60006126dd601a83611e2b565b91506126e8826126a7565b602082019050919050565b6000602082019050818103600083015261270c816126d0565b9050919050565b7f4f6e6c7920706f737465722063616e2063616e63656c00000000000000000000600082015250565b6000612749601683611e2b565b915061275482612713565b602082019050919050565b600060208201905081810360008301526127788161273c565b9050919050565b600081905092915050565b50565b600061279a60008361277f565b91506127a58261278a565b600082019050919050565b60006127bb8261278d565b9150819050919050565b7f526566756e64206661696c656400000000000000000000000000000000000000600082015250565b60006127fb600d83611e2b565b9150612806826127c5565b602082019050919050565b6000602082019050818103600083015261282a816127ee565b9050919050565b7f4f6e6c792072656c617965720000000000000000000000000000000000000000600082015250565b6000612867600c83611e2b565b915061287282612831565b602082019050919050565b600060208201905081810360008301526128968161285a565b9050919050565b7f496e76616c6964206163636570746f7200000000000000000000000000000000600082015250565b60006128d3601083611e2b565b91506128de8261289d565b602082019050919050565b60006020820190508181036000830152612902816128c6565b9050919050565b7f5461736b206e6f74206163636570746564000000000000000000000000000000600082015250565b600061293f601183611e2b565b915061294a82612909565b602082019050919050565b6000602082019050818103600083015261296e81612932565b9050919050565b7f4f6e6c7920706f737465722063616e20636f6e6669726d20636f6d706c65746960008201527f6f6e000000000000000000000000000000000000000000000000000000000000602082015250565b60006129d1602283611e2b565b91506129dc82612975565b604082019050919050565b60006020820190508181036000830152612a00816129c4565b9050919050565b7f526577617264207472616e73666572206661696c656400000000000000000000600082015250565b6000612a3d601683611e2b565b9150612a4882612a07565b602082019050919050565b60006020820190508181036000830152612a6c81612a30565b905091905056fea2646970667358221220c7628ce03a2f10c285301196ca78cf6b2f850d5b38cb2088ee0ad2a9d8da7a0364736f6c63430008180033",
  "linkReferences": {},
  "deployedLinkReferences": {}
}