{"contracts/TaskMarket.sol":{"TaskMarket":{"abi":[{"inputs":[{"internalType":"address","name":"_cogToken","type":"address"}],"stateMutability":"nonpayable","type":"constructor"},{"anonymous":false,"inputs":[{"indexed":true,"internalType":"uint256","name":"taskId","type":"uint256"},{"indexed":true,"internalType":"address","name":"acceptor","type":"address"},{"indexed":false,"internalType":"string","name":"acceptorAgentId","type":"string"}],"name":"TaskAccepted","type":"event"},{"anonymous":false,"inputs":[{"indexed":true,"internalType":"uint256","name":"taskId","type":"uint256"}],"name":"TaskCancelled","type":"event"},{"anonymous":false,"inputs":[{"indexed":true,"internalType":"uint256","name":"taskId","type":"uint256"},{"indexed":false,"internalType":"uint256","name":"reward","type":"uint256"}],"name":"TaskCompleted","type":"event"},{"anonymous":false,"inputs":[{"indexed":true,"internalType":"uint256","name":"taskId","type":"uint256"},{"indexed":true,"internalType":"address","name":"poster","type":"address"},{"indexed":false,"internalType":"uint256","name":"reward","type":"uint256"}],"name":"TaskCreated","type":"event"},{"inputs":[{"internalType":"uint256","name":"taskId","type":"uint256"},{"internalType":"string","name":"acceptorAgentId","type":"string"},{"internalType":"address","name":"rewardRecipient","type":"address"}],"name":"acceptTask","outputs":[],"stateMutability":"nonpayable","type":"function"},{"inputs":[{"internalType":"uint256","name":"taskId","type":"uint256"}],"name":"cancelTask","outputs":[],"stateMutability":"nonpayable","type":"function"},{"inputs":[],"name":"cogToken","outputs":[{"internalType":"contract IERC20","name":"","type":"address"}],"stateMutability":"view","type":"function"},{"inputs":[{"internalType":"uint256","name":"taskId","type":"uint256"}],"name":"completeTask","outputs":[],"stateMutability":"nonpayable","type":"function"},{"inputs":[{"internalType":"string","name":"posterAgentId","type":"string"},{"internalType":"string","name":"title","type":"string"},{"internalType":"uint256","name":"rewardAmount","type":"uint256"}],"name":"createTask","outputs":[{"internalType":"uint256","name":"","type":"uint256"}],"stateMutability":"nonpayable","type":"function"},{"inputs":[{"internalType":"uint256","name":"taskId","type":"uint256"}],"name":"getTask","outputs":[{"components":[{"internalType":"uint256","name":"id","type":"uint256"},{"internalType":"address","name":"poster","type":"address"},{"internalType":"string","name":"posterAgentId","type":"string"},{"internalType":"string","name":"title","type":"string"},{"internalType":"uint256","name":"rewardAmount","type":"uint256"},{"internalType":"enum TaskMarket.TaskStatus","name":"status","type":"uint8"},{"internalType":"address","name":"acceptor","type":"address"},{"internalType":"string","name":"acceptorAgentId","type":"string"},{"internalType":"address","name":"rewardRecipient","type":"address"},{"internalType":"uint256","name":"createdAt","type":"uint256"},{"internalType":"uint256","name":"completedAt","type":"uint256"}],"internalType":"struct TaskMarket.TaskInfo","name":"","type":"tuple"}],"stateMutability":"view","type":"function"},{"inputs":[],"name":"nextTaskId","outputs":[{"internalType":"uint256","name":"","type":"uint256"}],"stateMutability":"view","type":"function"},{"inputs":[{"internalType":"uint256","name":"","type":"uint256"}],"name":"tasks","outputs":[{"internalType":"uint256","name":"id","type":"uint256"},{"internalType":"address","name":"poster","type":"address"},{"internalType":"string","name":"posterAgentId","type":"string"},{"internalType":"string","name":"title","type":"string"},{"internalType":"uint256","name":"rewardAmount","type":"uint256"},{"internalType":"enum TaskMarket.TaskStatus","name":"status","type":"uint8"},{"internalType":"address","name":"acceptor","type":"address"},{"internalType":"string","name":"acceptorAgentId","type":"string"},{"internalType":"address","name":"rewardRecipient","type":"address"},{"internalType":"uint256","name":"createdAt","type":"uint256"},{"internalType":"uint256","name":"completedAt","type":"uint256"}],"stateMutability":"view","type":"function"}],"evm":{"bytecode":{"linkReferences":{},"object":"60806040523480156200001157600080fd5b50604051620026d8380380620026d88339818101604052810190620000379190620000e8565b806000806101000a81548173ffffffffffffffffffffffffffffffffffffffff021916908373ffffffffffffffffffffffffffffffffffffffff160217905550506200011a565b600080fd5b600073ffffffffffffffffffffffffffffffffffffffff82169050919050565b6000620000b08262000083565b9050919050565b620000c281620000a3565b8114620000ce57600080fd5b50565b600081519050620000e281620000b7565b92915050565b6000602082840312156200010157620001006200007e565b5b60006200011184828501620000d1565b91505092915050565b6125ae806200012a6000396000f3fe608060405234801561001057600080fd5b50600436106100885760003560e01c80638d9776721161005b5780638d97767214610125578063dbcddce81461015f578063e1e295581461017d578063fdc3d8d71461019957610088565b80631d65e77e1461008d5780631f30accb146100bd57806341a4e30a146100d95780637eec20a814610109575b600080fd5b6100a760048036038101906100a2919061152b565b6101b7565b6040516100b491906117ac565b60405180910390f35b6100d760048036038101906100d2919061185f565b610500565b005b6100f360048036038101906100ee91906118d3565b6107af565b6040516101009190611977565b60405180910390f35b610123600480360381019061011e919061152b565b610c0c565b005b61013f600480360381019061013a919061152b565b610e90565b6040516101569b9a999897969594939291906119fa565b60405180910390f35b6101676110ef565b6040516101749190611b19565b60405180910390f35b6101976004803603810190610192919061152b565b611113565b005b6101a1611437565b6040516101ae9190611977565b60405180910390f35b6101bf61143d565b6002600083815260200190815260200160002060405180610160016040529081600082015481526020016001820160009054906101000a900473ffffffffffffffffffffffffffffffffffffffff1673ffffffffffffffffffffffffffffffffffffffff1673ffffffffffffffffffffffffffffffffffffffff16815260200160028201805461024e90611b63565b80601f016020809104026020016040519081016040528092919081815260200182805461027a90611b63565b80156102c75780601f1061029c576101008083540402835291602001916102c7565b820191906000526020600020905b8154815290600101906020018083116102aa57829003601f168201915b505050505081526020016003820180546102e090611b63565b80601f016020809104026020016040519081016040528092919081815260200182805461030c90611b63565b80156103595780601f1061032e57610100808354040283529160200191610359565b820191906000526020600020905b81548152906001019060200180831161033c57829003601f168201915b50505050508152602001600482015481526020016005820160009054906101000a900460ff16600381111561039157610390611638565b5b60038111156103a3576103a2611638565b5b81526020016005820160019054906101000a900473ffffffffffffffffffffffffffffffffffffffff1673ffffffffffffffffffffffffffffffffffffffff1673ffffffffffffffffffffffffffffffffffffffff16815260200160068201805461040d90611b63565b80601f016020809104026020016040519081016040528092919081815260200182805461043990611b63565b80156104865780601f1061045b57610100808354040283529160200191610486565b820191906000526020600020905b81548152906001019060200180831161046957829003601f168201915b505050505081526020016007820160009054906101000a900473ffffffffffffffffffffffffffffffffffffffff1673ffffffffffffffffffffffffffffffffffffffff1673ffffffffffffffffffffffffffffffffffffffff168152602001600882015481526020016009820154815250509050919050565b60006002600086815260200190815260200160002090506000600381111561052b5761052a611638565b5b8160050160009054906101000a900460ff16600381111561054f5761054e611638565b5b1461058f576040517f08c379a000000000000000000000000000000000000000000000000000000000815260040161058690611be0565b60405180910390fd5b3373ffffffffffffffffffffffffffffffffffffffff168160010160009054906101000a900473ffffffffffffffffffffffffffffffffffffffff1673ffffffffffffffffffffffffffffffffffffffff1603610621576040517f08c379a000000000000000000000000000000000000000000000000000000000815260040161061890611c4c565b60405180910390fd5b600073ffffffffffffffffffffffffffffffffffffffff168273ffffffffffffffffffffffffffffffffffffffff1603610690576040517f08c379a000000000000000000000000000000000000000000000000000000000815260040161068790611cb8565b60405180910390fd5b60018160050160006101000a81548160ff021916908360038111156106b8576106b7611638565b5b0217905550338160050160016101000a81548173ffffffffffffffffffffffffffffffffffffffff021916908373ffffffffffffffffffffffffffffffffffffffff1602179055508383826006019182610713929190611eb4565b50818160070160006101000a81548173ffffffffffffffffffffffffffffffffffffffff021916908373ffffffffffffffffffffffffffffffffffffffff1602179055503373ffffffffffffffffffffffffffffffffffffffff16857f05d0d345381f6856dc2a2aebc8fe6727ea16a9ee8c3e7e0ca51d11a59b04c7d886866040516107a0929190611fc0565b60405180910390a35050505050565b60008082116107f3576040517f08c379a00000000000000000000000000000000000000000000000000000000081526004016107ea90612030565b60405180910390fd5b60008054906101000a900473ffffffffffffffffffffffffffffffffffffffff1673ffffffffffffffffffffffffffffffffffffffff166323b872dd3330856040518463ffffffff1660e01b815260040161085093929190612050565b6020604051808303816000875af115801561086f573d6000803e3d6000fd5b505050506040513d601f19601f8201168201806040525081019061089391906120bf565b6108d2576040517f08c379a00000000000000000000000000000000000000000000000000000000081526004016108c990612138565b60405180910390fd5b6000600160008154809291906108e790612187565b9190505590506040518061016001604052808281526020013373ffffffffffffffffffffffffffffffffffffffff16815260200188888080601f016020809104026020016040519081016040528093929190818152602001838380828437600081840152601f19601f82011690508083019250505050505050815260200186868080601f016020809104026020016040519081016040528093929190818152602001838380828437600081840152601f19601f820116905080830192505050505050508152602001848152602001600060038111156109c9576109c8611638565b5b8152602001600073ffffffffffffffffffffffffffffffffffffffff168152602001604051806020016040528060008152508152602001600073ffffffffffffffffffffffffffffffffffffffff1681526020014281526020016000815250600260008381526020019081526020016000206000820151816000015560208201518160010160006101000a81548173ffffffffffffffffffffffffffffffffffffffff021916908373ffffffffffffffffffffffffffffffffffffffff1602179055506040820151816002019081610aa191906121cf565b506060820151816003019081610ab791906121cf565b506080820151816004015560a08201518160050160006101000a81548160ff02191690836003811115610aed57610aec611638565b5b021790555060c08201518160050160016101000a81548173ffffffffffffffffffffffffffffffffffffffff021916908373ffffffffffffffffffffffffffffffffffffffff16021790555060e0820151816006019081610b4e91906121cf565b506101008201518160070160006101000a81548173ffffffffffffffffffffffffffffffffffffffff021916908373ffffffffffffffffffffffffffffffffffffffff160217905550610120820151816008015561014082015181600901559050503373ffffffffffffffffffffffffffffffffffffffff16817f6cf53aa7292e664152c2ea948c3b3c95d4b05c36daeb2626d0293473c4a4a15385604051610bf79190611977565b60405180910390a38091505095945050505050565b600060026000838152602001908152602001600020905060006003811115610c3757610c36611638565b5b8160050160009054906101000a900460ff166003811115610c5b57610c5a611638565b5b14610c9b576040517f08c379a0000000000000000000000000000000000000000000000000000000008152600401610c92906122ed565b60405180910390fd5b3373ffffffffffffffffffffffffffffffffffffffff168160010160009054906101000a900473ffffffffffffffffffffffffffffffffffffffff1673ffffffffffffffffffffffffffffffffffffffff1614610d2d576040517f08c379a0000000000000000000000000000000000000000000000000000000008152600401610d2490612359565b60405180910390fd5b60038160050160006101000a81548160ff02191690836003811115610d5557610d54611638565b5b021790555060008054906101000a900473ffffffffffffffffffffffffffffffffffffffff1673ffffffffffffffffffffffffffffffffffffffff1663a9059cbb8260010160009054906101000a900473ffffffffffffffffffffffffffffffffffffffff1683600401546040518363ffffffff1660e01b8152600401610ddd929190612379565b6020604051808303816000875af1158015610dfc573d6000803e3d6000fd5b505050506040513d601f19601f82011682018060405250810190610e2091906120bf565b610e5f576040517f08c379a0000000000000000000000000000000000000000000000000000000008152600401610e56906123ee565b60405180910390fd5b817fc6eacc3aa5b2aa77b5a826b832a804ca0b71830ec74f9aa57a15edd978c31ed660405160405180910390a25050565b60026020528060005260406000206000915090508060000154908060010160009054906101000a900473ffffffffffffffffffffffffffffffffffffffff1690806002018054610edf90611b63565b80601f0160208091040260200160405190810160405280929190818152602001828054610f0b90611b63565b8015610f585780601f10610f2d57610100808354040283529160200191610f58565b820191906000526020600020905b815481529060010190602001808311610f3b57829003601f168201915b505050505090806003018054610f6d90611b63565b80601f0160208091040260200160405190810160405280929190818152602001828054610f9990611b63565b8015610fe65780601f10610fbb57610100808354040283529160200191610fe6565b820191906000526020600020905b815481529060010190602001808311610fc957829003601f168201915b5050505050908060040154908060050160009054906101000a900460ff16908060050160019054906101000a900473ffffffffffffffffffffffffffffffffffffffff169080600601805461103a90611b63565b80601f016020809104026020016040519081016040528092919081815260200182805461106690611b63565b80156110b35780601f10611088576101008083540402835291602001916110b3565b820191906000526020600020905b81548152906001019060200180831161109657829003601f168201915b5050505050908060070160009054906101000a900473ffffffffffffffffffffffffffffffffffffffff1690806008015490806009015490508b565b60008054906101000a900473ffffffffffffffffffffffffffffffffffffffff1681565b60006002600083815260200190815260200160002090506001600381111561113e5761113d611638565b5b8160050160009054906101000a900460ff16600381111561116257611161611638565b5b146111a2576040517f08c379a00000000000000000000000000000000000000000000000000000000081526004016111999061245a565b60405180910390fd5b3373ffffffffffffffffffffffffffffffffffffffff168160010160009054906101000a900473ffffffffffffffffffffffffffffffffffffffff1673ffffffffffffffffffffffffffffffffffffffff1614611234576040517f08c379a000000000000000000000000000000000000000000000000000000000815260040161122b906124ec565b60405180910390fd5b60028160050160006101000a81548160ff0219169083600381111561125c5761125b611638565b5b021790555042816009018190555060008073ffffffffffffffffffffffffffffffffffffffff168260070160009054906101000a900473ffffffffffffffffffffffffffffffffffffffff1673ffffffffffffffffffffffffffffffffffffffff16036112ed578160050160019054906101000a900473ffffffffffffffffffffffffffffffffffffffff16611313565b8160070160009054906101000a900473ffffffffffffffffffffffffffffffffffffffff165b905060008054906101000a900473ffffffffffffffffffffffffffffffffffffffff1673ffffffffffffffffffffffffffffffffffffffff1663a9059cbb8284600401546040518363ffffffff1660e01b8152600401611374929190612379565b6020604051808303816000875af1158015611393573d6000803e3d6000fd5b505050506040513d601f19601f820116820180604052508101906113b791906120bf565b6113f6576040517f08c379a00000000000000000000000000000000000000000000000000000000081526004016113ed90612558565b60405180910390fd5b827ff9c405f91e34dcd1dc136cf6992ada4a8c24a2803e0fab7546364c64dac7ba2b836004015460405161142a9190611977565b60405180910390a2505050565b60015481565b60405180610160016040528060008152602001600073ffffffffffffffffffffffffffffffffffffffff1681526020016060815260200160608152602001600081526020016000600381111561149657611495611638565b5b8152602001600073ffffffffffffffffffffffffffffffffffffffff16815260200160608152602001600073ffffffffffffffffffffffffffffffffffffffff16815260200160008152602001600081525090565b600080fd5b600080fd5b6000819050919050565b611508816114f5565b811461151357600080fd5b50565b600081359050611525816114ff565b92915050565b600060208284031215611541576115406114eb565b5b600061154f84828501611516565b91505092915050565b611561816114f5565b82525050565b600073ffffffffffffffffffffffffffffffffffffffff82169050919050565b600061159282611567565b9050919050565b6115a281611587565b82525050565b600081519050919050565b600082825260208201905092915050565b60005b838110156115e25780820151818401526020810190506115c7565b60008484015250505050565b6000601f19601f8301169050919050565b600061160a826115a8565b61161481856115b3565b93506116248185602086016115c4565b61162d816115ee565b840191505092915050565b7f4e487b7100000000000000000000000000000000000000000000000000000000600052602160045260246000fd5b6004811061167857611677611638565b5b50565b600081905061168982611667565b919050565b60006116998261167b565b9050919050565b6116a98161168e565b82525050565b6000610160830160008301516116c86000860182611558565b5060208301516116db6020860182611599565b50604083015184820360408601526116f382826115ff565b9150506060830151848203606086015261170d82826115ff565b91505060808301516117226080860182611558565b5060a083015161173560a08601826116a0565b5060c083015161174860c0860182611599565b5060e083015184820360e086015261176082826115ff565b915050610100830151611777610100860182611599565b5061012083015161178c610120860182611558565b506101408301516117a1610140860182611558565b508091505092915050565b600060208201905081810360008301526117c681846116af565b905092915050565b600080fd5b600080fd5b600080fd5b60008083601f8401126117f3576117f26117ce565b5b8235905067ffffffffffffffff8111156118105761180f6117d3565b5b60208301915083600182028301111561182c5761182b6117d8565b5b9250929050565b61183c81611587565b811461184757600080fd5b50565b60008135905061185981611833565b92915050565b60008060008060608587031215611879576118786114eb565b5b600061188787828801611516565b945050602085013567ffffffffffffffff8111156118a8576118a76114f0565b5b6118b4878288016117dd565b935093505060406118c78782880161184a565b91505092959194509250565b6000806000806000606086880312156118ef576118ee6114eb565b5b600086013567ffffffffffffffff81111561190d5761190c6114f0565b5b611919888289016117dd565b9550955050602086013567ffffffffffffffff81111561193c5761193b6114f0565b5b611948888289016117dd565b9350935050604061195b88828901611516565b9150509295509295909350565b611971816114f5565b82525050565b600060208201905061198c6000830184611968565b92915050565b61199b81611587565b82525050565b600082825260208201905092915050565b60006119bd826115a8565b6119c781856119a1565b93506119d78185602086016115c4565b6119e0816115ee565b840191505092915050565b6119f48161168e565b82525050565b600061016082019050611a10600083018e611968565b611a1d602083018d611992565b8181036040830152611a2f818c6119b2565b90508181036060830152611a43818b6119b2565b9050611a52608083018a611968565b611a5f60a08301896119eb565b611a6c60c0830188611992565b81810360e0830152611a7e81876119b2565b9050611a8e610100830186611992565b611a9c610120830185611968565b611aaa610140830184611968565b9c9b505050505050505050505050565b6000819050919050565b6000611adf611ada611ad584611567565b611aba565b611567565b9050919050565b6000611af182611ac4565b9050919050565b6000611b0382611ae6565b9050919050565b611b1381611af8565b82525050565b6000602082019050611b2e6000830184611b0a565b92915050565b7f4e487b7100000000000000000000000000000000000000000000000000000000600052602260045260246000fd5b60006002820490506001821680611b7b57607f821691505b602082108103611b8e57611b8d611b34565b5b50919050565b7f5461736b206e6f74206f70656e00000000000000000000000000000000000000600082015250565b6000611bca600d836119a1565b9150611bd582611b94565b602082019050919050565b60006020820190508181036000830152611bf981611bbd565b9050919050565b7f43616e6e6f7420616363657074206f776e207461736b00000000000000000000600082015250565b6000611c366016836119a1565b9150611c4182611c00565b602082019050919050565b60006020820190508181036000830152611c6581611c29565b9050919050565b7f52657761726420726563697069656e7420726571756972656400000000000000600082015250565b6000611ca26019836119a1565b9150611cad82611c6c565b602082019050919050565b60006020820190508181036000830152611cd181611c95565b9050919050565b600082905092915050565b7f4e487b7100000000000000000000000000000000000000000000000000000000600052604160045260246000fd5b60008190508160005260206000209050919050565b60006020601f8301049050919050565b600082821b905092915050565b600060088302611d747fffffffffffffffffffffffffffffffffffffffffffffffffffffffffffffffff82611d37565b611d7e8683611d37565b95508019841693508086168417925050509392505050565b6000611db1611dac611da7846114f5565b611aba565b6114f5565b9050919050565b6000819050919050565b611dcb83611d96565b611ddf611dd782611db8565b848454611d44565b825550505050565b600090565b611df4611de7565b611dff818484611dc2565b505050565b5b81811015611e2357611e18600082611dec565b600181019050611e05565b5050565b601f821115611e6857611e3981611d12565b611e4284611d27565b81016020851015611e51578190505b611e65611e5d85611d27565b830182611e04565b50505b505050565b600082821c905092915050565b6000611e8b60001984600802611e6d565b1980831691505092915050565b6000611ea48383611e7a565b9150826002028217905092915050565b611ebe8383611cd8565b67ffffffffffffffff811115611ed757611ed6611ce3565b5b611ee18254611b63565b611eec828285611e27565b6000601f831160018114611f1b5760008415611f09578287013590505b611f138582611e98565b865550611f7b565b601f198416611f2986611d12565b60005b82811015611f5157848901358255600182019150602085019450602081019050611f2c565b86831015611f6e5784890135611f6a601f891682611e7a565b8355505b6001600288020188555050505b50505050505050565b82818337600083830152505050565b6000611f9f83856119a1565b9350611fac838584611f84565b611fb5836115ee565b840190509392505050565b60006020820190508181036000830152611fdb818486611f93565b90509392505050565b7f526577617264206d757374206265203e20300000000000000000000000000000600082015250565b600061201a6012836119a1565b915061202582611fe4565b602082019050919050565b600060208201905081810360008301526120498161200d565b9050919050565b60006060820190506120656000830186611992565b6120726020830185611992565b61207f6040830184611968565b949350505050565b60008115159050919050565b61209c81612087565b81146120a757600080fd5b50565b6000815190506120b981612093565b92915050565b6000602082840312156120d5576120d46114eb565b5b60006120e3848285016120aa565b91505092915050565b7f457363726f77207472616e73666572206661696c656400000000000000000000600082015250565b60006121226016836119a1565b915061212d826120ec565b602082019050919050565b6000602082019050818103600083015261215181612115565b9050919050565b7f4e487b7100000000000000000000000000000000000000000000000000000000600052601160045260246000fd5b6000612192826114f5565b91507fffffffffffffffffffffffffffffffffffffffffffffffffffffffffffffffff82036121c4576121c3612158565b5b600182019050919050565b6121d8826115a8565b67ffffffffffffffff8111156121f1576121f0611ce3565b5b6121fb8254611b63565b612206828285611e27565b600060209050601f8311600181146122395760008415612227578287015190505b6122318582611e98565b865550612299565b601f19841661224786611d12565b60005b8281101561226f5784890151825560018201915060208501945060208101905061224a565b8683101561228c5784890151612288601f891682611e7a565b8355505b6001600288020188555050505b505050505050565b7f43616e206f6e6c792063616e63656c206f70656e207461736b73000000000000600082015250565b60006122d7601a836119a1565b91506122e2826122a1565b602082019050919050565b60006020820190508181036000830152612306816122ca565b9050919050565b7f4f6e6c7920706f737465722063616e2063616e63656c00000000000000000000600082015250565b60006123436016836119a1565b915061234e8261230d565b602082019050919050565b6000602082019050818103600083015261237281612336565b9050919050565b600060408201905061238e6000830185611992565b61239b6020830184611968565b9392505050565b7f526566756e64206661696c656400000000000000000000000000000000000000600082015250565b60006123d8600d836119a1565b91506123e3826123a2565b602082019050919050565b60006020820190508181036000830152612407816123cb565b9050919050565b7f5461736b206e6f74206163636570746564000000000000000000000000000000600082015250565b60006124446011836119a1565b915061244f8261240e565b602082019050919050565b6000602082019050818103600083015261247381612437565b9050919050565b7f4f6e6c7920706f737465722063616e20636f6e6669726d20636f6d706c65746960008201527f6f6e000000000000000000000000000000000000000000000000000000000000602082015250565b60006124d66022836119a1565b91506124e18261247a565b604082019050919050565b60006020820190508181036000830152612505816124c9565b9050919050565b7f526577617264207472616e73666572206661696c656400000000000000000000600082015250565b60006125426016836119a1565b915061254d8261250c565b602082019050919050565b6000602082019050818103600083015261257181612535565b905091905056fea26469706673582212204ebbbebf1eb8600c9ad1401e3b654652dca832d22e43866821857de0199c76ac64736f6c63430008180033","opcodes":"PUSH1 0x80 PUSH1 0x40 MSTORE CALLVALUE DUP1 ISZERO PUSH3 0x11 JUMPI PUSH1 0x0 DUP1 REVERT JUMPDEST POP PUSH1 0x40 MLOAD PUSH3 0x26D8 CODESIZE SUB DUP1 PUSH3 0x26D8 DUP4 CODECOPY DUP2 DUP2 ADD PUSH1 0x40 MSTORE DUP2 ADD SWAP1 PUSH3 0x37 SWAP2 SWAP1 PUSH3 0xE8 JUMP JUMPDEST DUP1 PUSH1 0x0 DUP1 PUSH2 0x100 EXP DUP2 SLOAD DUP2 PUSH20 0xFFFFFFFFFFFFFFFFFFFFFFFFFFFFFFFFFFFFFFFF MUL NOT AND SWAP1 DUP4 PUSH20 0xFFFFFFFFFFFFFFFFFFFFFFFFFFFFFFFFFFFFFFFF AND MUL OR SWAP1 SSTORE POP POP PUSH3 0x11A JUMP JUMPDEST PUSH1 0x0 DUP1 REVERT JUMPDEST PUSH1 0x0 PUSH20 0xFFFFFFFFFFFFFFFFFFFFFFFFFFFFFFFFFFFFFFFF DUP3 AND SWAP1 POP SWAP2 SWAP1 POP JUMP JUMPDEST PUSH1 0x0 PUSH3 0xB0 DUP3 PUSH3 0x83 JUMP JUMPDEST SWAP1 POP SWAP2 SWAP1 POP JUMP JUMPDEST PUSH3 0xC2 DUP2 PUSH3 0xA3 JUMP JUMPDEST DUP2 EQ PUSH3 0xCE JUMPI PUSH1 0x0 DUP1 REVERT JUMPDEST POP JUMP JUMPDEST PUSH1 0x0 DUP2 MLOAD SWAP1 POP PUSH3 0xE2 DUP2 PUSH3 0xB7 JUMP JUMPDEST SWAP3 SWAP2 POP POP JUMP JUMPDEST PUSH1 0x0 PUSH1 0x20 DUP3 DUP5 SUB SLT ISZERO PUSH3 0x101 JUMPI PUSH3 0x100 PUSH3 0x7E JUMP JUMPDEST JUMPDEST PUSH1 0x0 PUSH3 0x111 DUP5 DUP3 DUP6 ADD PUSH3 0xD1 JUMP JUMPDEST SWAP2 POP POP SWAP3 SWAP2 POP POP JUMP JUMPDEST PUSH2 0x25AE DUP1 PUSH3 0x12A PUSH1 0x0 CODECOPY PUSH1 0x0 RETURN INVALID PUSH1 0x80 PUSH1 0x40 MSTORE CALLVALUE DUP1 ISZERO PUSH2 0x10 JUMPI PUSH1 0x0 DUP1 REVERT JUMPDEST POP PUSH1 0x4 CALLDATASIZE LT PUSH2 0x88 JUMPI PUSH1 0x0 CALLDATALOAD PUSH1 0xE0 SHR DUP1 PUSH4 0x8D977672 GT PUSH2 0x5B JUMPI DUP1 PUSH4 0x8D977672 EQ PUSH2 0x125 JUMPI DUP1 PUSH4 0xDBCDDCE8 EQ PUSH2 0x15F JUMPI DUP1 PUSH4 0xE1E29558 EQ PUSH2 0x17D JUMPI DUP1 PUSH4 0xFDC3D8D7 EQ PUSH2 0x199 JUMPI PUSH2 0x88 JUMP JUMPDEST DUP1 PUSH4 0x1D65E77E EQ PUSH2 0x8D JUMPI DUP1 PUSH4 0x1F30ACCB EQ PUSH2 0xBD JUMPI DUP1 PUSH4 0x41A4E30A EQ PUSH2 0xD9 JUMPI DUP1 PUSH4 0x7EEC20A8 EQ PUSH2 0x109 JUMPI JUMPDEST PUSH1 0x0 DUP1 REVERT JUMPDEST PUSH2 0xA7 PUSH1 0x4 DUP1 CALLDATASIZE SUB DUP2 ADD SWAP1 PUSH2 0xA2 SWAP2 SWAP1 PUSH2 0x152B JUMP JUMPDEST PUSH2 0x1B7 JUMP JUMPDEST PUSH1 0x40 MLOAD PUSH2 0xB4 SWAP2 SWAP1 PUSH2 0x17AC JUMP JUMPDEST PUSH1 0x40 MLOAD DUP1 SWAP2 SUB SWAP1 RETURN JUMPDEST PUSH2 0xD7 PUSH1 0x4 DUP1 CALLDATASIZE SUB DUP2 ADD SWAP1 PUSH2 0xD2 SWAP2 SWAP1 PUSH2 0x185F JUMP JUMPDEST PUSH2 0x500 JUMP JUMPDEST STOP JUMPDEST PUSH2 0xF3 PUSH1 0x4 DUP1 CALLDATASIZE SUB DUP2 ADD SWAP1 PUSH2 0xEE SWAP2 SWAP1 PUSH2 0x18D3 JUMP JUMPDEST PUSH2 0x7AF JUMP JUMPDEST PUSH1 0x40 MLOAD PUSH2 0x100 SWAP2 SWAP1 PUSH2 0x1977 JUMP JUMPDEST PUSH1 0x40 MLOAD DUP1 SWAP2 SUB SWAP1 RETURN JUMPDEST PUSH2 0x123 PUSH1 0x4 DUP1 CALLDATASIZE SUB DUP2 ADD SWAP1 PUSH2 0x11E SWAP2 SWAP1 PUSH2 0x152B JUMP JUMPDEST PUSH2 0xC0C JUMP JUMPDEST STOP JUMPDEST PUSH2 0x13F PUSH1 0x4 DUP1 CALLDATASIZE SUB DUP2 ADD SWAP1 PUSH2 0x13A SWAP2 SWAP1 PUSH2 0x152B JUMP JUMPDEST PUSH2 0xE90 JUMP JUMPDEST PUSH1 0x40 MLOAD PUSH2 0x156 SWAP12 SWAP11 SWAP10 SWAP9 SWAP8 SWAP7 SWAP6 SWAP5 SWAP4 SWAP3 SWAP2 SWAP1 PUSH2 0x19FA JUMP JUMPDEST PUSH1 0x40 MLOAD DUP1 SWAP2 SUB SWAP1 RETURN JUMPDEST PUSH2 0x167 PUSH2 0x10EF JUMP JUMPDEST PUSH1 0x40 MLOAD PUSH2 0x174 SWAP2 SWAP1 PUSH2 0x1B19 JUMP JUMPDEST PUSH1 0x40 MLOAD DUP1 SWAP2 SUB SWAP1 RETURN JUMPDEST PUSH2 0x197 PUSH1 0x4 DUP1 CALLDATASIZE SUB DUP2 ADD SWAP1 PUSH2 0x192 SWAP2 SWAP1 PUSH2 0x152B JUMP JUMPDEST PUSH2 0x1113 JUMP JUMPDEST STOP JUMPDEST PUSH2 0x1A1 PUSH2 0x1437 JUMP JUMPDEST PUSH1 0x40 MLOAD PUSH2 0x1AE SWAP2 SWAP1 PUSH2 0x1977 JUMP JUMPDEST PUSH1 0x40 MLOAD DUP1 SWAP2 SUB SWAP1 RETURN JUMPDEST PUSH2 0x1BF PUSH2 0x143D JUMP JUMPDEST PUSH1 0x2 PUSH1 0x0 DUP4 DUP2 MSTORE PUSH1 0x20 ADD SWAP1 DUP2 MSTORE PUSH1 0x20 ADD PUSH1 0x0 KECCAK256 PUSH1 0x40 MLOAD DUP1 PUSH2 0x160 ADD PUSH1 0x40 MSTORE SWAP1 DUP2 PUSH1 0x0 DUP3 ADD SLOAD DUP2 MSTORE PUSH1 0x20 ADD PUSH1 0x1 DUP3 ADD PUSH1 0x0 SWAP1 SLOAD SWAP1 PUSH2 0x100 EXP SWAP1 DIV PUSH20 0xFFFFFFFFFFFFFFFFFFFFFFFFFFFFFFFFFFFFFFFF AND PUSH20 0xFFFFFFFFFFFFFFFFFFFFFFFFFFFFFFFFFFFFFFFF AND PUSH20 0xFFFFFFFFFFFFFFFFFFFFFFFFFFFFFFFFFFFFFFFF AND DUP2 MSTORE PUSH1 0x20 ADD PUSH1 0x2 DUP3 ADD DUP1 SLOAD PUSH2 0x24E SWAP1 PUSH2 0x1B63 JUMP JUMPDEST DUP1 PUSH1 0x1F ADD PUSH1 0x20 DUP1 SWAP2 DIV MUL PUSH1 0x20 ADD PUSH1 0x40 MLOAD SWAP1 DUP2 ADD PUSH1 0x40 MSTORE DUP1 SWAP3 SWAP2 SWAP1 DUP2 DUP2 MSTORE PUSH1 0x20 ADD DUP3 DUP1 SLOAD PUSH2 0x27A SWAP1 PUSH2 0x1B63 JUMP JUMPDEST DUP1 ISZERO PUSH2 0x2C7 JUMPI DUP1 PUSH1 0x1F LT PUSH2 0x29C JUMPI PUSH2 0x100 DUP1 DUP4 SLOAD DIV MUL DUP4 MSTORE SWAP2 PUSH1 0x20 ADD SWAP2 PUSH2 0x2C7 JUMP JUMPDEST DUP3 ADD SWAP2 SWAP1 PUSH1 0x0 MSTORE PUSH1 0x20 PUSH1 0x0 KECCAK256 SWAP1 JUMPDEST DUP2 SLOAD DUP2 MSTORE SWAP1 PUSH1 0x1 ADD SWAP1 PUSH1 0x20 ADD DUP1 DUP4 GT PUSH2 0x2AA JUMPI DUP3 SWAP1 SUB PUSH1 0x1F AND DUP3 ADD SWAP2 JUMPDEST POP POP POP POP POP DUP2 MSTORE PUSH1 0x20 ADD PUSH1 0x3 DUP3 ADD DUP1 SLOAD PUSH2 0x2E0 SWAP1 PUSH2 0x1B63 JUMP JUMPDEST DUP1 PUSH1 0x1F ADD PUSH1 0x20 DUP1 SWAP2 DIV MUL PUSH1 0x20 ADD PUSH1 0x40 MLOAD SWAP1 DUP2 ADD PUSH1 0x40 MSTORE DUP1 SWAP3 SWAP2 SWAP1 DUP2 DUP2 MSTORE PUSH1 0x20 ADD DUP3 DUP1 SLOAD PUSH2 0x30C SWAP1 PUSH2 0x1B63 JUMP JUMPDEST DUP1 ISZERO PUSH2 0x359 JUMPI DUP1 PUSH1 0x1F LT PUSH2 0x32E JUMPI PUSH2 0x100 DUP1 DUP4 SLOAD DIV MUL DUP4 MSTORE SWAP2 PUSH1 0x20 ADD SWAP2 PUSH2 0x359 JUMP JUMPDEST DUP3 ADD SWAP2 SWAP1 PUSH1 0x0 MSTORE PUSH1 0x20 PUSH1 0x0 KECCAK256 SWAP1 JUMPDEST DUP2 SLOAD DUP2 MSTORE SWAP1 PUSH1 0x1 ADD SWAP1 PUSH1 0x20 ADD DUP1 DUP4 GT PUSH2 0x33C JUMPI DUP3 SWAP1 SUB PUSH1 0x1F AND DUP3 ADD SWAP2 JUMPDEST POP POP POP POP POP DUP2 MSTORE PUSH1 0x20 ADD PUSH1 0x4 DUP3 ADD SLOAD DUP2 MSTORE PUSH1 0x20 ADD PUSH1 0x5 DUP3 ADD PUSH1 0x0 SWAP1 SLOAD SWAP1 PUSH2 0x100 EXP SWAP1 DIV PUSH1 0xFF AND PUSH1 0x3 DUP2 GT ISZERO PUSH2 0x391 JUMPI PUSH2 0x390 PUSH2 0x1638 JUMP JUMPDEST JUMPDEST PUSH1 0x3 DUP2 GT ISZERO PUSH2 0x3A3 JUMPI PUSH2 0x3A2 PUSH2 0x1638 JUMP JUMPDEST JUMPDEST DUP2 MSTORE PUSH1 0x20 ADD PUSH1 0x5 DUP3 ADD PUSH1 0x1 SWAP1 SLOAD SWAP1 PUSH2 0x100 EXP SWAP1 DIV PUSH20 0xFFFFFFFFFFFFFFFFFFFFFFFFFFFFFFFFFFFFFFFF AND PUSH20 0xFFFFFFFFFFFFFFFFFFFFFFFFFFFFFFFFFFFFFFFF AND PUSH20 0xFFFFFFFFFFFFFFFFFFFFFFFFFFFFFFFFFFFFFFFF AND DUP2 MSTORE PUSH1 0x20 ADD PUSH1 0x6 DUP3 ADD DUP1 SLOAD PUSH2 0x40D SWAP1 PUSH2 0x1B63 JUMP JUMPDEST DUP1 PUSH1 0x1F ADD PUSH1 0x20 DUP1 SWAP2 DIV MUL PUSH1 0x20 ADD PUSH1 0x40 MLOAD SWAP1 DUP2 ADD PUSH1 0x40 MSTORE DUP1 SWAP3 SWAP2 SWAP1 DUP2 DUP2 MSTORE PUSH1 0x20 ADD DUP3 DUP1 SLOAD PUSH2 0x439 SWAP1 PUSH2 0x1B63 JUMP JUMPDEST DUP1 ISZERO PUSH2 0x486 JUMPI DUP1 PUSH1 0x1F LT PUSH2 0x45B JUMPI PUSH2 0x100 DUP1 DUP4 SLOAD DIV MUL DUP4 MSTORE SWAP2 PUSH1 0x20 ADD SWAP2 PUSH2 0x486 JUMP JUMPDEST DUP3 ADD SWAP2 SWAP1 PUSH1 0x0 MSTORE PUSH1 0x20 PUSH1 0x0 KECCAK256 SWAP1 JUMPDEST DUP2 SLOAD DUP2 MSTORE SWAP1 PUSH1 0x1 ADD SWAP1 PUSH1 0x20 ADD DUP1 DUP4 GT PUSH2 0x469 JUMPI DUP3 SWAP1 SUB PUSH1 0x1F AND DUP3 ADD SWAP2 JUMPDEST POP POP POP POP POP DUP2 MSTORE PUSH1 0x20 ADD PUSH1 0x7 DUP3 ADD PUSH1 0x0 SWAP1 SLOAD SWAP1 PUSH2 0x100 EXP SWAP1 DIV PUSH20 0xFFFFFFFFFFFFFFFFFFFFFFFFFFFFFFFFFFFFFFFF AND PUSH20 0xFFFFFFFFFFFFFFFFFFFFFFFFFFFFFFFFFFFFFFFF AND PUSH20 0xFFFFFFFFFFFFFFFFFFFFFFFFFFFFFFFFFFFFFFFF AND DUP2 MSTORE PUSH1 0x20 ADD PUSH1 0x8 DUP3 ADD SLOAD DUP2 MSTORE PUSH1 0x20 ADD PUSH1 0x9 DUP3 ADD SLOAD DUP2 MSTORE POP POP SWAP1 POP SWAP2 SWAP1 POP JUMP JUMPDEST PUSH1 0x0 PUSH1 0x2 PUSH1 0x0 DUP7 DUP2 MSTORE PUSH1 0x20 ADD SWAP1 DUP2 MSTORE PUSH1 0x20 ADD PUSH1 0x0 KECCAK256 SWAP1 POP PUSH1 0x0 PUSH1 0x3 DUP2 GT ISZERO PUSH2 0x52B JUMPI PUSH2 0x52A PUSH2 0x1638 JUMP JUMPDEST JUMPDEST DUP2 PUSH1 0x5 ADD PUSH1 0x0 SWAP1 SLOAD SWAP1 PUSH2 0x100 EXP SWAP1 DIV PUSH1 0xFF AND PUSH1 0x3 DUP2 GT ISZERO PUSH2 0x54F JUMPI PUSH2 0x54E PUSH2 0x1638 JUMP JUMPDEST JUMPDEST EQ PUSH2 0x58F JUMPI PUSH1 0x40 MLOAD PUSH32 0x8C379A000000000000000000000000000000000000000000000000000000000 DUP2 MSTORE PUSH1 0x4 ADD PUSH2 0x586 SWAP1 PUSH2 0x1BE0 JUMP JUMPDEST PUSH1 0x40 MLOAD DUP1 SWAP2 SUB SWAP1 REVERT JUMPDEST CALLER PUSH20 0xFFFFFFFFFFFFFFFFFFFFFFFFFFFFFFFFFFFFFFFF AND DUP2 PUSH1 0x1 ADD PUSH1 0x0 SWAP1 SLOAD SWAP1 PUSH2 0x100 EXP SWAP1 DIV PUSH20 0xFFFFFFFFFFFFFFFFFFFFFFFFFFFFFFFFFFFFFFFF AND PUSH20 0xFFFFFFFFFFFFFFFFFFFFFFFFFFFFFFFFFFFFFFFF AND SUB PUSH2 0x621 JUMPI PUSH1 0x40 MLOAD PUSH32 0x8C379A000000000000000000000000000000000000000000000000000000000 DUP2 MSTORE PUSH1 0x4 ADD PUSH2 0x618 SWAP1 PUSH2 0x1C4C JUMP JUMPDEST PUSH1 0x40 MLOAD DUP1 SWAP2 SUB SWAP1 REVERT JUMPDEST PUSH1 0x0 PUSH20 0xFFFFFFFFFFFFFFFFFFFFFFFFFFFFFFFFFFFFFFFF AND DUP3 PUSH20 0xFFFFFFFFFFFFFFFFFFFFFFFFFFFFFFFFFFFFFFFF AND SUB PUSH2 0x690 JUMPI PUSH1 0x40 MLOAD PUSH32 0x8C379A000000000000000000000000000000000000000000000000000000000 DUP2 MSTORE PUSH1 0x4 ADD PUSH2 0x687 SWAP1 PUSH2 0x1CB8 JUMP JUMPDEST PUSH1 0x40 MLOAD DUP1 SWAP2 SUB SWAP1 REVERT JUMPDEST PUSH1 0x1 DUP2 PUSH1 0x5 ADD PUSH1 0x0 PUSH2 0x100 EXP DUP2 SLOAD DUP2 PUSH1 0xFF MUL NOT AND SWAP1 DUP4 PUSH1 0x3 DUP2 GT ISZERO PUSH2 0x6B8 JUMPI PUSH2 0x6B7 PUSH2 0x1638 JUMP JUMPDEST JUMPDEST MUL OR SWAP1 SSTORE POP CALLER DUP2 PUSH1 0x5 ADD PUSH1 0x1 PUSH2 0x100 EXP DUP2 SLOAD DUP2 PUSH20 0xFFFFFFFFFFFFFFFFFFFFFFFFFFFFFFFFFFFFFFFF MUL NOT AND SWAP1 DUP4 PUSH20 0xFFFFFFFFFFFFFFFFFFFFFFFFFFFFFFFFFFFFFFFF AND MUL OR SWAP1 SSTORE POP DUP4 DUP4 DUP3 PUSH1 0x6 ADD SWAP2 DUP3 PUSH2 0x713 SWAP3 SWAP2 SWAP1 PUSH2 0x1EB4 JUMP JUMPDEST POP DUP2 DUP2 PUSH1 0x7 ADD PUSH1 0x0 PUSH2 0x100 EXP DUP2 SLOAD DUP2 PUSH20 0xFFFFFFFFFFFFFFFFFFFFFFFFFFFFFFFFFFFFFFFF MUL NOT AND SWAP1 DUP4 PUSH20 0xFFFFFFFFFFFFFFFFFFFFFFFFFFFFFFFFFFFFFFFF AND MUL OR SWAP1 SSTORE POP CALLER PUSH20 0xFFFFFFFFFFFFFFFFFFFFFFFFFFFFFFFFFFFFFFFF AND DUP6 PUSH32 0x5D0D345381F6856DC2A2AEBC8FE6727EA16A9EE8C3E7E0CA51D11A59B04C7D8 DUP7 DUP7 PUSH1 0x40 MLOAD PUSH2 0x7A0 SWAP3 SWAP2 SWAP1 PUSH2 0x1FC0 JUMP JUMPDEST PUSH1 0x40 MLOAD DUP1 SWAP2 SUB SWAP1 LOG3 POP POP POP POP POP JUMP JUMPDEST PUSH1 0x0 DUP1 DUP3 GT PUSH2 0x7F3 JUMPI PUSH1 0x40 MLOAD PUSH32 0x8C379A000000000000000000000000000000000000000000000000000000000 DUP2 MSTORE PUSH1 0x4 ADD PUSH2 0x7EA SWAP1 PUSH2 0x2030 JUMP JUMPDEST PUSH1 0x40 MLOAD DUP1 SWAP2 SUB SWAP1 REVERT JUMPDEST PUSH1 0x0 DUP1 SLOAD SWAP1 PUSH2 0x100 EXP SWAP1 DIV PUSH20 0xFFFFFFFFFFFFFFFFFFFFFFFFFFFFFFFFFFFFFFFF AND PUSH20 0xFFFFFFFFFFFFFFFFFFFFFFFFFFFFFFFFFFFFFFFF AND PUSH4 0x23B872DD CALLER ADDRESS DUP6 PUSH1 0x40 MLOAD DUP5 PUSH4 0xFFFFFFFF AND PUSH1 0xE0 SHL DUP2 MSTORE PUSH1 0x4 ADD PUSH2 0x850 SWAP4 SWAP3 SWAP2 SWAP1 PUSH2 0x2050 JUMP JUMPDEST PUSH1 0x20 PUSH1 0x40 MLOAD DUP1 DUP4 SUB DUP2 PUSH1 0x0 DUP8 GAS CALL ISZERO DUP1 ISZERO PUSH2 0x86F JUMPI RETURNDATASIZE PUSH1 0x0 DUP1 RETURNDATACOPY RETURNDATASIZE PUSH1 0x0 REVERT JUMPDEST POP POP POP POP PUSH1 0x40 MLOAD RETURNDATASIZE PUSH1 0x1F NOT PUSH1 0x1F DUP3 ADD AND DUP3 ADD DUP1 PUSH1 0x40 MSTORE POP DUP2 ADD SWAP1 PUSH2 0x893 SWAP2 SWAP1 PUSH2 0x20BF JUMP JUMPDEST PUSH2 0x8D2 JUMPI PUSH1 0x40 MLOAD PUSH32 0x8C379A000000000000000000000000000000000000000000000000000000000 DUP2 MSTORE PUSH1 0x4 ADD PUSH2 0x8C9 SWAP1 PUSH2 0x2138 JUMP JUMPDEST PUSH1 0x40 MLOAD DUP1 SWAP2 SUB SWAP1 REVERT JUMPDEST PUSH1 0x0 PUSH1 0x1 PUSH1 0x0 DUP2 SLOAD DUP1 SWAP3 SWAP2 SWAP1 PUSH2 0x8E7 SWAP1 PUSH2 0x2187 JUMP JUMPDEST SWAP2 SWAP1 POP SSTORE SWAP1 POP PUSH1 0x40 MLOAD DUP1 PUSH2 0x160 ADD PUSH1 0x40 MSTORE DUP1 DUP3 DUP2 MSTORE PUSH1 0x20 ADD CALLER PUSH20 0xFFFFFFFFFFFFFFFFFFFFFFFFFFFFFFFFFFFFFFFF AND DUP2 MSTORE PUSH1 0x20 ADD DUP9 DUP9 DUP1 DUP1 PUSH1 0x1F ADD PUSH1 0x20 DUP1 SWAP2 DIV MUL PUSH1 0x20 ADD PUSH1 0x40 MLOAD SWAP1 DUP2 ADD PUSH1 0x40 MSTORE DUP1 SWAP4 SWAP3 SWAP2 SWAP1 DUP2 DUP2 MSTORE PUSH1 0x20 ADD DUP4 DUP4 DUP1 DUP3 DUP5 CALLDATACOPY PUSH1 0x0 DUP2 DUP5 ADD MSTORE PUSH1 0x1F NOT PUSH1 0x1F DUP3 ADD AND SWAP1 POP DUP1 DUP4 ADD SWAP3 POP POP POP POP POP POP POP DUP2 MSTORE PUSH1 0x20 ADD DUP7 DUP7 DUP1 DUP1 PUSH1 0x1F ADD PUSH1 0x20 DUP1 SWAP2 DIV MUL PUSH1 0x20 ADD PUSH1 0x40 MLOAD SWAP1 DUP2 ADD PUSH1 0x40 MSTORE DUP1 SWAP4 SWAP3 SWAP2 SWAP1 DUP2 DUP2 MSTORE PUSH1 0x20 ADD DUP4 DUP4 DUP1 DUP3 DUP5 CALLDATACOPY PUSH1 0x0 DUP2 DUP5 ADD MSTORE PUSH1 0x1F NOT PUSH1 0x1F DUP3 ADD AND SWAP1 POP DUP1 DUP4 ADD SWAP3 POP POP POP POP POP POP POP DUP2 MSTORE PUSH1 0x20 ADD DUP5 DUP2 MSTORE PUSH1 0x20 ADD PUSH1 0x0 PUSH1 0x3 DUP2 GT ISZERO PUSH2 0x9C9 JUMPI PUSH2 0x9C8 PUSH2 0x1638 JUMP JUMPDEST JUMPDEST DUP2 MSTORE PUSH1 0x20 ADD PUSH1 0x0 PUSH20 0xFFFFFFFFFFFFFFFFFFFFFFFFFFFFFFFFFFFFFFFF AND DUP2 MSTORE PUSH1 0x20 ADD PUSH1 0x40 MLOAD DUP1 PUSH1 0x20 ADD PUSH1 0x40 MSTORE DUP1 PUSH1 0x0 DUP2 MSTORE POP DUP2 MSTORE PUSH1 0x20 ADD PUSH1 0x0 PUSH20 0xFFFFFFFFFFFFFFFFFFFFFFFFFFFFFFFFFFFFFFFF AND DUP2 MSTORE PUSH1 0x20 ADD TIMESTAMP DUP2 MSTORE PUSH1 0x20 ADD PUSH1 0x0 DUP2 MSTORE POP PUSH1 0x2 PUSH1 0x0 DUP4 DUP2 MSTORE PUSH1 0x20 ADD SWAP1 DUP2 MSTORE PUSH1 0x20 ADD PUSH1 0x0 KECCAK256 PUSH1 0x0 DUP3 ADD MLOAD DUP2 PUSH1 0x0 ADD SSTORE PUSH1 0x20 DUP3 ADD MLOAD DUP2 PUSH1 0x1 ADD PUSH1 0x0 PUSH2 0x100 EXP DUP2 SLOAD DUP2 PUSH20 0xFFFFFFFFFFFFFFFFFFFFFFFFFFFFFFFFFFFFFFFF MUL NOT AND SWAP1 DUP4 PUSH20 0xFFFFFFFFFFFFFFFFFFFFFFFFFFFFFFFFFFFFFFFF AND MUL OR SWAP1 SSTORE POP PUSH1 0x40 DUP3 ADD MLOAD DUP2 PUSH1 0x2 ADD SWAP1 DUP2 PUSH2 0xAA1 SWAP2 SWAP1 PUSH2 0x21CF JUMP JUMPDEST POP PUSH1 0x60 DUP3 ADD MLOAD DUP2 PUSH1 0x3 ADD SWAP1 DUP2 PUSH2 0xAB7 SWAP2 SWAP1 PUSH2 0x21CF JUMP JUMPDEST POP PUSH1 0x80 DUP3 ADD MLOAD DUP2 PUSH1 0x4 ADD SSTORE PUSH1 0xA0 DUP3 ADD MLOAD DUP2 PUSH1 0x5 ADD PUSH1 0x0 PUSH2 0x100 EXP DUP2 SLOAD DUP2 PUSH1 0xFF MUL NOT AND SWAP1 DUP4 PUSH1 0x3 DUP2 GT ISZERO PUSH2 0xAED JUMPI PUSH2 0xAEC PUSH2 0x1638 JUMP JUMPDEST JUMPDEST MUL OR SWAP1 SSTORE POP PUSH1 0xC0 DUP3 ADD MLOAD DUP2 PUSH1 0x5 ADD PUSH1 0x1 PUSH2 0x100 EXP DUP2 SLOAD DUP2 PUSH20 0xFFFFFFFFFFFFFFFFFFFFFFFFFFFFFFFFFFFFFFFF MUL NOT AND SWAP1 DUP4 PUSH20 0xFFFFFFFFFFFFFFFFFFFFFFFFFFFFFFFFFFFFFFFF AND MUL OR SWAP1 SSTORE POP PUSH1 0xE0 DUP3 ADD MLOAD DUP2 PUSH1 0x6 ADD SWAP1 DUP2 PUSH2 0xB4E SWAP2 SWAP1 PUSH2 0x21CF JUMP JUMPDEST POP PUSH2 0x100 DUP3 ADD MLOAD DUP2 PUSH1 0x7 ADD PUSH1 0x0 PUSH2 0x100 EXP DUP2 SLOAD DUP2 PUSH20 0xFFFFFFFFFFFFFFFFFFFFFFFFFFFFFFFFFFFFFFFF MUL NOT AND SWAP1 DUP4 PUSH20 0xFFFFFFFFFFFFFFFFFFFFFFFFFFFFFFFFFFFFFFFF AND MUL OR SWAP1 SSTORE POP PUSH2 0x120 DUP3 ADD MLOAD DUP2 PUSH1 0x8 ADD SSTORE PUSH2 0x140 DUP3 ADD MLOAD DUP2 PUSH1 0x9 ADD SSTORE SWAP1 POP POP CALLER PUSH20 0xFFFFFFFFFFFFFFFFFFFFFFFFFFFFFFFFFFFFFFFF AND DUP2 PUSH32 0x6CF53AA7292E664152C2EA948C3B3C95D4B05C36DAEB2626D0293473C4A4A153 DUP6 PUSH1 0x40 MLOAD PUSH2 0xBF7 SWAP2 SWAP1 PUSH2 0x1977 JUMP JUMPDEST PUSH1 0x40 MLOAD DUP1 SWAP2 SUB SWAP1 LOG3 DUP1 SWAP2 POP POP SWAP6 SWAP5 POP POP POP POP POP JUMP JUMPDEST PUSH1 0x0 PUSH1 0x2 PUSH1 0x0 DUP4 DUP2 MSTORE PUSH1 0x20 ADD SWAP1 DUP2 MSTORE PUSH1 0x20 ADD PUSH1 0x0 KECCAK256 SWAP1 POP PUSH1 0x0 PUSH1 0x3 DUP2 GT ISZERO PUSH2 0xC37 JUMPI PUSH2 0xC36 PUSH2 0x1638 JUMP JUMPDEST JUMPDEST DUP2 PUSH1 0x5 ADD PUSH1 0x0 SWAP1 SLOAD SWAP1 PUSH2 0x100 EXP SWAP1 DIV PUSH1 0xFF AND PUSH1 0x3 DUP2 GT ISZERO PUSH2 0xC5B JUMPI PUSH2 0xC5A PUSH2 0x1638 JUMP JUMPDEST JUMPDEST EQ PUSH2 0xC9B JUMPI PUSH1 0x40 MLOAD PUSH32 0x8C379A000000000000000000000000000000000000000000000000000000000 DUP2 MSTORE PUSH1 0x4 ADD PUSH2 0xC92 SWAP1 PUSH2 0x22ED JUMP JUMPDEST PUSH1 0x40 MLOAD DUP1 SWAP2 SUB SWAP1 REVERT JUMPDEST CALLER PUSH20 0xFFFFFFFFFFFFFFFFFFFFFFFFFFFFFFFFFFFFFFFF AND DUP2 PUSH1 0x1 ADD PUSH1 0x0 SWAP1 SLOAD SWAP1 PUSH2 0x100 EXP SWAP1 DIV PUSH20 0xFFFFFFFFFFFFFFFFFFFFFFFFFFFFFFFFFFFFFFFF AND PUSH20 0xFFFFFFFFFFFFFFFFFFFFFFFFFFFFFFFFFFFFFFFF AND EQ PUSH2 0xD2D JUMPI PUSH1 0x40 MLOAD PUSH32 0x8C379A000000000000000000000000000000000000000000000000000000000 DUP2 MSTORE PUSH1 0x4 ADD PUSH2 0xD24 SWAP1 PUSH2 0x2359 JUMP JUMPDEST PUSH1 0x40 MLOAD DUP1 SWAP2 SUB SWAP1 REVERT JUMPDEST PUSH1 0x3 DUP2 PUSH1 0x5 ADD PUSH1 0x0 PUSH2 0x100 EXP DUP2 SLOAD DUP2 PUSH1 0xFF MUL NOT AND SWAP1 DUP4 PUSH1 0x3 DUP2 GT ISZERO PUSH2 0xD55 JUMPI PUSH2 0xD54 PUSH2 0x1638 JUMP JUMPDEST JUMPDEST MUL OR SWAP1 SSTORE POP PUSH1 0x0 DUP1 SLOAD SWAP1 PUSH2 0x100 EXP SWAP1 DIV PUSH20 0xFFFFFFFFFFFFFFFFFFFFFFFFFFFFFFFFFFFFFFFF AND PUSH20 0xFFFFFFFFFFFFFFFFFFFFFFFFFFFFFFFFFFFFFFFF AND PUSH4 0xA9059CBB DUP3 PUSH1 0x1 ADD PUSH1 0x0 SWAP1 SLOAD SWAP1 PUSH2 0x100 EXP SWAP1 DIV PUSH20 0xFFFFFFFFFFFFFFFFFFFFFFFFFFFFFFFFFFFFFFFF AND DUP4 PUSH1 0x4 ADD SLOAD PUSH1 0x40 MLOAD DUP4 PUSH4 0xFFFFFFFF AND PUSH1 0xE0 SHL DUP2 MSTORE PUSH1 0x4 ADD PUSH2 0xDDD SWAP3 SWAP2 SWAP1 PUSH2 0x2379 JUMP JUMPDEST PUSH1 0x20 PUSH1 0x40 MLOAD DUP1 DUP4 SUB DUP2 PUSH1 0x0 DUP8 GAS CALL ISZERO DUP1 ISZERO PUSH2 0xDFC JUMPI RETURNDATASIZE PUSH1 0x0 DUP1 RETURNDATACOPY RETURNDATASIZE PUSH1 0x0 REVERT JUMPDEST POP POP POP POP PUSH1 0x40 MLOAD RETURNDATASIZE PUSH1 0x1F NOT PUSH1 0x1F DUP3 ADD AND DUP3 ADD DUP1 PUSH1 0x40 MSTORE POP DUP2 ADD SWAP1 PUSH2 0xE20 SWAP2 SWAP1 PUSH2 0x20BF JUMP JUMPDEST PUSH2 0xE5F JUMPI PUSH1 0x40 MLOAD PUSH32 0x8C379A000000000000000000000000000000000000000000000000000000000 DUP2 MSTORE PUSH1 0x4 ADD PUSH2 0xE56 SWAP1 PUSH2 0x23EE JUMP JUMPDEST PUSH1 0x40 MLOAD DUP1 SWAP2 SUB SWAP1 REVERT JUMPDEST DUP2 PUSH32 0xC6EACC3AA5B2AA77B5A826B832A804CA0B71830EC74F9AA57A15EDD978C31ED6 PUSH1 0x40 MLOAD PUSH1 0x40 MLOAD DUP1 SWAP2 SUB SWAP1 LOG2 POP POP JUMP JUMPDEST PUSH1 0x2 PUSH1 0x20 MSTORE DUP1 PUSH1 0x0 MSTORE PUSH1 0x40 PUSH1 0x0 KECCAK256 PUSH1 0x0 SWAP2 POP SWAP1 POP DUP1 PUSH1 0x0 ADD SLOAD SWAP1 DUP1 PUSH1 0x1 ADD PUSH1 0x0 SWAP1 SLOAD SWAP1 PUSH2 0x100 EXP SWAP1 DIV PUSH20 0xFFFFFFFFFFFFFFFFFFFFFFFFFFFFFFFFFFFFFFFF AND SWAP1 DUP1 PUSH1 0x2 ADD DUP1 SLOAD PUSH2 0xEDF SWAP1 PUSH2 0x1B63 JUMP JUMPDEST DUP1 PUSH1 0x1F ADD PUSH1 0x20 DUP1 SWAP2 DIV MUL PUSH1 0x20 ADD PUSH1 0x40 MLOAD SWAP1 DUP2 ADD PUSH1 0x40 MSTORE DUP1 SWAP3 SWAP2 SWAP1 DUP2 DUP2 MSTORE PUSH1 0x20 ADD DUP3 DUP1 SLOAD PUSH2 0xF0B SWAP1 PUSH2 0x1B63 JUMP JUMPDEST DUP1 ISZERO PUSH2 0xF58 JUMPI DUP1 PUSH1 0x1F LT PUSH2 0xF2D JUMPI PUSH2 0x100 DUP1 DUP4 SLOAD DIV MUL DUP4 MSTORE SWAP2 PUSH1 0x20 ADD SWAP2 PUSH2 0xF58 JUMP JUMPDEST DUP3 ADD SWAP2 SWAP1 PUSH1 0x0 MSTORE PUSH1 0x20 PUSH1 0x0 KECCAK256 SWAP1 JUMPDEST DUP2 SLOAD DUP2 MSTORE SWAP1 PUSH1 0x1 ADD SWAP1 PUSH1 0x20 ADD DUP1 DUP4 GT PUSH2 0xF3B JUMPI DUP3 SWAP1 SUB PUSH1 0x1F AND DUP3 ADD SWAP2 JUMPDEST POP POP POP POP POP SWAP1 DUP1 PUSH1 0x3 ADD DUP1 SLOAD PUSH2 0xF6D SWAP1 PUSH2 0x1B63 JUMP JUMPDEST DUP1 PUSH1 0x1F ADD PUSH1 0x20 DUP1 SWAP2 DIV MUL PUSH1 0x20 ADD PUSH1 0x40 MLOAD SWAP1 DUP2 ADD PUSH1 0x40 MSTORE DUP1 SWAP3 SWAP2 SWAP1 DUP2 DUP2 MSTORE PUSH1 0x20 ADD DUP3 DUP1 SLOAD PUSH2 0xF99 SWAP1 PUSH2 0x1B63 JUMP JUMPDEST DUP1 ISZERO PUSH2 0xFE6 JUMPI DUP1 PUSH1 0x1F LT PUSH2 0xFBB JUMPI PUSH2 0x100 DUP1 DUP4 SLOAD DIV MUL DUP4 MSTORE SWAP2 PUSH1 0x20 ADD SWAP2 PUSH2 0xFE6 JUMP JUMPDEST DUP3 ADD SWAP2 SWAP1 PUSH1 0x0 MSTORE PUSH1 0x20 PUSH1 0x0 KECCAK256 SWAP1 JUMPDEST DUP2 SLOAD DUP2 MSTORE SWAP1 PUSH1 0x1 ADD SWAP1 PUSH1 0x20 ADD DUP1 DUP4 GT PUSH2 0xFC9 JUMPI DUP3 SWAP1 SUB PUSH1 0x1F AND DUP3 ADD SWAP2 JUMPDEST POP POP POP POP POP SWAP1 DUP1 PUSH1 0x4 ADD SLOAD SWAP1 DUP1 PUSH1 0x5 ADD PUSH1 0x0 SWAP1 SLOAD SWAP1 PUSH2 0x100 EXP SWAP1 DIV PUSH1 0xFF AND SWAP1 DUP1 PUSH1 0x5 ADD PUSH1 0x1 SWAP1 SLOAD SWAP1 PUSH2 0x100 EXP SWAP1 DIV PUSH20 0xFFFFFFFFFFFFFFFFFFFFFFFFFFFFFFFFFFFFFFFF AND SWAP1 DUP1 PUSH1 0x6 ADD DUP1 SLOAD PUSH2 0x103A SWAP1 PUSH2 0x1B63 JUMP JUMPDEST DUP1 PUSH1 0x1F ADD PUSH1 0x20 DUP1 SWAP2 DIV MUL PUSH1 0x20 ADD PUSH1 0x40 MLOAD SWAP1 DUP2 ADD PUSH1 0x40 MSTORE DUP1 SWAP3 SWAP2 SWAP1 DUP2 DUP2 MSTORE PUSH1 0x20 ADD DUP3 DUP1 SLOAD PUSH2 0x1066 SWAP1 PUSH2 0x1B63 JUMP JUMPDEST DUP1 ISZERO PUSH2 0x10B3 JUMPI DUP1 PUSH1 0x1F LT PUSH2 0x1088 JUMPI PUSH2 0x100 DUP1 DUP4 SLOAD DIV MUL DUP4 MSTORE SWAP2 PUSH1 0x20 ADD SWAP2 PUSH2 0x10B3 JUMP JUMPDEST DUP3 ADD SWAP2 SWAP1 PUSH1 0x0 MSTORE PUSH1 0x20 PUSH1 0x0 KECCAK256 SWAP1 JUMPDEST DUP2 SLOAD DUP2 MSTORE SWAP1 PUSH1 0x1 ADD SWAP1 PUSH1 0x20 ADD DUP1 DUP4 GT PUSH2 0x1096 JUMPI DUP3 SWAP1 SUB PUSH1 0x1F AND DUP3 ADD SWAP2 JUMPDEST POP POP POP POP POP SWAP1 DUP1 PUSH1 0x7 ADD PUSH1 0x0 SWAP1 SLOAD SWAP1 PUSH2 0x100 EXP SWAP1 DIV PUSH20 0xFFFFFFFFFFFFFFFFFFFFFFFFFFFFFFFFFFFFFFFF AND SWAP1 DUP1 PUSH1 0x8 ADD SLOAD SWAP1 DUP1 PUSH1 0x9 ADD SLOAD SWAP1 POP DUP12 JUMP JUMPDEST PUSH1 0x0 DUP1 SLOAD SWAP1 PUSH2 0x100 EXP SWAP1 DIV PUSH20 0xFFFFFFFFFFFFFFFFFFFFFFFFFFFFFFFFFFFFFFFF AND DUP2 JUMP JUMPDEST PUSH1 0x0 PUSH1 0x2 PUSH1 0x0 DUP4 DUP2 MSTORE PUSH1 0x20 ADD SWAP1 DUP2 MSTORE PUSH1 0x20 ADD PUSH1 0x0 KECCAK256 SWAP1 POP PUSH1 0x1 PUSH1 0x3 DUP2 GT ISZERO PUSH2 0x113E JUMPI PUSH2 0x113D PUSH2 0x1638 JUMP JUMPDEST JUMPDEST DUP2 PUSH1 0x5 ADD PUSH1 0x0 SWAP1 SLOAD SWAP1 PUSH2 0x100 EXP SWAP1 DIV PUSH1 0xFF AND PUSH1 0x3 DUP2 GT ISZERO PUSH2 0x1162 JUMPI PUSH2 0x1161 PUSH2 0x1638 JUMP JUMPDEST JUMPDEST EQ PUSH2 0x11A2 JUMPI PUSH1 0x40 MLOAD PUSH32 0x8C379A000000000000000000000000000000000000000000000000000000000 DUP2 MSTORE PUSH1 0x4 ADD PUSH2 0x1199 SWAP1 PUSH2 0x245A JUMP JUMPDEST PUSH1 0x40 MLOAD DUP1 SWAP2 SUB SWAP1 REVERT JUMPDEST CALLER PUSH20 0xFFFFFFFFFFFFFFFFFFFFFFFFFFFFFFFFFFFFFFFF AND DUP2 PUSH1 0x1 ADD PUSH1 0x0 SWAP1 SLOAD SWAP1 PUSH2 0x100 EXP SWAP1 DIV PUSH20 0xFFFFFFFFFFFFFFFFFFFFFFFFFFFFFFFFFFFFFFFF AND PUSH20 0xFFFFFFFFFFFFFFFFFFFFFFFFFFFFFFFFFFFFFFFF AND EQ PUSH2 0x1234 JUMPI PUSH1 0x40 MLOAD PUSH32 0x8C379A000000000000000000000000000000000000000000000000000000000 DUP2 MSTORE PUSH1 0x4 ADD PUSH2 0x122B SWAP1 PUSH2 0x24EC JUMP JUMPDEST PUSH1 0x40 MLOAD DUP1 SWAP2 SUB SWAP1 REVERT JUMPDEST PUSH1 0x2 DUP2 PUSH1 0x5 ADD PUSH1 0x0 PUSH2 0x100 EXP DUP2 SLOAD DUP2 PUSH1 0xFF MUL NOT AND SWAP1 DUP4 PUSH1 0x3 DUP2 GT ISZERO PUSH2 0x125C JUMPI PUSH2 0x125B PUSH2 0x1638 JUMP JUMPDEST JUMPDEST MUL OR SWAP1 SSTORE POP TIMESTAMP DUP2 PUSH1 0x9 ADD DUP2 SWAP1 SSTORE POP PUSH1 0x0 DUP1 PUSH20 0xFFFFFFFFFFFFFFFFFFFFFFFFFFFFFFFFFFFFFFFF AND DUP3 PUSH1 0x7 ADD PUSH1 0x0 SWAP1 SLOAD SWAP1 PUSH2 0x100 EXP SWAP1 DIV PUSH20 0xFFFFFFFFFFFFFFFFFFFFFFFFFFFFFFFFFFFFFFFF AND PUSH20 0xFFFFFFFFFFFFFFFFFFFFFFFFFFFFFFFFFFFFFFFF AND SUB PUSH2 0x12ED JUMPI DUP2 PUSH1 0x5 ADD PUSH1 0x1 SWAP1 SLOAD SWAP1 PUSH2 0x100 EXP SWAP1 DIV PUSH20 0xFFFFFFFFFFFFFFFFFFFFFFFFFFFFFFFFFFFFFFFF AND PUSH2 0x1313 JUMP JUMPDEST DUP2 PUSH1 0x7 ADD PUSH1 0x0 SWAP1 SLOAD SWAP1 PUSH2 0x100 EXP SWAP1 DIV PUSH20 0xFFFFFFFFFFFFFFFFFFFFFFFFFFFFFFFFFFFFFFFF AND JUMPDEST SWAP1 POP PUSH1 0x0 DUP1 SLOAD SWAP1 PUSH2 0x100 EXP SWAP1 DIV PUSH20 0xFFFFFFFFFFFFFFFFFFFFFFFFFFFFFFFFFFFFFFFF AND PUSH20 0xFFFFFFFFFFFFFFFFFFFFFFFFFFFFFFFFFFFFFFFF AND PUSH4 0xA9059CBB DUP3 DUP5 PUSH1 0x4 ADD SLOAD PUSH1 0x40 MLOAD DUP4 PUSH4 0xFFFFFFFF AND PUSH1 0xE0 SHL DUP2 MSTORE PUSH1 0x4 ADD PUSH2 0x1374 SWAP3 SWAP2 SWAP1 PUSH2 0x2379 JUMP JUMPDEST PUSH1 0x20 PUSH1 0x40 MLOAD DUP1 DUP4 SUB DUP2 PUSH1 0x0 DUP8 GAS CALL ISZERO DUP1 ISZERO PUSH2 0x1393 JUMPI RETURNDATASIZE PUSH1 0x0 DUP1 RETURNDATACOPY RETURNDATASIZE PUSH1 0x0 REVERT JUMPDEST POP POP POP POP PUSH1 0x40 MLOAD RETURNDATASIZE PUSH1 0x1F NOT PUSH1 0x1F DUP3 ADD AND DUP3 ADD DUP1 PUSH1 0x40 MSTORE POP DUP2 ADD SWAP1 PUSH2 0x13B7 SWAP2 SWAP1 PUSH2 0x20BF JUMP JUMPDEST PUSH2 0x13F6 JUMPI PUSH1 0x40 MLOAD PUSH32 0x8C379A000000000000000000000000000000000000000000000000000000000 DUP2 MSTORE PUSH1 0x4 ADD PUSH2 0x13ED SWAP1 PUSH2 0x2558 JUMP JUMPDEST PUSH1 0x40 MLOAD DUP1 SWAP2 SUB SWAP1 REVERT JUMPDEST DUP3 PUSH32 0xF9C405F91E34DCD1DC136CF6992ADA4A8C24A2803E0FAB7546364C64DAC7BA2B DUP4 PUSH1 0x4 ADD SLOAD PUSH1 0x40 MLOAD PUSH2 0x142A SWAP2 SWAP1 PUSH2 0x1977 JUMP JUMPDEST PUSH1 0x40 MLOAD DUP1 SWAP2 SUB SWAP1 LOG2 POP POP POP JUMP JUMPDEST PUSH1 0x1 SLOAD DUP2 JUMP JUMPDEST PUSH1 0x40 MLOAD DUP1 PUSH2 0x160 ADD PUSH1 0x40 MSTORE DUP1 PUSH1 0x0 DUP2 MSTORE PUSH1 0x20 ADD PUSH1 0x0 PUSH20 0xFFFFFFFFFFFFFFFFFFFFFFFFFFFFFFFFFFFFFFFF AND DUP2 MSTORE PUSH1 0x20 ADD PUSH1 0x60 DUP2 MSTORE PUSH1 0x20 ADD PUSH1 0x60 DUP2 MSTORE PUSH1 0x20 ADD PUSH1 0x0 DUP2 MSTORE PUSH1 0x20 ADD PUSH1 0x0 PUSH1 0x3 DUP2 GT ISZERO PUSH2 0x1496 JUMPI PUSH2 0x1495 PUSH2 0x1638 JUMP JUMPDEST JUMPDEST DUP2 MSTORE PUSH1 0x20 ADD PUSH1 0x0 PUSH20 0xFFFFFFFFFFFFFFFFFFFFFFFFFFFFFFFFFFFFFFFF AND DUP2 MSTORE PUSH1 0x20 ADD PUSH1 0x60 DUP2 MSTORE PUSH1 0x20 ADD PUSH1 0x0 PUSH20 0xFFFFFFFFFFFFFFFFFFFFFFFFFFFFFFFFFFFFFFFF AND DUP2 MSTORE PUSH1 0x20 ADD PUSH1 0x0 DUP2 MSTORE PUSH1 0x20 ADD PUSH1 0x0 DUP2 MSTORE POP SWAP1 JUMP JUMPDEST PUSH1 0x0 DUP1 REVERT JUMPDEST PUSH1 0x0 DUP1 REVERT JUMPDEST PUSH1 0x0 DUP2 SWAP1 POP SWAP2 SWAP1 POP JUMP JUMPDEST PUSH2 0x1508 DUP2 PUSH2 0x14F5 JUMP JUMPDEST DUP2 EQ PUSH2 0x1513 JUMPI PUSH1 0x0 DUP1 REVERT JUMPDEST POP JUMP JUMPDEST PUSH1 0x0 DUP2 CALLDATALOAD SWAP1 POP PUSH2 0x1525 DUP2 PUSH2 0x14FF JUMP JUMPDEST SWAP3 SWAP2 POP POP JUMP JUMPDEST PUSH1 0x0 PUSH1 0x20 DUP3 DUP5 SUB SLT ISZERO PUSH2 0x1541 JUMPI PUSH2 0x1540 PUSH2 0x14EB JUMP JUMPDEST JUMPDEST PUSH1 0x0 PUSH2 0x154F DUP5 DUP3 DUP6 ADD PUSH2 0x1516 JUMP JUMPDEST SWAP2 POP POP SWAP3 SWAP2 POP POP JUMP JUMPDEST PUSH2 0x1561 DUP2 PUSH2 0x14F5 JUMP JUMPDEST DUP3 MSTORE POP POP JUMP JUMPDEST PUSH1 0x0 PUSH20 0xFFFFFFFFFFFFFFFFFFFFFFFFFFFFFFFFFFFFFFFF DUP3 AND SWAP1 POP SWAP2 SWAP1 POP JUMP JUMPDEST PUSH1 0x0 PUSH2 0x1592 DUP3 PUSH2 0x1567 JUMP JUMPDEST SWAP1 POP SWAP2 SWAP1 POP JUMP JUMPDEST PUSH2 0x15A2 DUP2 PUSH2 0x1587 JUMP JUMPDEST DUP3 MSTORE POP POP JUMP JUMPDEST PUSH1 0x0 DUP2 MLOAD SWAP1 POP SWAP2 SWAP1 POP JUMP JUMPDEST PUSH1 0x0 DUP3 DUP3 MSTORE PUSH1 0x20 DUP3 ADD SWAP1 POP SWAP3 SWAP2 POP POP JUMP JUMPDEST PUSH1 0x0 JUMPDEST DUP4 DUP2 LT ISZERO PUSH2 0x15E2 JUMPI DUP1 DUP3 ADD MLOAD DUP2 DUP5 ADD MSTORE PUSH1 0x20 DUP2 ADD SWAP1 POP PUSH2 0x15C7 JUMP JUMPDEST PUSH1 0x0 DUP5 DUP5 ADD MSTORE POP POP POP POP JUMP JUMPDEST PUSH1 0x0 PUSH1 0x1F NOT PUSH1 0x1F DUP4 ADD AND SWAP1 POP SWAP2 SWAP1 POP JUMP JUMPDEST PUSH1 0x0 PUSH2 0x160A DUP3 PUSH2 0x15A8 JUMP JUMPDEST PUSH2 0x1614 DUP2 DUP6 PUSH2 0x15B3 JUMP JUMPDEST SWAP4 POP PUSH2 0x1624 DUP2 DUP6 PUSH1 0x20 DUP7 ADD PUSH2 0x15C4 JUMP JUMPDEST PUSH2 0x162D DUP2 PUSH2 0x15EE JUMP JUMPDEST DUP5 ADD SWAP2 POP POP SWAP3 SWAP2 POP POP JUMP JUMPDEST PUSH32 0x4E487B7100000000000000000000000000000000000000000000000000000000 PUSH1 0x0 MSTORE PUSH1 0x21 PUSH1 0x4 MSTORE PUSH1 0x24 PUSH1 0x0 REVERT JUMPDEST PUSH1 0x4 DUP2 LT PUSH2 0x1678 JUMPI PUSH2 0x1677 PUSH2 0x1638 JUMP JUMPDEST JUMPDEST POP JUMP JUMPDEST PUSH1 0x0 DUP2 SWAP1 POP PUSH2 0x1689 DUP3 PUSH2 0x1667 JUMP JUMPDEST SWAP2 SWAP1 POP JUMP JUMPDEST PUSH1 0x0 PUSH2 0x1699 DUP3 PUSH2 0x167B JUMP JUMPDEST SWAP1 POP SWAP2 SWAP1 POP JUMP JUMPDEST PUSH2 0x16A9 DUP2 PUSH2 0x168E JUMP JUMPDEST DUP3 MSTORE POP POP JUMP JUMPDEST PUSH1 0x0 PUSH2 0x160 DUP4 ADD PUSH1 0x0 DUP4 ADD MLOAD PUSH2 0x16C8 PUSH1 0x0 DUP7 ADD DUP3 PUSH2 0x1558 JUMP JUMPDEST POP PUSH1 0x20 DUP4 ADD MLOAD PUSH2 0x16DB PUSH1 0x20 DUP7 ADD DUP3 PUSH2 0x1599 JUMP JUMPDEST POP PUSH1 0x40 DUP4 ADD MLOAD DUP5 DUP3 SUB PUSH1 0x40 DUP7 ADD MSTORE PUSH2 0x16F3 DUP3 DUP3 PUSH2 0x15FF JUMP JUMPDEST SWAP2 POP POP PUSH1 0x60 DUP4 ADD MLOAD DUP5 DUP3 SUB PUSH1 0x60 DUP7 ADD MSTORE PUSH2 0x170D DUP3 DUP3 PUSH2 0x15FF JUMP JUMPDEST SWAP2 POP POP PUSH1 0x80 DUP4 ADD MLOAD PUSH2 0x1722 PUSH1 0x80 DUP7 ADD DUP3 PUSH2 0x1558 JUMP JUMPDEST POP PUSH1 0xA0 DUP4 ADD MLOAD PUSH2 0x1735 PUSH1 0xA0 DUP7 ADD DUP3 PUSH2 0x16A0 JUMP JUMPDEST POP PUSH1 0xC0 DUP4 ADD MLOAD PUSH2 0x1748 PUSH1 0xC0 DUP7 ADD DUP3 PUSH2 0x1599 JUMP JUMPDEST POP PUSH1 0xE0 DUP4 ADD MLOAD DUP5 DUP3 SUB PUSH1 0xE0 DUP7 ADD MSTORE PUSH2 0x1760 DUP3 DUP3 PUSH2 0x15FF JUMP JUMPDEST SWAP2 POP POP PUSH2 0x100 DUP4 ADD MLOAD PUSH2 0x1777 PUSH2 0x100 DUP7 ADD DUP3 PUSH2 0x1599 JUMP JUMPDEST POP PUSH2 0x120 DUP4 ADD MLOAD PUSH2 0x178C PUSH2 0x120 DUP7 ADD DUP3 PUSH2 0x1558 JUMP JUMPDEST POP PUSH2 0x140 DUP4 ADD MLOAD PUSH2 0x17A1 PUSH2 0x140 DUP7 ADD DUP3 PUSH2 0x1558 JUMP JUMPDEST POP DUP1 SWAP2 POP POP SWAP3 SWAP2 POP POP JUMP JUMPDEST PUSH1 0x0 PUSH1 0x20 DUP3 ADD SWAP1 POP DUP2 DUP2 SUB PUSH1 0x0 DUP4 ADD MSTORE PUSH2 0x17C6 DUP2 DUP5 PUSH2 0x16AF JUMP JUMPDEST SWAP1 POP SWAP3 SWAP2 POP POP JUMP JUMPDEST PUSH1 0x0 DUP1 REVERT JUMPDEST PUSH1 0x0 DUP1 REVERT JUMPDEST PUSH1 0x0 DUP1 REVERT JUMPDEST PUSH1 0x0 DUP1 DUP4 PUSH1 0x1F DUP5 ADD SLT PUSH2 0x17F3 JUMPI PUSH2 0x17F2 PUSH2 0x17CE JUMP JUMPDEST JUMPDEST DUP3 CALLDATALOAD SWAP1 POP PUSH8 0xFFFFFFFFFFFFFFFF DUP2 GT ISZERO PUSH2 0x1810 JUMPI PUSH2 0x180F PUSH2 0x17D3 JUMP JUMPDEST JUMPDEST PUSH1 0x20 DUP4 ADD SWAP2 POP DUP4 PUSH1 0x1 DUP3 MUL DUP4 ADD GT ISZERO PUSH2 0x182C JUMPI PUSH2 0x182B PUSH2 0x17D8 JUMP JUMPDEST JUMPDEST SWAP3 POP SWAP3 SWAP1 POP JUMP JUMPDEST PUSH2 0x183C DUP2 PUSH2 0x1587 JUMP JUMPDEST DUP2 EQ PUSH2 0x1847 JUMPI PUSH1 0x0 DUP1 REVERT JUMPDEST POP JUMP JUMPDEST PUSH1 0x0 DUP2 CALLDATALOAD SWAP1 POP PUSH2 0x1859 DUP2 PUSH2 0x1833 JUMP JUMPDEST SWAP3 SWAP2 POP POP JUMP JUMPDEST PUSH1 0x0 DUP1 PUSH1 0x0 DUP1 PUSH1 0x60 DUP6 DUP8 SUB SLT ISZERO PUSH2 0x1879 JUMPI PUSH2 0x1878 PUSH2 0x14EB JUMP JUMPDEST JUMPDEST PUSH1 0x0 PUSH2 0x1887 DUP8 DUP3 DUP9 ADD PUSH2 0x1516 JUMP JUMPDEST SWAP5 POP POP PUSH1 0x20 DUP6 ADD CALLDATALOAD PUSH8 0xFFFFFFFFFFFFFFFF DUP2 GT ISZERO PUSH2 0x18A8 JUMPI PUSH2 0x18A7 PUSH2 0x14F0 JUMP JUMPDEST JUMPDEST PUSH2 0x18B4 DUP8 DUP3 DUP9 ADD PUSH2 0x17DD JUMP JUMPDEST SWAP4 POP SWAP4 POP POP PUSH1 0x40 PUSH2 0x18C7 DUP8 DUP3 DUP9 ADD PUSH2 0x184A JUMP JUMPDEST SWAP2 POP POP SWAP3 SWAP6 SWAP2 SWAP5 POP SWAP3 POP JUMP JUMPDEST PUSH1 0x0 DUP1 PUSH1 0x0 DUP1 PUSH1 0x0 PUSH1 0x60 DUP7 DUP9 SUB SLT ISZERO PUSH2 0x18EF JUMPI PUSH2 0x18EE PUSH2 0x14EB JUMP JUMPDEST JUMPDEST PUSH1 0x0 DUP7 ADD CALLDATALOAD PUSH8 0xFFFFFFFFFFFFFFFF DUP2 GT ISZERO PUSH2 0x190D JUMPI PUSH2 0x190C PUSH2 0x14F0 JUMP JUMPDEST JUMPDEST PUSH2 0x1919 DUP9 DUP3 DUP10 ADD PUSH2 0x17DD JUMP JUMPDEST SWAP6 POP SWAP6 POP POP PUSH1 0x20 DUP7 ADD CALLDATALOAD PUSH8 0xFFFFFFFFFFFFFFFF DUP2 GT ISZERO PUSH2 0x193C JUMPI PUSH2 0x193B PUSH2 0x14F0 JUMP JUMPDEST JUMPDEST PUSH2 0x1948 DUP9 DUP3 DUP10 ADD PUSH2 0x17DD JUMP JUMPDEST SWAP4 POP SWAP4 POP POP PUSH1 0x40 PUSH2 0x195B DUP9 DUP3 DUP10 ADD PUSH2 0x1516 JUMP JUMPDEST SWAP2 POP POP SWAP3 SWAP6 POP SWAP3 SWAP6 SWAP1 SWAP4 POP JUMP JUMPDEST PUSH2 0x1971 DUP2 PUSH2 0x14F5 JUMP JUMPDEST DUP3 MSTORE POP POP JUMP JUMPDEST PUSH1 0x0 PUSH1 0x20 DUP3 ADD SWAP1 POP PUSH2 0x198C PUSH1 0x0 DUP4 ADD DUP5 PUSH2 0x1968 JUMP JUMPDEST SWAP3 SWAP2 POP POP JUMP JUMPDEST PUSH2 0x199B DUP2 PUSH2 0x1587 JUMP JUMPDEST DUP3 MSTORE POP POP JUMP JUMPDEST PUSH1 0x0 DUP3 DUP3 MSTORE PUSH1 0x20 DUP3 ADD SWAP1 POP SWAP3 SWAP2 POP POP JUMP JUMPDEST PUSH1 0x0 PUSH2 0x19BD DUP3 PUSH2 0x15A8 JUMP JUMPDEST PUSH2 0x19C7 DUP2 DUP6 PUSH2 0x19A1 JUMP JUMPDEST SWAP4 POP PUSH2 0x19D7 DUP2 DUP6 PUSH1 0x20 DUP7 ADD PUSH2 0x15C4 JUMP JUMPDEST PUSH2 0x19E0 DUP2 PUSH2 0x15EE JUMP JUMPDEST DUP5 ADD SWAP2 POP POP SWAP3 SWAP2 POP POP JUMP JUMPDEST PUSH2 0x19F4 DUP2 PUSH2 0x168E JUMP JUMPDEST DUP3 MSTORE POP POP JUMP JUMPDEST PUSH1 0x0 PUSH2 0x160 DUP3 ADD SWAP1 POP PUSH2 0x1A10 PUSH1 0x0 DUP4 ADD DUP15 PUSH2 0x1968 JUMP JUMPDEST PUSH2 0x1A1D PUSH1 0x20 DUP4 ADD DUP14 PUSH2 0x1992 JUMP JUMPDEST DUP2 DUP2 SUB PUSH1 0x40 DUP4 ADD MSTORE PUSH2 0x1A2F DUP2 DUP13 PUSH2 0x19B2 JUMP JUMPDEST SWAP1 POP DUP2 DUP2 SUB PUSH1 0x60 DUP4 ADD MSTORE PUSH2 0x1A43 DUP2 DUP12 PUSH2 0x19B2 JUMP JUMPDEST SWAP1 POP PUSH2 0x1A52 PUSH1 0x80 DUP4 ADD DUP11 PUSH2 0x1968 JUMP JUMPDEST PUSH2 0x1A5F PUSH1 0xA0 DUP4 ADD DUP10 PUSH2 0x19EB JUMP JUMPDEST PUSH2 0x1A6C PUSH1 0xC0 DUP4 ADD DUP9 PUSH2 0x1992 JUMP JUMPDEST DUP2 DUP2 SUB PUSH1 0xE0 DUP4 ADD MSTORE PUSH2 0x1A7E DUP2 DUP8 PUSH2 0x19B2 JUMP JUMPDEST SWAP1 POP PUSH2 0x1A8E PUSH2 0x100 DUP4 ADD DUP7 PUSH2 0x1992 JUMP JUMPDEST PUSH2 0x1A9C PUSH2 0x120 DUP4 ADD DUP6 PUSH2 0x1968 JUMP JUMPDEST PUSH2 0x1AAA PUSH2 0x140 DUP4 ADD DUP5 PUSH2 0x1968 JUMP JUMPDEST SWAP13 SWAP12 POP POP POP POP POP POP POP POP POP POP POP POP JUMP JUMPDEST PUSH1 0x0 DUP2 SWAP1 POP SWAP2 SWAP1 POP JUMP JUMPDEST PUSH1 0x0 PUSH2 0x1ADF PUSH2 0x1ADA PUSH2 0x1AD5 DUP5 PUSH2 0x1567 JUMP JUMPDEST PUSH2 0x1ABA JUMP JUMPDEST PUSH2 0x1567 JUMP JUMPDEST SWAP1 POP SWAP2 SWAP1 POP JUMP JUMPDEST PUSH1 0x0 PUSH2 0x1AF1 DUP3 PUSH2 0x1AC4 JUMP JUMPDEST SWAP1 POP SWAP2 SWAP1 POP JUMP JUMPDEST PUSH1 0x0 PUSH2 0x1B03 DUP3 PUSH2 0x1AE6 JUMP JUMPDEST SWAP1 POP SWAP2 SWAP1 POP JUMP JUMPDEST PUSH2 0x1B13 DUP2 PUSH2 0x1AF8 JUMP JUMPDEST DUP3 MSTORE POP POP JUMP JUMPDEST PUSH1 0x0 PUSH1 0x20 DUP3 ADD SWAP1 POP PUSH2 0x1B2E PUSH1 0x0 DUP4 ADD DUP5 PUSH2 0x1B0A JUMP JUMPDEST SWAP3 SWAP2 POP POP JUMP JUMPDEST PUSH32 0x4E487B7100000000000000000000000000000000000000000000000000000000 PUSH1 0x0 MSTORE PUSH1 0x22 PUSH1 0x4 MSTORE PUSH1 0x24 PUSH1 0x0 REVERT JUMPDEST PUSH1 0x0 PUSH1 0x2 DUP3 DIV SWAP1 POP PUSH1 0x1 DUP3 AND DUP1 PUSH2 0x1B7B JUMPI PUSH1 0x7F DUP3 AND SWAP2 POP JUMPDEST PUSH1 0x20 DUP3 LT DUP2 SUB PUSH2 0x1B8E JUMPI PUSH2 0x1B8D PUSH2 0x1B34 JUMP JUMPDEST JUMPDEST POP SWAP2 SWAP1 POP JUMP JUMPDEST PUSH32 0x5461736B206E6F74206F70656E00000000000000000000000000000000000000 PUSH1 0x0 DUP3 ADD MSTORE POP JUMP JUMPDEST PUSH1 0x0 PUSH2 0x1BCA PUSH1 0xD DUP4 PUSH2 0x19A1 JUMP JUMPDEST SWAP2 POP PUSH2 0x1BD5 DUP3 PUSH2 0x1B94 JUMP JUMPDEST PUSH1 0x20 DUP3 ADD SWAP1 POP SWAP2 SWAP1 POP JUMP JUMPDEST PUSH1 0x0 PUSH1 0x20 DUP3 ADD SWAP1 POP DUP2 DUP2 SUB PUSH1 0x0 DUP4 ADD MSTORE PUSH2 0x1BF9 DUP2 PUSH2 0x1BBD JUMP JUMPDEST SWAP1 POP SWAP2 SWAP1 POP JUMP JUMPDEST PUSH32 0x43616E6E6F7420616363657074206F776E207461736B00000000000000000000 PUSH1 0x0 DUP3 ADD MSTORE POP JUMP JUMPDEST PUSH1 0x0 PUSH2 0x1C36 PUSH1 0x16 DUP4 PUSH2 0x19A1 JUMP JUMPDEST SWAP2 POP PUSH2 0x1C41 DUP3 PUSH2 0x1C00 JUMP JUMPDEST PUSH1 0x20 DUP3 ADD SWAP1 POP SWAP2 SWAP1 POP JUMP JUMPDEST PUSH1 0x0 PUSH1 0x20 DUP3 ADD SWAP1 POP DUP2 DUP2 SUB PUSH1 0x0 DUP4 ADD MSTORE PUSH2 0x1C65 DUP2 PUSH2 0x1C29 JUMP JUMPDEST SWAP1 POP SWAP2 SWAP1 POP JUMP JUMPDEST PUSH32 0x52657761726420726563697069656E7420726571756972656400000000000000 PUSH1 0x0 DUP3 ADD MSTORE POP JUMP JUMPDEST PUSH1 0x0 PUSH2 0x1CA2 PUSH1 0x19 DUP4 PUSH2 0x19A1 JUMP JUMPDEST SWAP2 POP PUSH2 0x1CAD DUP3 PUSH2 0x1C6C JUMP JUMPDEST PUSH1 0x20 DUP3 ADD SWAP1 POP SWAP2 SWAP1 POP JUMP JUMPDEST PUSH1 0x0 PUSH1 0x20 DUP3 ADD SWAP1 POP DUP2 DUP2 SUB PUSH1 0x0 DUP4 ADD MSTORE PUSH2 0x1CD1 DUP2 PUSH2 0x1C95 JUMP JUMPDEST SWAP1 POP SWAP2 SWAP1 POP JUMP JUMPDEST PUSH1 0x0 DUP3 SWAP1 POP SWAP3 SWAP2 POP POP JUMP JUMPDEST PUSH32 0x4E487B7100000000000000000000000000000000000000000000000000000000 PUSH1 0x0 MSTORE PUSH1 0x41 PUSH1 0x4 MSTORE PUSH1 0x24 PUSH1 0x0 REVERT JUMPDEST PUSH1 0x0 DUP2 SWAP1 POP DUP2 PUSH1 0x0 MSTORE PUSH1 0x20 PUSH1 0x0 KECCAK256 SWAP1 POP SWAP2 SWAP1 POP JUMP JUMPDEST PUSH1 0x0 PUSH1 0x20 PUSH1 0x1F DUP4 ADD DIV SWAP1 POP SWAP2 SWAP1 POP JUMP JUMPDEST PUSH1 0x0 DUP3 DUP3 SHL SWAP1 POP SWAP3 SWAP2 POP POP JUMP JUMPDEST PUSH1 0x0 PUSH1 0x8 DUP4 MUL PUSH2 0x1D74 PUSH32 0xFFFFFFFFFFFFFFFFFFFFFFFFFFFFFFFFFFFFFFFFFFFFFFFFFFFFFFFFFFFFFFFF DUP3 PUSH2 0x1D37 JUMP JUMPDEST PUSH2 0x1D7E DUP7 DUP4 PUSH2 0x1D37 JUMP JUMPDEST SWAP6 POP DUP1 NOT DUP5 AND SWAP4 POP DUP1 DUP7 AND DUP5 OR SWAP3 POP POP POP SWAP4 SWAP3 POP POP POP JUMP JUMPDEST PUSH1 0x0 PUSH2 0x1DB1 PUSH2 0x1DAC PUSH2 0x1DA7 DUP5 PUSH2 0x14F5 JUMP JUMPDEST PUSH2 0x1ABA JUMP JUMPDEST PUSH2 0x14F5 JUMP JUMPDEST SWAP1 POP SWAP2 SWAP1 POP JUMP JUMPDEST PUSH1 0x0 DUP2 SWAP1 POP SWAP2 SWAP1 POP JUMP JUMPDEST PUSH2 0x1DCB DUP4 PUSH2 0x1D96 JUMP JUMPDEST PUSH2 0x1DDF PUSH2 0x1DD7 DUP3 PUSH2 0x1DB8 JUMP JUMPDEST DUP5 DUP5 SLOAD PUSH2 0x1D44 JUMP JUMPDEST DUP3 SSTORE POP POP POP POP JUMP JUMPDEST PUSH1 0x0 SWAP1 JUMP JUMPDEST PUSH2 0x1DF4 PUSH2 0x1DE7 JUMP JUMPDEST PUSH2 0x1DFF DUP2 DUP5 DUP5 PUSH2 0x1DC2 JUMP JUMPDEST POP POP POP JUMP JUMPDEST JUMPDEST DUP2 DUP2 LT ISZERO PUSH2 0x1E23 JUMPI PUSH2 0x1E18 PUSH1 0x0 DUP3 PUSH2 0x1DEC JUMP JUMPDEST PUSH1 0x1 DUP2 ADD SWAP1 POP PUSH2 0x1E05 JUMP JUMPDEST POP POP JUMP JUMPDEST PUSH1 0x1F DUP3 GT ISZERO PUSH2 0x1E68 JUMPI PUSH2 0x1E39 DUP2 PUSH2 0x1D12 JUMP JUMPDEST PUSH2 0x1E42 DUP5 PUSH2 0x1D27 JUMP JUMPDEST DUP2 ADD PUSH1 0x20 DUP6 LT ISZERO PUSH2 0x1E51 JUMPI DUP2 SWAP1 POP JUMPDEST PUSH2 0x1E65 PUSH2 0x1E5D DUP6 PUSH2 0x1D27 JUMP JUMPDEST DUP4 ADD DUP3 PUSH2 0x1E04 JUMP JUMPDEST POP POP JUMPDEST POP POP POP JUMP JUMPDEST PUSH1 0x0 DUP3 DUP3 SHR SWAP1 POP SWAP3 SWAP2 POP POP JUMP JUMPDEST PUSH1 0x0 PUSH2 0x1E8B PUSH1 0x0 NOT DUP5 PUSH1 0x8 MUL PUSH2 0x1E6D JUMP JUMPDEST NOT DUP1 DUP4 AND SWAP2 POP POP SWAP3 SWAP2 POP POP JUMP JUMPDEST PUSH1 0x0 PUSH2 0x1EA4 DUP4 DUP4 PUSH2 0x1E7A JUMP JUMPDEST SWAP2 POP DUP3 PUSH1 0x2 MUL DUP3 OR SWAP1 POP SWAP3 SWAP2 POP POP JUMP JUMPDEST PUSH2 0x1EBE DUP4 DUP4 PUSH2 0x1CD8 JUMP JUMPDEST PUSH8 0xFFFFFFFFFFFFFFFF DUP2 GT ISZERO PUSH2 0x1ED7 JUMPI PUSH2 0x1ED6 PUSH2 0x1CE3 JUMP JUMPDEST JUMPDEST PUSH2 0x1EE1 DUP3 SLOAD PUSH2 0x1B63 JUMP JUMPDEST PUSH2 0x1EEC DUP3 DUP3 DUP6 PUSH2 0x1E27 JUMP JUMPDEST PUSH1 0x0 PUSH1 0x1F DUP4 GT PUSH1 0x1 DUP2 EQ PUSH2 0x1F1B JUMPI PUSH1 0x0 DUP5 ISZERO PUSH2 0x1F09 JUMPI DUP3 DUP8 ADD CALLDATALOAD SWAP1 POP JUMPDEST PUSH2 0x1F13 DUP6 DUP3 PUSH2 0x1E98 JUMP JUMPDEST DUP7 SSTORE POP PUSH2 0x1F7B JUMP JUMPDEST PUSH1 0x1F NOT DUP5 AND PUSH2 0x1F29 DUP7 PUSH2 0x1D12 JUMP JUMPDEST PUSH1 0x0 JUMPDEST DUP3 DUP2 LT ISZERO PUSH2 0x1F51 JUMPI DUP5 DUP10 ADD CALLDATALOAD DUP3 SSTORE PUSH1 0x1 DUP3 ADD SWAP2 POP PUSH1 0x20 DUP6 ADD SWAP5 POP PUSH1 0x20 DUP2 ADD SWAP1 POP PUSH2 0x1F2C JUMP JUMPDEST DUP7 DUP4 LT ISZERO PUSH2 0x1F6E JUMPI DUP5 DUP10 ADD CALLDATALOAD PUSH2 0x1F6A PUSH1 0x1F DUP10 AND DUP3 PUSH2 0x1E7A JUMP JUMPDEST DUP4 SSTORE POP JUMPDEST PUSH1 0x1 PUSH1 0x2 DUP9 MUL ADD DUP9 SSTORE POP POP POP JUMPDEST POP POP POP POP POP POP POP JUMP JUMPDEST DUP3 DUP2 DUP4 CALLDATACOPY PUSH1 0x0 DUP4 DUP4 ADD MSTORE POP POP POP JUMP JUMPDEST PUSH1 0x0 PUSH2 0x1F9F DUP4 DUP6 PUSH2 0x19A1 JUMP JUMPDEST SWAP4 POP PUSH2 0x1FAC DUP4 DUP6 DUP5 PUSH2 0x1F84 JUMP JUMPDEST PUSH2 0x1FB5 DUP4 PUSH2 0x15EE JUMP JUMPDEST DUP5 ADD SWAP1 POP SWAP4 SWAP3 POP POP POP JUMP JUMPDEST PUSH1 0x0 PUSH1 0x20 DUP3 ADD SWAP1 POP DUP2 DUP2 SUB PUSH1 0x0 DUP4 ADD MSTORE PUSH2 0x1FDB DUP2 DUP5 DUP7 PUSH2 0x1F93 JUMP JUMPDEST SWAP1 POP SWAP4 SWAP3 POP POP POP JUMP JUMPDEST PUSH32 0x526577617264206D757374206265203E20300000000000000000000000000000 PUSH1 0x0 DUP3 ADD MSTORE POP JUMP JUMPDEST PUSH1 0x0 PUSH2 0x201A PUSH1 0x12 DUP4 PUSH2 0x19A1 JUMP JUMPDEST SWAP2 POP PUSH2 0x2025 DUP3 PUSH2 0x1FE4 JUMP JUMPDEST PUSH1 0x20 DUP3 ADD SWAP1 POP SWAP2 SWAP1 POP JUMP JUMPDEST PUSH1 0x0 PUSH1 0x20 DUP3 ADD SWAP1 POP DUP2 DUP2 SUB PUSH1 0x0 DUP4 ADD MSTORE PUSH2 0x2049 DUP2 PUSH2 0x200D JUMP JUMPDEST SWAP1 POP SWAP2 SWAP1 POP JUMP JUMPDEST PUSH1 0x0 PUSH1 0x60 DUP3 ADD SWAP1 POP PUSH2 0x2065 PUSH1 0x0 DUP4 ADD DUP7 PUSH2 0x1992 JUMP JUMPDEST PUSH2 0x2072 PUSH1 0x20 DUP4 ADD DUP6 PUSH2 0x1992 JUMP JUMPDEST PUSH2 0x207F PUSH1 0x40 DUP4 ADD DUP5 PUSH2 0x1968 JUMP JUMPDEST SWAP5 SWAP4 POP POP POP POP JUMP JUMPDEST PUSH1 0x0 DUP2 ISZERO ISZERO SWAP1 POP SWAP2 SWAP1 POP JUMP JUMPDEST PUSH2 0x209C DUP2 PUSH2 0x2087 JUMP JUMPDEST DUP2 EQ PUSH2 0x20A7 JUMPI PUSH1 0x0 DUP1 REVERT JUMPDEST POP JUMP JUMPDEST PUSH1 0x0 DUP2 MLOAD SWAP1 POP PUSH2 0x20B9 DUP2 PUSH2 0x2093 JUMP JUMPDEST SWAP3 SWAP2 POP POP JUMP JUMPDEST PUSH1 0x0 PUSH1 0x20 DUP3 DUP5 SUB SLT ISZERO PUSH2 0x20D5 JUMPI PUSH2 0x20D4 PUSH2 0x14EB JUMP JUMPDEST JUMPDEST PUSH1 0x0 PUSH2 0x20E3 DUP5 DUP3 DUP6 ADD PUSH2 0x20AA JUMP JUMPDEST SWAP2 POP POP SWAP3 SWAP2 POP POP JUMP JUMPDEST PUSH32 0x457363726F77207472616E73666572206661696C656400000000000000000000 PUSH1 0x0 DUP3 ADD MSTORE POP JUMP JUMPDEST PUSH1 0x0 PUSH2 0x2122 PUSH1 0x16 DUP4 PUSH2 0x19A1 JUMP JUMPDEST SWAP2 POP PUSH2 0x212D DUP3 PUSH2 0x20EC JUMP JUMPDEST PUSH1 0x20 DUP3 ADD SWAP1 POP SWAP2 SWAP1 POP JUMP JUMPDEST PUSH1 0x0 PUSH1 0x20 DUP3 ADD SWAP1 POP DUP2 DUP2 SUB PUSH1 0x0 DUP4 ADD MSTORE PUSH2 0x2151 DUP2 PUSH2 0x2115 JUMP JUMPDEST SWAP1 POP SWAP2 SWAP1 POP JUMP JUMPDEST PUSH32 0x4E487B7100000000000000000000000000000000000000000000000000000000 PUSH1 0x0 MSTORE PUSH1 0x11 PUSH1 0x4 MSTORE PUSH1 0x24 PUSH1 0x0 REVERT JUMPDEST PUSH1 0x0 PUSH2 0x2192 DUP3 PUSH2 0x14F5 JUMP JUMPDEST SWAP2 POP PUSH32 0xFFFFFFFFFFFFFFFFFFFFFFFFFFFFFFFFFFFFFFFFFFFFFFFFFFFFFFFFFFFFFFFF DUP3 SUB PUSH2 0x21C4 JUMPI PUSH2 0x21C3 PUSH2 0x2158 JUMP JUMPDEST JUMPDEST PUSH1 0x1 DUP3 ADD SWAP1 POP SWAP2 SWAP1 POP JUMP JUMPDEST PUSH2 0x21D8 DUP3 PUSH2 0x15A8 JUMP JUMPDEST PUSH8 0xFFFFFFFFFFFFFFFF DUP2 GT ISZERO PUSH2 0x21F1 JUMPI PUSH2 0x21F0 PUSH2 0x1CE3 JUMP JUMPDEST JUMPDEST PUSH2 0x21FB DUP3 SLOAD PUSH2 0x1B63 JUMP JUMPDEST PUSH2 0x2206 DUP3 DUP3 DUP6 PUSH2 0x1E27 JUMP JUMPDEST PUSH1 0x0 PUSH1 0x20 SWAP1 POP PUSH1 0x1F DUP4 GT PUSH1 0x1 DUP2 EQ PUSH2 0x2239 JUMPI PUSH1 0x0 DUP5 ISZERO PUSH2 0x2227 JUMPI DUP3 DUP8 ADD MLOAD SWAP1 POP JUMPDEST PUSH2 0x2231 DUP6 DUP3 PUSH2 0x1E98 JUMP JUMPDEST DUP7 SSTORE POP PUSH2 0x2299 JUMP JUMPDEST PUSH1 0x1F NOT DUP5 AND PUSH2 0x2247 DUP7 PUSH2 0x1D12 JUMP JUMPDEST PUSH1 0x0 JUMPDEST DUP3 DUP2 LT ISZERO PUSH2 0x226F JUMPI DUP5 DUP10 ADD MLOAD DUP3 SSTORE PUSH1 0x1 DUP3 ADD SWAP2 POP PUSH1 0x20 DUP6 ADD SWAP5 POP PUSH1 0x20 DUP2 ADD SWAP1 POP PUSH2 0x224A JUMP JUMPDEST DUP7 DUP4 LT ISZERO PUSH2 0x228C JUMPI DUP5 DUP10 ADD MLOAD PUSH2 0x2288 PUSH1 0x1F DUP10 AND DUP3 PUSH2 0x1E7A JUMP JUMPDEST DUP4 SSTORE POP JUMPDEST PUSH1 0x1 PUSH1 0x2 DUP9 MUL ADD DUP9 SSTORE POP POP POP JUMPDEST POP POP POP POP POP POP JUMP JUMPDEST PUSH32 0x43616E206F6E6C792063616E63656C206F70656E207461736B73000000000000 PUSH1 0x0 DUP3 ADD MSTORE POP JUMP JUMPDEST PUSH1 0x0 PUSH2 0x22D7 PUSH1 0x1A DUP4 PUSH2 0x19A1 JUMP JUMPDEST SWAP2 POP PUSH2 0x22E2 DUP3 PUSH2 0x22A1 JUMP JUMPDEST PUSH1 0x20 DUP3 ADD SWAP1 POP SWAP2 SWAP1 POP JUMP JUMPDEST PUSH1 0x0 PUSH1 0x20 DUP3 ADD SWAP1 POP DUP2 DUP2 SUB PUSH1 0x0 DUP4 ADD MSTORE PUSH2 0x2306 DUP2 PUSH2 0x22CA JUMP JUMPDEST SWAP1 POP SWAP2 SWAP1 POP JUMP JUMPDEST PUSH32 0x4F6E6C7920706F737465722063616E2063616E63656C00000000000000000000 PUSH1 0x0 DUP3 ADD MSTORE POP JUMP JUMPDEST PUSH1 0x0 PUSH2 0x2343 PUSH1 0x16 DUP4 PUSH2 0x19A1 JUMP JUMPDEST SWAP2 POP PUSH2 0x234E DUP3 PUSH2 0x230D JUMP JUMPDEST PUSH1 0x20 DUP3 ADD SWAP1 POP SWAP2 SWAP1 POP JUMP JUMPDEST PUSH1 0x0 PUSH1 0x20 DUP3 ADD SWAP1 POP DUP2 DUP2 SUB PUSH1 0x0 DUP4 ADD MSTORE PUSH2 0x2372 DUP2 PUSH2 0x2336 JUMP JUMPDEST SWAP1 POP SWAP2 SWAP1 POP JUMP JUMPDEST PUSH1 0x0 PUSH1 0x40 DUP3 ADD SWAP1 POP PUSH2 0x238E PUSH1 0x0 DUP4 ADD DUP6 PUSH2 0x1992 JUMP JUMPDEST PUSH2 0x239B PUSH1 0x20 DUP4 ADD DUP5 PUSH2 0x1968 JUMP JUMPDEST SWAP4 SWAP3 POP POP POP JUMP JUMPDEST PUSH32 0x526566756E64206661696C656400000000000000000000000000000000000000 PUSH1 0x0 DUP3 ADD MSTORE POP JUMP JUMPDEST PUSH1 0x0 PUSH2 0x23D8 PUSH1 0xD DUP4 PUSH2 0x19A1 JUMP JUMPDEST SWAP2 POP PUSH2 0x23E3 DUP3 PUSH2 0x23A2 JUMP JUMPDEST PUSH1 0x20 DUP3 ADD SWAP1 POP SWAP2 SWAP1 POP JUMP JUMPDEST PUSH1 0x0 PUSH1 0x20 DUP3 ADD SWAP1 POP DUP2 DUP2 SUB PUSH1 0x0 DUP4 ADD MSTORE PUSH2 0x2407 DUP2 PUSH2 0x23CB JUMP JUMPDEST SWAP1 POP SWAP2 SWAP1 POP JUMP JUMPDEST PUSH32 0x5461736B206E6F74206163636570746564000000000000000000000000000000 PUSH1 0x0 DUP3 ADD MSTORE POP JUMP JUMPDEST PUSH1 0x0 PUSH2 0x2444 PUSH1 0x11 DUP4 PUSH2 0x19A1 JUMP JUMPDEST SWAP2 POP PUSH2 0x244F DUP3 PUSH2 0x240E JUMP JUMPDEST PUSH1 0x20 DUP3 ADD SWAP1 POP SWAP2 SWAP1 POP JUMP JUMPDEST PUSH1 0x0 PUSH1 0x20 DUP3 ADD SWAP1 POP DUP2 DUP2 SUB PUSH1 0x0 DUP4 ADD MSTORE PUSH2 0x2473 DUP2 PUSH2 0x2437 JUMP JUMPDEST SWAP1 POP SWAP2 SWAP1 POP JUMP JUMPDEST PUSH32 0x4F6E6C7920706F737465722063616E20636F6E6669726D20636F6D706C657469 PUSH1 0x0 DUP3 ADD MSTORE PUSH32 0x6F6E000000000000000000000000000000000000000000000000000000000000 PUSH1 0x20 DUP3 ADD MSTORE POP JUMP JUMPDEST PUSH1 0x0 PUSH2 0x24D6 PUSH1 0x22 DUP4 PUSH2 0x19A1 JUMP JUMPDEST SWAP2 POP PUSH2 0x24E1 DUP3 PUSH2 0x247A JUMP JUMPDEST PUSH1 0x40 DUP3 ADD SWAP1 POP SWAP2 SWAP1 POP JUMP JUMPDEST PUSH1 0x0 PUSH1 0x20 DUP3 ADD SWAP1 POP DUP2 DUP2 SUB PUSH1 0x0 DUP4 ADD MSTORE PUSH2 0x2505 DUP2 PUSH2 0x24C9 JUMP JUMPDEST SWAP1 POP SWAP2 SWAP1 POP JUMP JUMPDEST PUSH32 0x526577617264207472616E73666572206661696C656400000000000000000000 PUSH1 0x0 DUP3 ADD MSTORE POP JUMP JUMPDEST PUSH1 0x0 PUSH2 0x2542 PUSH1 0x16 DUP4 PUSH2 0x19A1 JUMP JUMPDEST SWAP2 POP PUSH2 0x254D DUP3 PUSH2 0x250C JUMP JUMPDEST PUSH1 0x20 DUP3 ADD SWAP1 POP SWAP2 SWAP1 POP JUMP JUMPDEST PUSH1 0x0 PUSH1 0x20 DUP3 ADD SWAP1 POP DUP2 DUP2 SUB PUSH1 0x0 DUP4 ADD MSTORE PUSH2 0x2571 DUP2 PUSH2 0x2535 JUMP JUMPDEST SWAP1 POP SWAP2 SWAP1 POP JUMP INVALID LOG2 PUSH5 0x6970667358 0x22 SLT KECCAK256 0x4E 0xBB 0xBE 0xBF 0x1E 0xB8 PUSH1 0xC SWAP11 0xD1 BLOCKHASH 0x1E EXTCODESIZE PUSH6 0x4652DCA832D2 0x2E NUMBER DUP7 PUSH9 0x21857DE0199C76AC64 PUSH20 0x6F6C634300081800330000000000000000000000 "},"methodIdentifiers":{"acceptTask(uint256,string,address)":"1f30accb","cancelTask(uint256)":"7eec20a8","cogToken()":"dbcddce8","completeTask(uint256)":"e1e29558","createTask(string,string,uint256)":"41a4e30a","getTask(uint256)":"1d65e77e","nextTaskId()":"fdc3d8d7","tasks(uint256)":"8d977672"}}}}}