{"contracts/TaskMarket.sol":{"TaskMarket":{"abi":[{"anonymous":false,"inputs":[{"indexed":true,"internalType":"uint256","name":"taskId","type":"uint256"},{"indexed":true,"internalType":"address","name":"acceptor","type":"address"},{"indexed":false,"internalType":"string","name":"acceptorAgentId","type":"string"}],"name":"TaskAccepted","type":"event"},{"anonymous":false,"inputs":[{"indexed":true,"internalType":"uint256","name":"taskId","type":"uint256"}],"name":"TaskCancelled","type":"event"},{"anonymous":false,"inputs":[{"indexed":true,"internalType":"uint256","name":"taskId","type":"uint256"},{"indexed":false,"internalType":"uint256","name":"reward","type":"uint256"}],"name":"TaskCompleted","type":"event"},{"anonymous":false,"inputs":[{"indexed":true,"internalType":"uint256","name":"taskId","type":"uint256"},{"indexed":true,"internalType":"address","name":"poster","type":"address"},{"indexed":false,"internalType":"uint256","name":"reward","type":"uint256"}],"name":"TaskCreated","type":"event"},{"inputs":[{"internalType":"uint256","name":"taskId","type":"uint256"},{"internalType":"string","name":"acceptorAgentId","type":"string"},{"internalType":"address","name":"rewardRecipient","type":"address"}],"name":"acceptTask","outputs":[],"stateMutability":"nonpayable","type":"function"},{"inputs":[{"internalType":"uint256","name":"taskId","type":"uint256"}],"name":"cancelTask","outputs":[],"stateMutability":"nonpayable","type":"function"},{"inputs":[{"internalType":"uint256","name":"taskId","type":"uint256"}],"name":"completeTask","outputs":[],"stateMutability":"nonpayable","type":"function"},{"inputs":[{"internalType":"string","name":"posterAgentId","type":"string"},{"internalType":"string","name":"title","type":"string"},{"internalType":"uint256","name":"rewardAmount","type":"uint256"}],"name":"createTask","outputs":[{"internalType":"uint256","name":"","type":"uint256"}],"stateMutability":"payable","type":"function"},{"inputs":[{"internalType":"uint256","name":"taskId","type":"uint256"}],"name":"getTask","outputs":[{"components":[{"internalType":"uint256","name":"id","type":"uint256"},{"internalType":"address","name":"poster","type":"address"},{"internalType":"string","name":"posterAgentId","type":"string"},{"internalType":"string","name":"title","type":"string"},{"internalType":"uint256","name":"rewardAmount","type":"uint256"},{"internalType":"enum TaskMarket.TaskStatus","name":"status","type":"uint8"},{"internalType":"address","name":"acceptor","type":"address"},{"internalType":"string","name":"acceptorAgentId","type":"string"},{"internalType":"address","name":"rewardRecipient","type":"address"},{"internalType":"uint256","name":"createdAt","type":"uint256"},{"internalType":"uint256","name":"completedAt","type":"uint256"}],"internalType":"struct TaskMarket.TaskInfo","name":"","type":"tuple"}],"stateMutability":"view","type":"function"},{"inputs":[],"name":"nextTaskId","outputs":[{"internalType":"uint256","name":"","type":"uint256"}],"stateMutability":"view","type":"function"},{"inputs":[{"internalType":"uint256","name":"","type":"uint256"}],"name":"tasks","outputs":[{"internalType":"uint256","name":"id","type":"uint256"},{"internalType":"address","name":"poster","type":"address"},{"internalType":"string","name":"posterAgentId","type":"string"},{"internalType":"string","name":"title","type":"string"},{"internalType":"uint256","name":"rewardAmount","type":"uint256"},{"internalType":"enum TaskMarket.TaskStatus","name":"status","type":"uint8"},{"internalType":"address","name":"acceptor","type":"address"},{"internalType":"string","name":"acceptorAgentId","type":"string"},{"internalType":"address","name":"rewardRecipient","type":"address"},{"internalType":"uint256","name":"createdAt","type":"uint256"},{"internalType":"uint256","name":"completedAt","type":"uint256"}],"stateMutability":"view","type":"function"}],"evm":{"bytecode":{"linkReferences":{},"object":"608060405234801561001057600080fd5b506123b5806100206000396000f3fe6080604052600436106100705760003560e01c80637eec20a81161004e5780637eec20a81461010b5780638d97767214610134578063e1e295581461017b578063fdc3d8d7146101a457610070565b80631d65e77e146100755780631f30accb146100b257806341a4e30a146100db575b600080fd5b34801561008157600080fd5b5061009c60048036038101906100979190611421565b6101cf565b6040516100a991906116a2565b60405180910390f35b3480156100be57600080fd5b506100d960048036038101906100d49190611755565b610518565b005b6100f560048036038101906100f091906117c9565b6107c7565b604051610102919061186d565b60405180910390f35b34801561011757600080fd5b50610132600480360381019061012d9190611421565b610b86565b005b34801561014057600080fd5b5061015b60048036038101906101569190611421565b610dda565b6040516101729b9a999897969594939291906118f0565b60405180910390f35b34801561018757600080fd5b506101a2600480360381019061019d9190611421565b611039565b005b3480156101b057600080fd5b506101b961132d565b6040516101c6919061186d565b60405180910390f35b6101d7611333565b6001600083815260200190815260200160002060405180610160016040529081600082015481526020016001820160009054906101000a900473ffffffffffffffffffffffffffffffffffffffff1673ffffffffffffffffffffffffffffffffffffffff1673ffffffffffffffffffffffffffffffffffffffff168152602001600282018054610266906119df565b80601f0160208091040260200160405190810160405280929190818152602001828054610292906119df565b80156102df5780601f106102b4576101008083540402835291602001916102df565b820191906000526020600020905b8154815290600101906020018083116102c257829003601f168201915b505050505081526020016003820180546102f8906119df565b80601f0160208091040260200160405190810160405280929190818152602001828054610324906119df565b80156103715780601f1061034657610100808354040283529160200191610371565b820191906000526020600020905b81548152906001019060200180831161035457829003601f168201915b50505050508152602001600482015481526020016005820160009054906101000a900460ff1660038111156103a9576103a861152e565b5b60038111156103bb576103ba61152e565b5b81526020016005820160019054906101000a900473ffffffffffffffffffffffffffffffffffffffff1673ffffffffffffffffffffffffffffffffffffffff1673ffffffffffffffffffffffffffffffffffffffff168152602001600682018054610425906119df565b80601f0160208091040260200160405190810160405280929190818152602001828054610451906119df565b801561049e5780601f106104735761010080835404028352916020019161049e565b820191906000526020600020905b81548152906001019060200180831161048157829003601f168201915b505050505081526020016007820160009054906101000a900473ffffffffffffffffffffffffffffffffffffffff1673ffffffffffffffffffffffffffffffffffffffff1673ffffffffffffffffffffffffffffffffffffffff168152602001600882015481526020016009820154815250509050919050565b6000600160008681526020019081526020016000209050600060038111156105435761054261152e565b5b8160050160009054906101000a900460ff1660038111156105675761056661152e565b5b146105a7576040517f08c379a000000000000000000000000000000000000000000000000000000000815260040161059e90611a5c565b60405180910390fd5b3373ffffffffffffffffffffffffffffffffffffffff168160010160009054906101000a900473ffffffffffffffffffffffffffffffffffffffff1673ffffffffffffffffffffffffffffffffffffffff1603610639576040517f08c379a000000000000000000000000000000000000000000000000000000000815260040161063090611ac8565b60405180910390fd5b600073ffffffffffffffffffffffffffffffffffffffff168273ffffffffffffffffffffffffffffffffffffffff16036106a8576040517f08c379a000000000000000000000000000000000000000000000000000000000815260040161069f90611b34565b60405180910390fd5b60018160050160006101000a81548160ff021916908360038111156106d0576106cf61152e565b5b0217905550338160050160016101000a81548173ffffffffffffffffffffffffffffffffffffffff021916908373ffffffffffffffffffffffffffffffffffffffff160217905550838382600601918261072b929190611d3a565b50818160070160006101000a81548173ffffffffffffffffffffffffffffffffffffffff021916908373ffffffffffffffffffffffffffffffffffffffff1602179055503373ffffffffffffffffffffffffffffffffffffffff16857f05d0d345381f6856dc2a2aebc8fe6727ea16a9ee8c3e7e0ca51d11a59b04c7d886866040516107b8929190611e46565b60405180910390a35050505050565b600080821161080b576040517f08c379a000000000000000000000000000000000000000000000000000000000815260040161080290611eb6565b60405180910390fd5b81341461084d576040517f08c379a000000000000000000000000000000000000000000000000000000000815260040161084490611f22565b60405180910390fd5b600080600081548092919061086190611f71565b9190505590506040518061016001604052808281526020013373ffffffffffffffffffffffffffffffffffffffff16815260200188888080601f016020809104026020016040519081016040528093929190818152602001838380828437600081840152601f19601f82011690508083019250505050505050815260200186868080601f016020809104026020016040519081016040528093929190818152602001838380828437600081840152601f19601f820116905080830192505050505050508152602001848152602001600060038111156109435761094261152e565b5b8152602001600073ffffffffffffffffffffffffffffffffffffffff168152602001604051806020016040528060008152508152602001600073ffffffffffffffffffffffffffffffffffffffff1681526020014281526020016000815250600160008381526020019081526020016000206000820151816000015560208201518160010160006101000a81548173ffffffffffffffffffffffffffffffffffffffff021916908373ffffffffffffffffffffffffffffffffffffffff1602179055506040820151816002019081610a1b9190611fb9565b506060820151816003019081610a319190611fb9565b506080820151816004015560a08201518160050160006101000a81548160ff02191690836003811115610a6757610a6661152e565b5b021790555060c08201518160050160016101000a81548173ffffffffffffffffffffffffffffffffffffffff021916908373ffffffffffffffffffffffffffffffffffffffff16021790555060e0820151816006019081610ac89190611fb9565b506101008201518160070160006101000a81548173ffffffffffffffffffffffffffffffffffffffff021916908373ffffffffffffffffffffffffffffffffffffffff160217905550610120820151816008015561014082015181600901559050503373ffffffffffffffffffffffffffffffffffffffff16817f6cf53aa7292e664152c2ea948c3b3c95d4b05c36daeb2626d0293473c4a4a15385604051610b71919061186d565b60405180910390a38091505095945050505050565b600060016000838152602001908152602001600020905060006003811115610bb157610bb061152e565b5b8160050160009054906101000a900460ff166003811115610bd557610bd461152e565b5b14610c15576040517f08c379a0000000000000000000000000000000000000000000000000000000008152600401610c0c906120d7565b60405180910390fd5b3373ffffffffffffffffffffffffffffffffffffffff168160010160009054906101000a900473ffffffffffffffffffffffffffffffffffffffff1673ffffffffffffffffffffffffffffffffffffffff1614610ca7576040517f08c379a0000000000000000000000000000000000000000000000000000000008152600401610c9e90612143565b60405180910390fd5b60038160050160006101000a81548160ff02191690836003811115610ccf57610cce61152e565b5b021790555060008160010160009054906101000a900473ffffffffffffffffffffffffffffffffffffffff1673ffffffffffffffffffffffffffffffffffffffff168260040154604051610d2290612194565b60006040518083038185875af1925050503d8060008114610d5f576040519150601f19603f3d011682016040523d82523d6000602084013e610d64565b606091505b5050905080610da8576040517f08c379a0000000000000000000000000000000000000000000000000000000008152600401610d9f906121f5565b60405180910390fd5b827fc6eacc3aa5b2aa77b5a826b832a804ca0b71830ec74f9aa57a15edd978c31ed660405160405180910390a2505050565b60016020528060005260406000206000915090508060000154908060010160009054906101000a900473ffffffffffffffffffffffffffffffffffffffff1690806002018054610e29906119df565b80601f0160208091040260200160405190810160405280929190818152602001828054610e55906119df565b8015610ea25780601f10610e7757610100808354040283529160200191610ea2565b820191906000526020600020905b815481529060010190602001808311610e8557829003601f168201915b505050505090806003018054610eb7906119df565b80601f0160208091040260200160405190810160405280929190818152602001828054610ee3906119df565b8015610f305780601f10610f0557610100808354040283529160200191610f30565b820191906000526020600020905b815481529060010190602001808311610f1357829003601f168201915b5050505050908060040154908060050160009054906101000a900460ff16908060050160019054906101000a900473ffffffffffffffffffffffffffffffffffffffff1690806006018054610f84906119df565b80601f0160208091040260200160405190810160405280929190818152602001828054610fb0906119df565b8015610ffd5780601f10610fd257610100808354040283529160200191610ffd565b820191906000526020600020905b815481529060010190602001808311610fe057829003601f168201915b5050505050908060070160009054906101000a900473ffffffffffffffffffffffffffffffffffffffff1690806008015490806009015490508b565b6000600160008381526020019081526020016000209050600160038111156110645761106361152e565b5b8160050160009054906101000a900460ff1660038111156110885761108761152e565b5b146110c8576040517f08c379a00000000000000000000000000000000000000000000000000000000081526004016110bf90612261565b60405180910390fd5b3373ffffffffffffffffffffffffffffffffffffffff168160010160009054906101000a900473ffffffffffffffffffffffffffffffffffffffff1673ffffffffffffffffffffffffffffffffffffffff161461115a576040517f08c379a0000000000000000000000000000000000000000000000000000000008152600401611151906122f3565b60405180910390fd5b60028160050160006101000a81548160ff021916908360038111156111825761118161152e565b5b021790555042816009018190555060008073ffffffffffffffffffffffffffffffffffffffff168260070160009054906101000a900473ffffffffffffffffffffffffffffffffffffffff1673ffffffffffffffffffffffffffffffffffffffff1603611213578160050160019054906101000a900473ffffffffffffffffffffffffffffffffffffffff16611239565b8160070160009054906101000a900473ffffffffffffffffffffffffffffffffffffffff165b905060008173ffffffffffffffffffffffffffffffffffffffff16836004015460405161126590612194565b60006040518083038185875af1925050503d80600081146112a2576040519150601f19603f3d011682016040523d82523d6000602084013e6112a7565b606091505b50509050806112eb576040517f08c379a00000000000000000000000000000000000000000000000000000000081526004016112e29061235f565b60405180910390fd5b837ff9c405f91e34dcd1dc136cf6992ada4a8c24a2803e0fab7546364c64dac7ba2b846004015460405161131f919061186d565b60405180910390a250505050565b60005481565b60405180610160016040528060008152602001600073ffffffffffffffffffffffffffffffffffffffff1681526020016060815260200160608152602001600081526020016000600381111561138c5761138b61152e565b5b8152602001600073ffffffffffffffffffffffffffffffffffffffff16815260200160608152602001600073ffffffffffffffffffffffffffffffffffffffff16815260200160008152602001600081525090565b600080fd5b600080fd5b6000819050919050565b6113fe816113eb565b811461140957600080fd5b50565b60008135905061141b816113f5565b92915050565b600060208284031215611437576114366113e1565b5b60006114458482850161140c565b91505092915050565b611457816113eb565b82525050565b600073ffffffffffffffffffffffffffffffffffffffff82169050919050565b60006114888261145d565b9050919050565b6114988161147d565b82525050565b600081519050919050565b600082825260208201905092915050565b60005b838110156114d85780820151818401526020810190506114bd565b60008484015250505050565b6000601f19601f8301169050919050565b60006115008261149e565b61150a81856114a9565b935061151a8185602086016114ba565b611523816114e4565b840191505092915050565b7f4e487b7100000000000000000000000000000000000000000000000000000000600052602160045260246000fd5b6004811061156e5761156d61152e565b5b50565b600081905061157f8261155d565b919050565b600061158f82611571565b9050919050565b61159f81611584565b82525050565b6000610160830160008301516115be600086018261144e565b5060208301516115d1602086018261148f565b50604083015184820360408601526115e982826114f5565b9150506060830151848203606086015261160382826114f5565b9150506080830151611618608086018261144e565b5060a083015161162b60a0860182611596565b5060c083015161163e60c086018261148f565b5060e083015184820360e086015261165682826114f5565b91505061010083015161166d61010086018261148f565b5061012083015161168261012086018261144e565b5061014083015161169761014086018261144e565b508091505092915050565b600060208201905081810360008301526116bc81846115a5565b905092915050565b600080fd5b600080fd5b600080fd5b60008083601f8401126116e9576116e86116c4565b5b8235905067ffffffffffffffff811115611706576117056116c9565b5b602083019150836001820283011115611722576117216116ce565b5b9250929050565b6117328161147d565b811461173d57600080fd5b50565b60008135905061174f81611729565b92915050565b6000806000806060858703121561176f5761176e6113e1565b5b600061177d8782880161140c565b945050602085013567ffffffffffffffff81111561179e5761179d6113e6565b5b6117aa878288016116d3565b935093505060406117bd87828801611740565b91505092959194509250565b6000806000806000606086880312156117e5576117e46113e1565b5b600086013567ffffffffffffffff811115611803576118026113e6565b5b61180f888289016116d3565b9550955050602086013567ffffffffffffffff811115611832576118316113e6565b5b61183e888289016116d3565b935093505060406118518882890161140c565b9150509295509295909350565b611867816113eb565b82525050565b6000602082019050611882600083018461185e565b92915050565b6118918161147d565b82525050565b600082825260208201905092915050565b60006118b38261149e565b6118bd8185611897565b93506118cd8185602086016114ba565b6118d6816114e4565b840191505092915050565b6118ea81611584565b82525050565b600061016082019050611906600083018e61185e565b611913602083018d611888565b8181036040830152611925818c6118a8565b90508181036060830152611939818b6118a8565b9050611948608083018a61185e565b61195560a08301896118e1565b61196260c0830188611888565b81810360e083015261197481876118a8565b9050611984610100830186611888565b61199261012083018561185e565b6119a061014083018461185e565b9c9b505050505050505050505050565b7f4e487b7100000000000000000000000000000000000000000000000000000000600052602260045260246000fd5b600060028204905060018216806119f757607f821691505b602082108103611a0a57611a096119b0565b5b50919050565b7f5461736b206e6f74206f70656e00000000000000000000000000000000000000600082015250565b6000611a46600d83611897565b9150611a5182611a10565b602082019050919050565b60006020820190508181036000830152611a7581611a39565b9050919050565b7f43616e6e6f7420616363657074206f776e207461736b00000000000000000000600082015250565b6000611ab2601683611897565b9150611abd82611a7c565b602082019050919050565b60006020820190508181036000830152611ae181611aa5565b9050919050565b7f52657761726420726563697069656e7420726571756972656400000000000000600082015250565b6000611b1e601983611897565b9150611b2982611ae8565b602082019050919050565b60006020820190508181036000830152611b4d81611b11565b9050919050565b600082905092915050565b7f4e487b7100000000000000000000000000000000000000000000000000000000600052604160045260246000fd5b60008190508160005260206000209050919050565b60006020601f8301049050919050565b600082821b905092915050565b600060088302611bf07fffffffffffffffffffffffffffffffffffffffffffffffffffffffffffffffff82611bb3565b611bfa8683611bb3565b95508019841693508086168417925050509392505050565b6000819050919050565b6000611c37611c32611c2d846113eb565b611c12565b6113eb565b9050919050565b6000819050919050565b611c5183611c1c565b611c65611c5d82611c3e565b848454611bc0565b825550505050565b600090565b611c7a611c6d565b611c85818484611c48565b505050565b5b81811015611ca957611c9e600082611c72565b600181019050611c8b565b5050565b601f821115611cee57611cbf81611b8e565b611cc884611ba3565b81016020851015611cd7578190505b611ceb611ce385611ba3565b830182611c8a565b50505b505050565b600082821c905092915050565b6000611d1160001984600802611cf3565b1980831691505092915050565b6000611d2a8383611d00565b9150826002028217905092915050565b611d448383611b54565b67ffffffffffffffff811115611d5d57611d5c611b5f565b5b611d6782546119df565b611d72828285611cad565b6000601f831160018114611da15760008415611d8f578287013590505b611d998582611d1e565b865550611e01565b601f198416611daf86611b8e565b60005b82811015611dd757848901358255600182019150602085019450602081019050611db2565b86831015611df45784890135611df0601f891682611d00565b8355505b6001600288020188555050505b50505050505050565b82818337600083830152505050565b6000611e258385611897565b9350611e32838584611e0a565b611e3b836114e4565b840190509392505050565b60006020820190508181036000830152611e61818486611e19565b90509392505050565b7f526577617264206d757374206265203e20300000000000000000000000000000600082015250565b6000611ea0601283611897565b9150611eab82611e6a565b602082019050919050565b60006020820190508181036000830152611ecf81611e93565b9050919050565b7f53656e642065786163742072657761726420616d6f756e742061732049564500600082015250565b6000611f0c601f83611897565b9150611f1782611ed6565b602082019050919050565b60006020820190508181036000830152611f3b81611eff565b9050919050565b7f4e487b7100000000000000000000000000000000000000000000000000000000600052601160045260246000fd5b6000611f7c826113eb565b91507fffffffffffffffffffffffffffffffffffffffffffffffffffffffffffffffff8203611fae57611fad611f42565b5b600182019050919050565b611fc28261149e565b67ffffffffffffffff811115611fdb57611fda611b5f565b5b611fe582546119df565b611ff0828285611cad565b600060209050601f8311600181146120235760008415612011578287015190505b61201b8582611d1e565b865550612083565b601f19841661203186611b8e565b60005b8281101561205957848901518255600182019150602085019450602081019050612034565b868310156120765784890151612072601f891682611d00565b8355505b6001600288020188555050505b505050505050565b7f43616e206f6e6c792063616e63656c206f70656e207461736b73000000000000600082015250565b60006120c1601a83611897565b91506120cc8261208b565b602082019050919050565b600060208201905081810360008301526120f0816120b4565b9050919050565b7f4f6e6c7920706f737465722063616e2063616e63656c00000000000000000000600082015250565b600061212d601683611897565b9150612138826120f7565b602082019050919050565b6000602082019050818103600083015261215c81612120565b9050919050565b600081905092915050565b50565b600061217e600083612163565b91506121898261216e565b600082019050919050565b600061219f82612171565b9150819050919050565b7f526566756e64206661696c656400000000000000000000000000000000000000600082015250565b60006121df600d83611897565b91506121ea826121a9565b602082019050919050565b6000602082019050818103600083015261220e816121d2565b9050919050565b7f5461736b206e6f74206163636570746564000000000000000000000000000000600082015250565b600061224b601183611897565b915061225682612215565b602082019050919050565b6000602082019050818103600083015261227a8161223e565b9050919050565b7f4f6e6c7920706f737465722063616e20636f6e6669726d20636f6d706c65746960008201527f6f6e000000000000000000000000000000000000000000000000000000000000602082015250565b60006122dd602283611897565b91506122e882612281565b604082019050919050565b6000602082019050818103600083015261230c816122d0565b9050919050565b7f526577617264207472616e73666572206661696c656400000000000000000000600082015250565b6000612349601683611897565b915061235482612313565b602082019050919050565b600060208201905081810360008301526123788161233c565b905091905056fea2646970667358221220e8f222c238b4e5bd995fee39285d6d7873330011c0e1d633c6c4a3c692144e3464736f6c63430008180033","opcodes":"PUSH1 0x80 PUSH1 0x40 MSTORE CALLVALUE DUP1 ISZERO PUSH2 0x10 JUMPI PUSH1 0x0 DUP1 REVERT JUMPDEST POP PUSH2 0x23B5 DUP1 PUSH2 0x20 PUSH1 0x0 CODECOPY PUSH1 0x0 RETURN INVALID PUSH1 0x80 PUSH1 0x40 MSTORE PUSH1 0x4 CALLDATASIZE LT PUSH2 0x70 JUMPI PUSH1 0x0 CALLDATALOAD PUSH1 0xE0 SHR DUP1 PUSH4 0x7EEC20A8 GT PUSH2 0x4E JUMPI DUP1 PUSH4 0x7EEC20A8 EQ PUSH2 0x10B JUMPI DUP1 PUSH4 0x8D977672 EQ PUSH2 0x134 JUMPI DUP1 PUSH4 0xE1E29558 EQ PUSH2 0x17B JUMPI DUP1 PUSH4 0xFDC3D8D7 EQ PUSH2 0x1A4 JUMPI PUSH2 0x70 JUMP JUMPDEST DUP1 PUSH4 0x1D65E77E EQ PUSH2 0x75 JUMPI DUP1 PUSH4 0x1F30ACCB EQ PUSH2 0xB2 JUMPI DUP1 PUSH4 0x41A4E30A EQ PUSH2 0xDB JUMPI JUMPDEST PUSH1 0x0 DUP1 REVERT JUMPDEST CALLVALUE DUP1 ISZERO PUSH2 0x81 JUMPI PUSH1 0x0 DUP1 REVERT JUMPDEST POP PUSH2 0x9C PUSH1 0x4 DUP1 CALLDATASIZE SUB DUP2 ADD SWAP1 PUSH2 0x97 SWAP2 SWAP1 PUSH2 0x1421 JUMP JUMPDEST PUSH2 0x1CF JUMP JUMPDEST PUSH1 0x40 MLOAD PUSH2 0xA9 SWAP2 SWAP1 PUSH2 0x16A2 JUMP JUMPDEST PUSH1 0x40 MLOAD DUP1 SWAP2 SUB SWAP1 RETURN JUMPDEST CALLVALUE DUP1 ISZERO PUSH2 0xBE JUMPI PUSH1 0x0 DUP1 REVERT JUMPDEST POP PUSH2 0xD9 PUSH1 0x4 DUP1 CALLDATASIZE SUB DUP2 ADD SWAP1 PUSH2 0xD4 SWAP2 SWAP1 PUSH2 0x1755 JUMP JUMPDEST PUSH2 0x518 JUMP JUMPDEST STOP JUMPDEST PUSH2 0xF5 PUSH1 0x4 DUP1 CALLDATASIZE SUB DUP2 ADD SWAP1 PUSH2 0xF0 SWAP2 SWAP1 PUSH2 0x17C9 JUMP JUMPDEST PUSH2 0x7C7 JUMP JUMPDEST PUSH1 0x40 MLOAD PUSH2 0x102 SWAP2 SWAP1 PUSH2 0x186D JUMP JUMPDEST PUSH1 0x40 MLOAD DUP1 SWAP2 SUB SWAP1 RETURN JUMPDEST CALLVALUE DUP1 ISZERO PUSH2 0x117 JUMPI PUSH1 0x0 DUP1 REVERT JUMPDEST POP PUSH2 0x132 PUSH1 0x4 DUP1 CALLDATASIZE SUB DUP2 ADD SWAP1 PUSH2 0x12D SWAP2 SWAP1 PUSH2 0x1421 JUMP JUMPDEST PUSH2 0xB86 JUMP JUMPDEST STOP JUMPDEST CALLVALUE DUP1 ISZERO PUSH2 0x140 JUMPI PUSH1 0x0 DUP1 REVERT JUMPDEST POP PUSH2 0x15B PUSH1 0x4 DUP1 CALLDATASIZE SUB DUP2 ADD SWAP1 PUSH2 0x156 SWAP2 SWAP1 PUSH2 0x1421 JUMP JUMPDEST PUSH2 0xDDA JUMP JUMPDEST PUSH1 0x40 MLOAD PUSH2 0x172 SWAP12 SWAP11 SWAP10 SWAP9 SWAP8 SWAP7 SWAP6 SWAP5 SWAP4 SWAP3 SWAP2 SWAP1 PUSH2 0x18F0 JUMP JUMPDEST PUSH1 0x40 MLOAD DUP1 SWAP2 SUB SWAP1 RETURN JUMPDEST CALLVALUE DUP1 ISZERO PUSH2 0x187 JUMPI PUSH1 0x0 DUP1 REVERT JUMPDEST POP PUSH2 0x1A2 PUSH1 0x4 DUP1 CALLDATASIZE SUB DUP2 ADD SWAP1 PUSH2 0x19D SWAP2 SWAP1 PUSH2 0x1421 JUMP JUMPDEST PUSH2 0x1039 JUMP JUMPDEST STOP JUMPDEST CALLVALUE DUP1 ISZERO PUSH2 0x1B0 JUMPI PUSH1 0x0 DUP1 REVERT JUMPDEST POP PUSH2 0x1B9 PUSH2 0x132D JUMP JUMPDEST PUSH1 0x40 MLOAD PUSH2 0x1C6 SWAP2 SWAP1 PUSH2 0x186D JUMP JUMPDEST PUSH1 0x40 MLOAD DUP1 SWAP2 SUB SWAP1 RETURN JUMPDEST PUSH2 0x1D7 PUSH2 0x1333 JUMP JUMPDEST PUSH1 0x1 PUSH1 0x0 DUP4 DUP2 MSTORE PUSH1 0x20 ADD SWAP1 DUP2 MSTORE PUSH1 0x20 ADD PUSH1 0x0 KECCAK256 PUSH1 0x40 MLOAD DUP1 PUSH2 0x160 ADD PUSH1 0x40 MSTORE SWAP1 DUP2 PUSH1 0x0 DUP3 ADD SLOAD DUP2 MSTORE PUSH1 0x20 ADD PUSH1 0x1 DUP3 ADD PUSH1 0x0 SWAP1 SLOAD SWAP1 PUSH2 0x100 EXP SWAP1 DIV PUSH20 0xFFFFFFFFFFFFFFFFFFFFFFFFFFFFFFFFFFFFFFFF AND PUSH20 0xFFFFFFFFFFFFFFFFFFFFFFFFFFFFFFFFFFFFFFFF AND PUSH20 0xFFFFFFFFFFFFFFFFFFFFFFFFFFFFFFFFFFFFFFFF AND DUP2 MSTORE PUSH1 0x20 ADD PUSH1 0x2 DUP3 ADD DUP1 SLOAD PUSH2 0x266 SWAP1 PUSH2 0x19DF JUMP JUMPDEST DUP1 PUSH1 0x1F ADD PUSH1 0x20 DUP1 SWAP2 DIV MUL PUSH1 0x20 ADD PUSH1 0x40 MLOAD SWAP1 DUP2 ADD PUSH1 0x40 MSTORE DUP1 SWAP3 SWAP2 SWAP1 DUP2 DUP2 MSTORE PUSH1 0x20 ADD DUP3 DUP1 SLOAD PUSH2 0x292 SWAP1 PUSH2 0x19DF JUMP JUMPDEST DUP1 ISZERO PUSH2 0x2DF JUMPI DUP1 PUSH1 0x1F LT PUSH2 0x2B4 JUMPI PUSH2 0x100 DUP1 DUP4 SLOAD DIV MUL DUP4 MSTORE SWAP2 PUSH1 0x20 ADD SWAP2 PUSH2 0x2DF JUMP JUMPDEST DUP3 ADD SWAP2 SWAP1 PUSH1 0x0 MSTORE PUSH1 0x20 PUSH1 0x0 KECCAK256 SWAP1 JUMPDEST DUP2 SLOAD DUP2 MSTORE SWAP1 PUSH1 0x1 ADD SWAP1 PUSH1 0x20 ADD DUP1 DUP4 GT PUSH2 0x2C2 JUMPI DUP3 SWAP1 SUB PUSH1 0x1F AND DUP3 ADD SWAP2 JUMPDEST POP POP POP POP POP DUP2 MSTORE PUSH1 0x20 ADD PUSH1 0x3 DUP3 ADD DUP1 SLOAD PUSH2 0x2F8 SWAP1 PUSH2 0x19DF JUMP JUMPDEST DUP1 PUSH1 0x1F ADD PUSH1 0x20 DUP1 SWAP2 DIV MUL PUSH1 0x20 ADD PUSH1 0x40 MLOAD SWAP1 DUP2 ADD PUSH1 0x40 MSTORE DUP1 SWAP3 SWAP2 SWAP1 DUP2 DUP2 MSTORE PUSH1 0x20 ADD DUP3 DUP1 SLOAD PUSH2 0x324 SWAP1 PUSH2 0x19DF JUMP JUMPDEST DUP1 ISZERO PUSH2 0x371 JUMPI DUP1 PUSH1 0x1F LT PUSH2 0x346 JUMPI PUSH2 0x100 DUP1 DUP4 SLOAD DIV MUL DUP4 MSTORE SWAP2 PUSH1 0x20 ADD SWAP2 PUSH2 0x371 JUMP JUMPDEST DUP3 ADD SWAP2 SWAP1 PUSH1 0x0 MSTORE PUSH1 0x20 PUSH1 0x0 KECCAK256 SWAP1 JUMPDEST DUP2 SLOAD DUP2 MSTORE SWAP1 PUSH1 0x1 ADD SWAP1 PUSH1 0x20 ADD DUP1 DUP4 GT PUSH2 0x354 JUMPI DUP3 SWAP1 SUB PUSH1 0x1F AND DUP3 ADD SWAP2 JUMPDEST POP POP POP POP POP DUP2 MSTORE PUSH1 0x20 ADD PUSH1 0x4 DUP3 ADD SLOAD DUP2 MSTORE PUSH1 0x20 ADD PUSH1 0x5 DUP3 ADD PUSH1 0x0 SWAP1 SLOAD SWAP1 PUSH2 0x100 EXP SWAP1 DIV PUSH1 0xFF AND PUSH1 0x3 DUP2 GT ISZERO PUSH2 0x3A9 JUMPI PUSH2 0x3A8 PUSH2 0x152E JUMP JUMPDEST JUMPDEST PUSH1 0x3 DUP2 GT ISZERO PUSH2 0x3BB JUMPI PUSH2 0x3BA PUSH2 0x152E JUMP JUMPDEST JUMPDEST DUP2 MSTORE PUSH1 0x20 ADD PUSH1 0x5 DUP3 ADD PUSH1 0x1 SWAP1 SLOAD SWAP1 PUSH2 0x100 EXP SWAP1 DIV PUSH20 0xFFFFFFFFFFFFFFFFFFFFFFFFFFFFFFFFFFFFFFFF AND PUSH20 0xFFFFFFFFFFFFFFFFFFFFFFFFFFFFFFFFFFFFFFFF AND PUSH20 0xFFFFFFFFFFFFFFFFFFFFFFFFFFFFFFFFFFFFFFFF AND DUP2 MSTORE PUSH1 0x20 ADD PUSH1 0x6 DUP3 ADD DUP1 SLOAD PUSH2 0x425 SWAP1 PUSH2 0x19DF JUMP JUMPDEST DUP1 PUSH1 0x1F ADD PUSH1 0x20 DUP1 SWAP2 DIV MUL PUSH1 0x20 ADD PUSH1 0x40 MLOAD SWAP1 DUP2 ADD PUSH1 0x40 MSTORE DUP1 SWAP3 SWAP2 SWAP1 DUP2 DUP2 MSTORE PUSH1 0x20 ADD DUP3 DUP1 SLOAD PUSH2 0x451 SWAP1 PUSH2 0x19DF JUMP JUMPDEST DUP1 ISZERO PUSH2 0x49E JUMPI DUP1 PUSH1 0x1F LT PUSH2 0x473 JUMPI PUSH2 0x100 DUP1 DUP4 SLOAD DIV MUL DUP4 MSTORE SWAP2 PUSH1 0x20 ADD SWAP2 PUSH2 0x49E JUMP JUMPDEST DUP3 ADD SWAP2 SWAP1 PUSH1 0x0 MSTORE PUSH1 0x20 PUSH1 0x0 KECCAK256 SWAP1 JUMPDEST DUP2 SLOAD DUP2 MSTORE SWAP1 PUSH1 0x1 ADD SWAP1 PUSH1 0x20 ADD DUP1 DUP4 GT PUSH2 0x481 JUMPI DUP3 SWAP1 SUB PUSH1 0x1F AND DUP3 ADD SWAP2 JUMPDEST POP POP POP POP POP DUP2 MSTORE PUSH1 0x20 ADD PUSH1 0x7 DUP3 ADD PUSH1 0x0 SWAP1 SLOAD SWAP1 PUSH2 0x100 EXP SWAP1 DIV PUSH20 0xFFFFFFFFFFFFFFFFFFFFFFFFFFFFFFFFFFFFFFFF AND PUSH20 0xFFFFFFFFFFFFFFFFFFFFFFFFFFFFFFFFFFFFFFFF AND PUSH20 0xFFFFFFFFFFFFFFFFFFFFFFFFFFFFFFFFFFFFFFFF AND DUP2 MSTORE PUSH1 0x20 ADD PUSH1 0x8 DUP3 ADD SLOAD DUP2 MSTORE PUSH1 0x20 ADD PUSH1 0x9 DUP3 ADD SLOAD DUP2 MSTORE POP POP SWAP1 POP SWAP2 SWAP1 POP JUMP JUMPDEST PUSH1 0x0 PUSH1 0x1 PUSH1 0x0 DUP7 DUP2 MSTORE PUSH1 0x20 ADD SWAP1 DUP2 MSTORE PUSH1 0x20 ADD PUSH1 0x0 KECCAK256 SWAP1 POP PUSH1 0x0 PUSH1 0x3 DUP2 GT ISZERO PUSH2 0x543 JUMPI PUSH2 0x542 PUSH2 0x152E JUMP JUMPDEST JUMPDEST DUP2 PUSH1 0x5 ADD PUSH1 0x0 SWAP1 SLOAD SWAP1 PUSH2 0x100 EXP SWAP1 DIV PUSH1 0xFF AND PUSH1 0x3 DUP2 GT ISZERO PUSH2 0x567 JUMPI PUSH2 0x566 PUSH2 0x152E JUMP JUMPDEST JUMPDEST EQ PUSH2 0x5A7 JUMPI PUSH1 0x40 MLOAD PUSH32 0x8C379A000000000000000000000000000000000000000000000000000000000 DUP2 MSTORE PUSH1 0x4 ADD PUSH2 0x59E SWAP1 PUSH2 0x1A5C JUMP JUMPDEST PUSH1 0x40 MLOAD DUP1 SWAP2 SUB SWAP1 REVERT JUMPDEST CALLER PUSH20 0xFFFFFFFFFFFFFFFFFFFFFFFFFFFFFFFFFFFFFFFF AND DUP2 PUSH1 0x1 ADD PUSH1 0x0 SWAP1 SLOAD SWAP1 PUSH2 0x100 EXP SWAP1 DIV PUSH20 0xFFFFFFFFFFFFFFFFFFFFFFFFFFFFFFFFFFFFFFFF AND PUSH20 0xFFFFFFFFFFFFFFFFFFFFFFFFFFFFFFFFFFFFFFFF AND SUB PUSH2 0x639 JUMPI PUSH1 0x40 MLOAD PUSH32 0x8C379A000000000000000000000000000000000000000000000000000000000 DUP2 MSTORE PUSH1 0x4 ADD PUSH2 0x630 SWAP1 PUSH2 0x1AC8 JUMP JUMPDEST PUSH1 0x40 MLOAD DUP1 SWAP2 SUB SWAP1 REVERT JUMPDEST PUSH1 0x0 PUSH20 0xFFFFFFFFFFFFFFFFFFFFFFFFFFFFFFFFFFFFFFFF AND DUP3 PUSH20 0xFFFFFFFFFFFFFFFFFFFFFFFFFFFFFFFFFFFFFFFF AND SUB PUSH2 0x6A8 JUMPI PUSH1 0x40 MLOAD PUSH32 0x8C379A000000000000000000000000000000000000000000000000000000000 DUP2 MSTORE PUSH1 0x4 ADD PUSH2 0x69F SWAP1 PUSH2 0x1B34 JUMP JUMPDEST PUSH1 0x40 MLOAD DUP1 SWAP2 SUB SWAP1 REVERT JUMPDEST PUSH1 0x1 DUP2 PUSH1 0x5 ADD PUSH1 0x0 PUSH2 0x100 EXP DUP2 SLOAD DUP2 PUSH1 0xFF MUL NOT AND SWAP1 DUP4 PUSH1 0x3 DUP2 GT ISZERO PUSH2 0x6D0 JUMPI PUSH2 0x6CF PUSH2 0x152E JUMP JUMPDEST JUMPDEST MUL OR SWAP1 SSTORE POP CALLER DUP2 PUSH1 0x5 ADD PUSH1 0x1 PUSH2 0x100 EXP DUP2 SLOAD DUP2 PUSH20 0xFFFFFFFFFFFFFFFFFFFFFFFFFFFFFFFFFFFFFFFF MUL NOT AND SWAP1 DUP4 PUSH20 0xFFFFFFFFFFFFFFFFFFFFFFFFFFFFFFFFFFFFFFFF AND MUL OR SWAP1 SSTORE POP DUP4 DUP4 DUP3 PUSH1 0x6 ADD SWAP2 DUP3 PUSH2 0x72B SWAP3 SWAP2 SWAP1 PUSH2 0x1D3A JUMP JUMPDEST POP DUP2 DUP2 PUSH1 0x7 ADD PUSH1 0x0 PUSH2 0x100 EXP DUP2 SLOAD DUP2 PUSH20 0xFFFFFFFFFFFFFFFFFFFFFFFFFFFFFFFFFFFFFFFF MUL NOT AND SWAP1 DUP4 PUSH20 0xFFFFFFFFFFFFFFFFFFFFFFFFFFFFFFFFFFFFFFFF AND MUL OR SWAP1 SSTORE POP CALLER PUSH20 0xFFFFFFFFFFFFFFFFFFFFFFFFFFFFFFFFFFFFFFFF AND DUP6 PUSH32 0x5D0D345381F6856DC2A2AEBC8FE6727EA16A9EE8C3E7E0CA51D11A59B04C7D8 DUP7 DUP7 PUSH1 0x40 MLOAD PUSH2 0x7B8 SWAP3 SWAP2 SWAP1 PUSH2 0x1E46 JUMP JUMPDEST PUSH1 0x40 MLOAD DUP1 SWAP2 SUB SWAP1 LOG3 POP POP POP POP POP JUMP JUMPDEST PUSH1 0x0 DUP1 DUP3 GT PUSH2 0x80B JUMPI PUSH1 0x40 MLOAD PUSH32 0x8C379A000000000000000000000000000000000000000000000000000000000 DUP2 MSTORE PUSH1 0x4 ADD PUSH2 0x802 SWAP1 PUSH2 0x1EB6 JUMP JUMPDEST PUSH1 0x40 MLOAD DUP1 SWAP2 SUB SWAP1 REVERT JUMPDEST DUP2 CALLVALUE EQ PUSH2 0x84D JUMPI PUSH1 0x40 MLOAD PUSH32 0x8C379A000000000000000000000000000000000000000000000000000000000 DUP2 MSTORE PUSH1 0x4 ADD PUSH2 0x844 SWAP1 PUSH2 0x1F22 JUMP JUMPDEST PUSH1 0x40 MLOAD DUP1 SWAP2 SUB SWAP1 REVERT JUMPDEST PUSH1 0x0 DUP1 PUSH1 0x0 DUP2 SLOAD DUP1 SWAP3 SWAP2 SWAP1 PUSH2 0x861 SWAP1 PUSH2 0x1F71 JUMP JUMPDEST SWAP2 SWAP1 POP SSTORE SWAP1 POP PUSH1 0x40 MLOAD DUP1 PUSH2 0x160 ADD PUSH1 0x40 MSTORE DUP1 DUP3 DUP2 MSTORE PUSH1 0x20 ADD CALLER PUSH20 0xFFFFFFFFFFFFFFFFFFFFFFFFFFFFFFFFFFFFFFFF AND DUP2 MSTORE PUSH1 0x20 ADD DUP9 DUP9 DUP1 DUP1 PUSH1 0x1F ADD PUSH1 0x20 DUP1 SWAP2 DIV MUL PUSH1 0x20 ADD PUSH1 0x40 MLOAD SWAP1 DUP2 ADD PUSH1 0x40 MSTORE DUP1 SWAP4 SWAP3 SWAP2 SWAP1 DUP2 DUP2 MSTORE PUSH1 0x20 ADD DUP4 DUP4 DUP1 DUP3 DUP5 CALLDATACOPY PUSH1 0x0 DUP2 DUP5 ADD MSTORE PUSH1 0x1F NOT PUSH1 0x1F DUP3 ADD AND SWAP1 POP DUP1 DUP4 ADD SWAP3 POP POP POP POP POP POP POP DUP2 MSTORE PUSH1 0x20 ADD DUP7 DUP7 DUP1 DUP1 PUSH1 0x1F ADD PUSH1 0x20 DUP1 SWAP2 DIV MUL PUSH1 0x20 ADD PUSH1 0x40 MLOAD SWAP1 DUP2 ADD PUSH1 0x40 MSTORE DUP1 SWAP4 SWAP3 SWAP2 SWAP1 DUP2 DUP2 MSTORE PUSH1 0x20 ADD DUP4 DUP4 DUP1 DUP3 DUP5 CALLDATACOPY PUSH1 0x0 DUP2 DUP5 ADD MSTORE PUSH1 0x1F NOT PUSH1 0x1F DUP3 ADD AND SWAP1 POP DUP1 DUP4 ADD SWAP3 POP POP POP POP POP POP POP DUP2 MSTORE PUSH1 0x20 ADD DUP5 DUP2 MSTORE PUSH1 0x20 ADD PUSH1 0x0 PUSH1 0x3 DUP2 GT ISZERO PUSH2 0x943 JUMPI PUSH2 0x942 PUSH2 0x152E JUMP JUMPDEST JUMPDEST DUP2 MSTORE PUSH1 0x20 ADD PUSH1 0x0 PUSH20 0xFFFFFFFFFFFFFFFFFFFFFFFFFFFFFFFFFFFFFFFF AND DUP2 MSTORE PUSH1 0x20 ADD PUSH1 0x40 MLOAD DUP1 PUSH1 0x20 ADD PUSH1 0x40 MSTORE DUP1 PUSH1 0x0 DUP2 MSTORE POP DUP2 MSTORE PUSH1 0x20 ADD PUSH1 0x0 PUSH20 0xFFFFFFFFFFFFFFFFFFFFFFFFFFFFFFFFFFFFFFFF AND DUP2 MSTORE PUSH1 0x20 ADD TIMESTAMP DUP2 MSTORE PUSH1 0x20 ADD PUSH1 0x0 DUP2 MSTORE POP PUSH1 0x1 PUSH1 0x0 DUP4 DUP2 MSTORE PUSH1 0x20 ADD SWAP1 DUP2 MSTORE PUSH1 0x20 ADD PUSH1 0x0 KECCAK256 PUSH1 0x0 DUP3 ADD MLOAD DUP2 PUSH1 0x0 ADD SSTORE PUSH1 0x20 DUP3 ADD MLOAD DUP2 PUSH1 0x1 ADD PUSH1 0x0 PUSH2 0x100 EXP DUP2 SLOAD DUP2 PUSH20 0xFFFFFFFFFFFFFFFFFFFFFFFFFFFFFFFFFFFFFFFF MUL NOT AND SWAP1 DUP4 PUSH20 0xFFFFFFFFFFFFFFFFFFFFFFFFFFFFFFFFFFFFFFFF AND MUL OR SWAP1 SSTORE POP PUSH1 0x40 DUP3 ADD MLOAD DUP2 PUSH1 0x2 ADD SWAP1 DUP2 PUSH2 0xA1B SWAP2 SWAP1 PUSH2 0x1FB9 JUMP JUMPDEST POP PUSH1 0x60 DUP3 ADD MLOAD DUP2 PUSH1 0x3 ADD SWAP1 DUP2 PUSH2 0xA31 SWAP2 SWAP1 PUSH2 0x1FB9 JUMP JUMPDEST POP PUSH1 0x80 DUP3 ADD MLOAD DUP2 PUSH1 0x4 ADD SSTORE PUSH1 0xA0 DUP3 ADD MLOAD DUP2 PUSH1 0x5 ADD PUSH1 0x0 PUSH2 0x100 EXP DUP2 SLOAD DUP2 PUSH1 0xFF MUL NOT AND SWAP1 DUP4 PUSH1 0x3 DUP2 GT ISZERO PUSH2 0xA67 JUMPI PUSH2 0xA66 PUSH2 0x152E JUMP JUMPDEST JUMPDEST MUL OR SWAP1 SSTORE POP PUSH1 0xC0 DUP3 ADD MLOAD DUP2 PUSH1 0x5 ADD PUSH1 0x1 PUSH2 0x100 EXP DUP2 SLOAD DUP2 PUSH20 0xFFFFFFFFFFFFFFFFFFFFFFFFFFFFFFFFFFFFFFFF MUL NOT AND SWAP1 DUP4 PUSH20 0xFFFFFFFFFFFFFFFFFFFFFFFFFFFFFFFFFFFFFFFF AND MUL OR SWAP1 SSTORE POP PUSH1 0xE0 DUP3 ADD MLOAD DUP2 PUSH1 0x6 ADD SWAP1 DUP2 PUSH2 0xAC8 SWAP2 SWAP1 PUSH2 0x1FB9 JUMP JUMPDEST POP PUSH2 0x100 DUP3 ADD MLOAD DUP2 PUSH1 0x7 ADD PUSH1 0x0 PUSH2 0x100 EXP DUP2 SLOAD DUP2 PUSH20 0xFFFFFFFFFFFFFFFFFFFFFFFFFFFFFFFFFFFFFFFF MUL NOT AND SWAP1 DUP4 PUSH20 0xFFFFFFFFFFFFFFFFFFFFFFFFFFFFFFFFFFFFFFFF AND MUL OR SWAP1 SSTORE POP PUSH2 0x120 DUP3 ADD MLOAD DUP2 PUSH1 0x8 ADD SSTORE PUSH2 0x140 DUP3 ADD MLOAD DUP2 PUSH1 0x9 ADD SSTORE SWAP1 POP POP CALLER PUSH20 0xFFFFFFFFFFFFFFFFFFFFFFFFFFFFFFFFFFFFFFFF AND DUP2 PUSH32 0x6CF53AA7292E664152C2EA948C3B3C95D4B05C36DAEB2626D0293473C4A4A153 DUP6 PUSH1 0x40 MLOAD PUSH2 0xB71 SWAP2 SWAP1 PUSH2 0x186D JUMP JUMPDEST PUSH1 0x40 MLOAD DUP1 SWAP2 SUB SWAP1 LOG3 DUP1 SWAP2 POP POP SWAP6 SWAP5 POP POP POP POP POP JUMP JUMPDEST PUSH1 0x0 PUSH1 0x1 PUSH1 0x0 DUP4 DUP2 MSTORE PUSH1 0x20 ADD SWAP1 DUP2 MSTORE PUSH1 0x20 ADD PUSH1 0x0 KECCAK256 SWAP1 POP PUSH1 0x0 PUSH1 0x3 DUP2 GT ISZERO PUSH2 0xBB1 JUMPI PUSH2 0xBB0 PUSH2 0x152E JUMP JUMPDEST JUMPDEST DUP2 PUSH1 0x5 ADD PUSH1 0x0 SWAP1 SLOAD SWAP1 PUSH2 0x100 EXP SWAP1 DIV PUSH1 0xFF AND PUSH1 0x3 DUP2 GT ISZERO PUSH2 0xBD5 JUMPI PUSH2 0xBD4 PUSH2 0x152E JUMP JUMPDEST JUMPDEST EQ PUSH2 0xC15 JUMPI PUSH1 0x40 MLOAD PUSH32 0x8C379A000000000000000000000000000000000000000000000000000000000 DUP2 MSTORE PUSH1 0x4 ADD PUSH2 0xC0C SWAP1 PUSH2 0x20D7 JUMP JUMPDEST PUSH1 0x40 MLOAD DUP1 SWAP2 SUB SWAP1 REVERT JUMPDEST CALLER PUSH20 0xFFFFFFFFFFFFFFFFFFFFFFFFFFFFFFFFFFFFFFFF AND DUP2 PUSH1 0x1 ADD PUSH1 0x0 SWAP1 SLOAD SWAP1 PUSH2 0x100 EXP SWAP1 DIV PUSH20 0xFFFFFFFFFFFFFFFFFFFFFFFFFFFFFFFFFFFFFFFF AND PUSH20 0xFFFFFFFFFFFFFFFFFFFFFFFFFFFFFFFFFFFFFFFF AND EQ PUSH2 0xCA7 JUMPI PUSH1 0x40 MLOAD PUSH32 0x8C379A000000000000000000000000000000000000000000000000000000000 DUP2 MSTORE PUSH1 0x4 ADD PUSH2 0xC9E SWAP1 PUSH2 0x2143 JUMP JUMPDEST PUSH1 0x40 MLOAD DUP1 SWAP2 SUB SWAP1 REVERT JUMPDEST PUSH1 0x3 DUP2 PUSH1 0x5 ADD PUSH1 0x0 PUSH2 0x100 EXP DUP2 SLOAD DUP2 PUSH1 0xFF MUL NOT AND SWAP1 DUP4 PUSH1 0x3 DUP2 GT ISZERO PUSH2 0xCCF JUMPI PUSH2 0xCCE PUSH2 0x152E JUMP JUMPDEST JUMPDEST MUL OR SWAP1 SSTORE POP PUSH1 0x0 DUP2 PUSH1 0x1 ADD PUSH1 0x0 SWAP1 SLOAD SWAP1 PUSH2 0x100 EXP SWAP1 DIV PUSH20 0xFFFFFFFFFFFFFFFFFFFFFFFFFFFFFFFFFFFFFFFF AND PUSH20 0xFFFFFFFFFFFFFFFFFFFFFFFFFFFFFFFFFFFFFFFF AND DUP3 PUSH1 0x4 ADD SLOAD PUSH1 0x40 MLOAD PUSH2 0xD22 SWAP1 PUSH2 0x2194 JUMP JUMPDEST PUSH1 0x0 PUSH1 0x40 MLOAD DUP1 DUP4 SUB DUP2 DUP6 DUP8 GAS CALL SWAP3 POP POP POP RETURNDATASIZE DUP1 PUSH1 0x0 DUP2 EQ PUSH2 0xD5F JUMPI PUSH1 0x40 MLOAD SWAP2 POP PUSH1 0x1F NOT PUSH1 0x3F RETURNDATASIZE ADD AND DUP3 ADD PUSH1 0x40 MSTORE RETURNDATASIZE DUP3 MSTORE RETURNDATASIZE PUSH1 0x0 PUSH1 0x20 DUP5 ADD RETURNDATACOPY PUSH2 0xD64 JUMP JUMPDEST PUSH1 0x60 SWAP2 POP JUMPDEST POP POP SWAP1 POP DUP1 PUSH2 0xDA8 JUMPI PUSH1 0x40 MLOAD PUSH32 0x8C379A000000000000000000000000000000000000000000000000000000000 DUP2 MSTORE PUSH1 0x4 ADD PUSH2 0xD9F SWAP1 PUSH2 0x21F5 JUMP JUMPDEST PUSH1 0x40 MLOAD DUP1 SWAP2 SUB SWAP1 REVERT JUMPDEST DUP3 PUSH32 0xC6EACC3AA5B2AA77B5A826B832A804CA0B71830EC74F9AA57A15EDD978C31ED6 PUSH1 0x40 MLOAD PUSH1 0x40 MLOAD DUP1 SWAP2 SUB SWAP1 LOG2 POP POP POP JUMP JUMPDEST PUSH1 0x1 PUSH1 0x20 MSTORE DUP1 PUSH1 0x0 MSTORE PUSH1 0x40 PUSH1 0x0 KECCAK256 PUSH1 0x0 SWAP2 POP SWAP1 POP DUP1 PUSH1 0x0 ADD SLOAD SWAP1 DUP1 PUSH1 0x1 ADD PUSH1 0x0 SWAP1 SLOAD SWAP1 PUSH2 0x100 EXP SWAP1 DIV PUSH20 0xFFFFFFFFFFFFFFFFFFFFFFFFFFFFFFFFFFFFFFFF AND SWAP1 DUP1 PUSH1 0x2 ADD DUP1 SLOAD PUSH2 0xE29 SWAP1 PUSH2 0x19DF JUMP JUMPDEST DUP1 PUSH1 0x1F ADD PUSH1 0x20 DUP1 SWAP2 DIV MUL PUSH1 0x20 ADD PUSH1 0x40 MLOAD SWAP1 DUP2 ADD PUSH1 0x40 MSTORE DUP1 SWAP3 SWAP2 SWAP1 DUP2 DUP2 MSTORE PUSH1 0x20 ADD DUP3 DUP1 SLOAD PUSH2 0xE55 SWAP1 PUSH2 0x19DF JUMP JUMPDEST DUP1 ISZERO PUSH2 0xEA2 JUMPI DUP1 PUSH1 0x1F LT PUSH2 0xE77 JUMPI PUSH2 0x100 DUP1 DUP4 SLOAD DIV MUL DUP4 MSTORE SWAP2 PUSH1 0x20 ADD SWAP2 PUSH2 0xEA2 JUMP JUMPDEST DUP3 ADD SWAP2 SWAP1 PUSH1 0x0 MSTORE PUSH1 0x20 PUSH1 0x0 KECCAK256 SWAP1 JUMPDEST DUP2 SLOAD DUP2 MSTORE SWAP1 PUSH1 0x1 ADD SWAP1 PUSH1 0x20 ADD DUP1 DUP4 GT PUSH2 0xE85 JUMPI DUP3 SWAP1 SUB PUSH1 0x1F AND DUP3 ADD SWAP2 JUMPDEST POP POP POP POP POP SWAP1 DUP1 PUSH1 0x3 ADD DUP1 SLOAD PUSH2 0xEB7 SWAP1 PUSH2 0x19DF JUMP JUMPDEST DUP1 PUSH1 0x1F ADD PUSH1 0x20 DUP1 SWAP2 DIV MUL PUSH1 0x20 ADD PUSH1 0x40 MLOAD SWAP1 DUP2 ADD PUSH1 0x40 MSTORE DUP1 SWAP3 SWAP2 SWAP1 DUP2 DUP2 MSTORE PUSH1 0x20 ADD DUP3 DUP1 SLOAD PUSH2 0xEE3 SWAP1 PUSH2 0x19DF JUMP JUMPDEST DUP1 ISZERO PUSH2 0xF30 JUMPI DUP1 PUSH1 0x1F LT PUSH2 0xF05 JUMPI PUSH2 0x100 DUP1 DUP4 SLOAD DIV MUL DUP4 MSTORE SWAP2 PUSH1 0x20 ADD SWAP2 PUSH2 0xF30 JUMP JUMPDEST DUP3 ADD SWAP2 SWAP1 PUSH1 0x0 MSTORE PUSH1 0x20 PUSH1 0x0 KECCAK256 SWAP1 JUMPDEST DUP2 SLOAD DUP2 MSTORE SWAP1 PUSH1 0x1 ADD SWAP1 PUSH1 0x20 ADD DUP1 DUP4 GT PUSH2 0xF13 JUMPI DUP3 SWAP1 SUB PUSH1 0x1F AND DUP3 ADD SWAP2 JUMPDEST POP POP POP POP POP SWAP1 DUP1 PUSH1 0x4 ADD SLOAD SWAP1 DUP1 PUSH1 0x5 ADD PUSH1 0x0 SWAP1 SLOAD SWAP1 PUSH2 0x100 EXP SWAP1 DIV PUSH1 0xFF AND SWAP1 DUP1 PUSH1 0x5 ADD PUSH1 0x1 SWAP1 SLOAD SWAP1 PUSH2 0x100 EXP SWAP1 DIV PUSH20 0xFFFFFFFFFFFFFFFFFFFFFFFFFFFFFFFFFFFFFFFF AND SWAP1 DUP1 PUSH1 0x6 ADD DUP1 SLOAD PUSH2 0xF84 SWAP1 PUSH2 0x19DF JUMP JUMPDEST DUP1 PUSH1 0x1F ADD PUSH1 0x20 DUP1 SWAP2 DIV MUL PUSH1 0x20 ADD PUSH1 0x40 MLOAD SWAP1 DUP2 ADD PUSH1 0x40 MSTORE DUP1 SWAP3 SWAP2 SWAP1 DUP2 DUP2 MSTORE PUSH1 0x20 ADD DUP3 DUP1 SLOAD PUSH2 0xFB0 SWAP1 PUSH2 0x19DF JUMP JUMPDEST DUP1 ISZERO PUSH2 0xFFD JUMPI DUP1 PUSH1 0x1F LT PUSH2 0xFD2 JUMPI PUSH2 0x100 DUP1 DUP4 SLOAD DIV MUL DUP4 MSTORE SWAP2 PUSH1 0x20 ADD SWAP2 PUSH2 0xFFD JUMP JUMPDEST DUP3 ADD SWAP2 SWAP1 PUSH1 0x0 MSTORE PUSH1 0x20 PUSH1 0x0 KECCAK256 SWAP1 JUMPDEST DUP2 SLOAD DUP2 MSTORE SWAP1 PUSH1 0x1 ADD SWAP1 PUSH1 0x20 ADD DUP1 DUP4 GT PUSH2 0xFE0 JUMPI DUP3 SWAP1 SUB PUSH1 0x1F AND DUP3 ADD SWAP2 JUMPDEST POP POP POP POP POP SWAP1 DUP1 PUSH1 0x7 ADD PUSH1 0x0 SWAP1 SLOAD SWAP1 PUSH2 0x100 EXP SWAP1 DIV PUSH20 0xFFFFFFFFFFFFFFFFFFFFFFFFFFFFFFFFFFFFFFFF AND SWAP1 DUP1 PUSH1 0x8 ADD SLOAD SWAP1 DUP1 PUSH1 0x9 ADD SLOAD SWAP1 POP DUP12 JUMP JUMPDEST PUSH1 0x0 PUSH1 0x1 PUSH1 0x0 DUP4 DUP2 MSTORE PUSH1 0x20 ADD SWAP1 DUP2 MSTORE PUSH1 0x20 ADD PUSH1 0x0 KECCAK256 SWAP1 POP PUSH1 0x1 PUSH1 0x3 DUP2 GT ISZERO PUSH2 0x1064 JUMPI PUSH2 0x1063 PUSH2 0x152E JUMP JUMPDEST JUMPDEST DUP2 PUSH1 0x5 ADD PUSH1 0x0 SWAP1 SLOAD SWAP1 PUSH2 0x100 EXP SWAP1 DIV PUSH1 0xFF AND PUSH1 0x3 DUP2 GT ISZERO PUSH2 0x1088 JUMPI PUSH2 0x1087 PUSH2 0x152E JUMP JUMPDEST JUMPDEST EQ PUSH2 0x10C8 JUMPI PUSH1 0x40 MLOAD PUSH32 0x8C379A000000000000000000000000000000000000000000000000000000000 DUP2 MSTORE PUSH1 0x4 ADD PUSH2 0x10BF SWAP1 PUSH2 0x2261 JUMP JUMPDEST PUSH1 0x40 MLOAD DUP1 SWAP2 SUB SWAP1 REVERT JUMPDEST CALLER PUSH20 0xFFFFFFFFFFFFFFFFFFFFFFFFFFFFFFFFFFFFFFFF AND DUP2 PUSH1 0x1 ADD PUSH1 0x0 SWAP1 SLOAD SWAP1 PUSH2 0x100 EXP SWAP1 DIV PUSH20 0xFFFFFFFFFFFFFFFFFFFFFFFFFFFFFFFFFFFFFFFF AND PUSH20 0xFFFFFFFFFFFFFFFFFFFFFFFFFFFFFFFFFFFFFFFF AND EQ PUSH2 0x115A JUMPI PUSH1 0x40 MLOAD PUSH32 0x8C379A000000000000000000000000000000000000000000000000000000000 DUP2 MSTORE PUSH1 0x4 ADD PUSH2 0x1151 SWAP1 PUSH2 0x22F3 JUMP JUMPDEST PUSH1 0x40 MLOAD DUP1 SWAP2 SUB SWAP1 REVERT JUMPDEST PUSH1 0x2 DUP2 PUSH1 0x5 ADD PUSH1 0x0 PUSH2 0x100 EXP DUP2 SLOAD DUP2 PUSH1 0xFF MUL NOT AND SWAP1 DUP4 PUSH1 0x3 DUP2 GT ISZERO PUSH2 0x1182 JUMPI PUSH2 0x1181 PUSH2 0x152E JUMP JUMPDEST JUMPDEST MUL OR SWAP1 SSTORE POP TIMESTAMP DUP2 PUSH1 0x9 ADD DUP2 SWAP1 SSTORE POP PUSH1 0x0 DUP1 PUSH20 0xFFFFFFFFFFFFFFFFFFFFFFFFFFFFFFFFFFFFFFFF AND DUP3 PUSH1 0x7 ADD PUSH1 0x0 SWAP1 SLOAD SWAP1 PUSH2 0x100 EXP SWAP1 DIV PUSH20 0xFFFFFFFFFFFFFFFFFFFFFFFFFFFFFFFFFFFFFFFF AND PUSH20 0xFFFFFFFFFFFFFFFFFFFFFFFFFFFFFFFFFFFFFFFF AND SUB PUSH2 0x1213 JUMPI DUP2 PUSH1 0x5 ADD PUSH1 0x1 SWAP1 SLOAD SWAP1 PUSH2 0x100 EXP SWAP1 DIV PUSH20 0xFFFFFFFFFFFFFFFFFFFFFFFFFFFFFFFFFFFFFFFF AND PUSH2 0x1239 JUMP JUMPDEST DUP2 PUSH1 0x7 ADD PUSH1 0x0 SWAP1 SLOAD SWAP1 PUSH2 0x100 EXP SWAP1 DIV PUSH20 0xFFFFFFFFFFFFFFFFFFFFFFFFFFFFFFFFFFFFFFFF AND JUMPDEST SWAP1 POP PUSH1 0x0 DUP2 PUSH20 0xFFFFFFFFFFFFFFFFFFFFFFFFFFFFFFFFFFFFFFFF AND DUP4 PUSH1 0x4 ADD SLOAD PUSH1 0x40 MLOAD PUSH2 0x1265 SWAP1 PUSH2 0x2194 JUMP JUMPDEST PUSH1 0x0 PUSH1 0x40 MLOAD DUP1 DUP4 SUB DUP2 DUP6 DUP8 GAS CALL SWAP3 POP POP POP RETURNDATASIZE DUP1 PUSH1 0x0 DUP2 EQ PUSH2 0x12A2 JUMPI PUSH1 0x40 MLOAD SWAP2 POP PUSH1 0x1F NOT PUSH1 0x3F RETURNDATASIZE ADD AND DUP3 ADD PUSH1 0x40 MSTORE RETURNDATASIZE DUP3 MSTORE RETURNDATASIZE PUSH1 0x0 PUSH1 0x20 DUP5 ADD RETURNDATACOPY PUSH2 0x12A7 JUMP JUMPDEST PUSH1 0x60 SWAP2 POP JUMPDEST POP POP SWAP1 POP DUP1 PUSH2 0x12EB JUMPI PUSH1 0x40 MLOAD PUSH32 0x8C379A000000000000000000000000000000000000000000000000000000000 DUP2 MSTORE PUSH1 0x4 ADD PUSH2 0x12E2 SWAP1 PUSH2 0x235F JUMP JUMPDEST PUSH1 0x40 MLOAD DUP1 SWAP2 SUB SWAP1 REVERT JUMPDEST DUP4 PUSH32 0xF9C405F91E34DCD1DC136CF6992ADA4A8C24A2803E0FAB7546364C64DAC7BA2B DUP5 PUSH1 0x4 ADD SLOAD PUSH1 0x40 MLOAD PUSH2 0x131F SWAP2 SWAP1 PUSH2 0x186D JUMP JUMPDEST PUSH1 0x40 MLOAD DUP1 SWAP2 SUB SWAP1 LOG2 POP POP POP POP JUMP JUMPDEST PUSH1 0x0 SLOAD DUP2 JUMP JUMPDEST PUSH1 0x40 MLOAD DUP1 PUSH2 0x160 ADD PUSH1 0x40 MSTORE DUP1 PUSH1 0x0 DUP2 MSTORE PUSH1 0x20 ADD PUSH1 0x0 PUSH20 0xFFFFFFFFFFFFFFFFFFFFFFFFFFFFFFFFFFFFFFFF AND DUP2 MSTORE PUSH1 0x20 ADD PUSH1 0x60 DUP2 MSTORE PUSH1 0x20 ADD PUSH1 0x60 DUP2 MSTORE PUSH1 0x20 ADD PUSH1 0x0 DUP2 MSTORE PUSH1 0x20 ADD PUSH1 0x0 PUSH1 0x3 DUP2 GT ISZERO PUSH2 0x138C JUMPI PUSH2 0x138B PUSH2 0x152E JUMP JUMPDEST JUMPDEST DUP2 MSTORE PUSH1 0x20 ADD PUSH1 0x0 PUSH20 0xFFFFFFFFFFFFFFFFFFFFFFFFFFFFFFFFFFFFFFFF AND DUP2 MSTORE PUSH1 0x20 ADD PUSH1 0x60 DUP2 MSTORE PUSH1 0x20 ADD PUSH1 0x0 PUSH20 0xFFFFFFFFFFFFFFFFFFFFFFFFFFFFFFFFFFFFFFFF AND DUP2 MSTORE PUSH1 0x20 ADD PUSH1 0x0 DUP2 MSTORE PUSH1 0x20 ADD PUSH1 0x0 DUP2 MSTORE POP SWAP1 JUMP JUMPDEST PUSH1 0x0 DUP1 REVERT JUMPDEST PUSH1 0x0 DUP1 REVERT JUMPDEST PUSH1 0x0 DUP2 SWAP1 POP SWAP2 SWAP1 POP JUMP JUMPDEST PUSH2 0x13FE DUP2 PUSH2 0x13EB JUMP JUMPDEST DUP2 EQ PUSH2 0x1409 JUMPI PUSH1 0x0 DUP1 REVERT JUMPDEST POP JUMP JUMPDEST PUSH1 0x0 DUP2 CALLDATALOAD SWAP1 POP PUSH2 0x141B DUP2 PUSH2 0x13F5 JUMP JUMPDEST SWAP3 SWAP2 POP POP JUMP JUMPDEST PUSH1 0x0 PUSH1 0x20 DUP3 DUP5 SUB SLT ISZERO PUSH2 0x1437 JUMPI PUSH2 0x1436 PUSH2 0x13E1 JUMP JUMPDEST JUMPDEST PUSH1 0x0 PUSH2 0x1445 DUP5 DUP3 DUP6 ADD PUSH2 0x140C JUMP JUMPDEST SWAP2 POP POP SWAP3 SWAP2 POP POP JUMP JUMPDEST PUSH2 0x1457 DUP2 PUSH2 0x13EB JUMP JUMPDEST DUP3 MSTORE POP POP JUMP JUMPDEST PUSH1 0x0 PUSH20 0xFFFFFFFFFFFFFFFFFFFFFFFFFFFFFFFFFFFFFFFF DUP3 AND SWAP1 POP SWAP2 SWAP1 POP JUMP JUMPDEST PUSH1 0x0 PUSH2 0x1488 DUP3 PUSH2 0x145D JUMP JUMPDEST SWAP1 POP SWAP2 SWAP1 POP JUMP JUMPDEST PUSH2 0x1498 DUP2 PUSH2 0x147D JUMP JUMPDEST DUP3 MSTORE POP POP JUMP JUMPDEST PUSH1 0x0 DUP2 MLOAD SWAP1 POP SWAP2 SWAP1 POP JUMP JUMPDEST PUSH1 0x0 DUP3 DUP3 MSTORE PUSH1 0x20 DUP3 ADD SWAP1 POP SWAP3 SWAP2 POP POP JUMP JUMPDEST PUSH1 0x0 JUMPDEST DUP4 DUP2 LT ISZERO PUSH2 0x14D8 JUMPI DUP1 DUP3 ADD MLOAD DUP2 DUP5 ADD MSTORE PUSH1 0x20 DUP2 ADD SWAP1 POP PUSH2 0x14BD JUMP JUMPDEST PUSH1 0x0 DUP5 DUP5 ADD MSTORE POP POP POP POP JUMP JUMPDEST PUSH1 0x0 PUSH1 0x1F NOT PUSH1 0x1F DUP4 ADD AND SWAP1 POP SWAP2 SWAP1 POP JUMP JUMPDEST PUSH1 0x0 PUSH2 0x1500 DUP3 PUSH2 0x149E JUMP JUMPDEST PUSH2 0x150A DUP2 DUP6 PUSH2 0x14A9 JUMP JUMPDEST SWAP4 POP PUSH2 0x151A DUP2 DUP6 PUSH1 0x20 DUP7 ADD PUSH2 0x14BA JUMP JUMPDEST PUSH2 0x1523 DUP2 PUSH2 0x14E4 JUMP JUMPDEST DUP5 ADD SWAP2 POP POP SWAP3 SWAP2 POP POP JUMP JUMPDEST PUSH32 0x4E487B7100000000000000000000000000000000000000000000000000000000 PUSH1 0x0 MSTORE PUSH1 0x21 PUSH1 0x4 MSTORE PUSH1 0x24 PUSH1 0x0 REVERT JUMPDEST PUSH1 0x4 DUP2 LT PUSH2 0x156E JUMPI PUSH2 0x156D PUSH2 0x152E JUMP JUMPDEST JUMPDEST POP JUMP JUMPDEST PUSH1 0x0 DUP2 SWAP1 POP PUSH2 0x157F DUP3 PUSH2 0x155D JUMP JUMPDEST SWAP2 SWAP1 POP JUMP JUMPDEST PUSH1 0x0 PUSH2 0x158F DUP3 PUSH2 0x1571 JUMP JUMPDEST SWAP1 POP SWAP2 SWAP1 POP JUMP JUMPDEST PUSH2 0x159F DUP2 PUSH2 0x1584 JUMP JUMPDEST DUP3 MSTORE POP POP JUMP JUMPDEST PUSH1 0x0 PUSH2 0x160 DUP4 ADD PUSH1 0x0 DUP4 ADD MLOAD PUSH2 0x15BE PUSH1 0x0 DUP7 ADD DUP3 PUSH2 0x144E JUMP JUMPDEST POP PUSH1 0x20 DUP4 ADD MLOAD PUSH2 0x15D1 PUSH1 0x20 DUP7 ADD DUP3 PUSH2 0x148F JUMP JUMPDEST POP PUSH1 0x40 DUP4 ADD MLOAD DUP5 DUP3 SUB PUSH1 0x40 DUP7 ADD MSTORE PUSH2 0x15E9 DUP3 DUP3 PUSH2 0x14F5 JUMP JUMPDEST SWAP2 POP POP PUSH1 0x60 DUP4 ADD MLOAD DUP5 DUP3 SUB PUSH1 0x60 DUP7 ADD MSTORE PUSH2 0x1603 DUP3 DUP3 PUSH2 0x14F5 JUMP JUMPDEST SWAP2 POP POP PUSH1 0x80 DUP4 ADD MLOAD PUSH2 0x1618 PUSH1 0x80 DUP7 ADD DUP3 PUSH2 0x144E JUMP JUMPDEST POP PUSH1 0xA0 DUP4 ADD MLOAD PUSH2 0x162B PUSH1 0xA0 DUP7 ADD DUP3 PUSH2 0x1596 JUMP JUMPDEST POP PUSH1 0xC0 DUP4 ADD MLOAD PUSH2 0x163E PUSH1 0xC0 DUP7 ADD DUP3 PUSH2 0x148F JUMP JUMPDEST POP PUSH1 0xE0 DUP4 ADD MLOAD DUP5 DUP3 SUB PUSH1 0xE0 DUP7 ADD MSTORE PUSH2 0x1656 DUP3 DUP3 PUSH2 0x14F5 JUMP JUMPDEST SWAP2 POP POP PUSH2 0x100 DUP4 ADD MLOAD PUSH2 0x166D PUSH2 0x100 DUP7 ADD DUP3 PUSH2 0x148F JUMP JUMPDEST POP PUSH2 0x120 DUP4 ADD MLOAD PUSH2 0x1682 PUSH2 0x120 DUP7 ADD DUP3 PUSH2 0x144E JUMP JUMPDEST POP PUSH2 0x140 DUP4 ADD MLOAD PUSH2 0x1697 PUSH2 0x140 DUP7 ADD DUP3 PUSH2 0x144E JUMP JUMPDEST POP DUP1 SWAP2 POP POP SWAP3 SWAP2 POP POP JUMP JUMPDEST PUSH1 0x0 PUSH1 0x20 DUP3 ADD SWAP1 POP DUP2 DUP2 SUB PUSH1 0x0 DUP4 ADD MSTORE PUSH2 0x16BC DUP2 DUP5 PUSH2 0x15A5 JUMP JUMPDEST SWAP1 POP SWAP3 SWAP2 POP POP JUMP JUMPDEST PUSH1 0x0 DUP1 REVERT JUMPDEST PUSH1 0x0 DUP1 REVERT JUMPDEST PUSH1 0x0 DUP1 REVERT JUMPDEST PUSH1 0x0 DUP1 DUP4 PUSH1 0x1F DUP5 ADD SLT PUSH2 0x16E9 JUMPI PUSH2 0x16E8 PUSH2 0x16C4 JUMP JUMPDEST JUMPDEST DUP3 CALLDATALOAD SWAP1 POP PUSH8 0xFFFFFFFFFFFFFFFF DUP2 GT ISZERO PUSH2 0x1706 JUMPI PUSH2 0x1705 PUSH2 0x16C9 JUMP JUMPDEST JUMPDEST PUSH1 0x20 DUP4 ADD SWAP2 POP DUP4 PUSH1 0x1 DUP3 MUL DUP4 ADD GT ISZERO PUSH2 0x1722 JUMPI PUSH2 0x1721 PUSH2 0x16CE JUMP JUMPDEST JUMPDEST SWAP3 POP SWAP3 SWAP1 POP JUMP JUMPDEST PUSH2 0x1732 DUP2 PUSH2 0x147D JUMP JUMPDEST DUP2 EQ PUSH2 0x173D JUMPI PUSH1 0x0 DUP1 REVERT JUMPDEST POP JUMP JUMPDEST PUSH1 0x0 DUP2 CALLDATALOAD SWAP1 POP PUSH2 0x174F DUP2 PUSH2 0x1729 JUMP JUMPDEST SWAP3 SWAP2 POP POP JUMP JUMPDEST PUSH1 0x0 DUP1 PUSH1 0x0 DUP1 PUSH1 0x60 DUP6 DUP8 SUB SLT ISZERO PUSH2 0x176F JUMPI PUSH2 0x176E PUSH2 0x13E1 JUMP JUMPDEST JUMPDEST PUSH1 0x0 PUSH2 0x177D DUP8 DUP3 DUP9 ADD PUSH2 0x140C JUMP JUMPDEST SWAP5 POP POP PUSH1 0x20 DUP6 ADD CALLDATALOAD PUSH8 0xFFFFFFFFFFFFFFFF DUP2 GT ISZERO PUSH2 0x179E JUMPI PUSH2 0x179D PUSH2 0x13E6 JUMP JUMPDEST JUMPDEST PUSH2 0x17AA DUP8 DUP3 DUP9 ADD PUSH2 0x16D3 JUMP JUMPDEST SWAP4 POP SWAP4 POP POP PUSH1 0x40 PUSH2 0x17BD DUP8 DUP3 DUP9 ADD PUSH2 0x1740 JUMP JUMPDEST SWAP2 POP POP SWAP3 SWAP6 SWAP2 SWAP5 POP SWAP3 POP JUMP JUMPDEST PUSH1 0x0 DUP1 PUSH1 0x0 DUP1 PUSH1 0x0 PUSH1 0x60 DUP7 DUP9 SUB SLT ISZERO PUSH2 0x17E5 JUMPI PUSH2 0x17E4 PUSH2 0x13E1 JUMP JUMPDEST JUMPDEST PUSH1 0x0 DUP7 ADD CALLDATALOAD PUSH8 0xFFFFFFFFFFFFFFFF DUP2 GT ISZERO PUSH2 0x1803 JUMPI PUSH2 0x1802 PUSH2 0x13E6 JUMP JUMPDEST JUMPDEST PUSH2 0x180F DUP9 DUP3 DUP10 ADD PUSH2 0x16D3 JUMP JUMPDEST SWAP6 POP SWAP6 POP POP PUSH1 0x20 DUP7 ADD CALLDATALOAD PUSH8 0xFFFFFFFFFFFFFFFF DUP2 GT ISZERO PUSH2 0x1832 JUMPI PUSH2 0x1831 PUSH2 0x13E6 JUMP JUMPDEST JUMPDEST PUSH2 0x183E DUP9 DUP3 DUP10 ADD PUSH2 0x16D3 JUMP JUMPDEST SWAP4 POP SWAP4 POP POP PUSH1 0x40 PUSH2 0x1851 DUP9 DUP3 DUP10 ADD PUSH2 0x140C JUMP JUMPDEST SWAP2 POP POP SWAP3 SWAP6 POP SWAP3 SWAP6 SWAP1 SWAP4 POP JUMP JUMPDEST PUSH2 0x1867 DUP2 PUSH2 0x13EB JUMP JUMPDEST DUP3 MSTORE POP POP JUMP JUMPDEST PUSH1 0x0 PUSH1 0x20 DUP3 ADD SWAP1 POP PUSH2 0x1882 PUSH1 0x0 DUP4 ADD DUP5 PUSH2 0x185E JUMP JUMPDEST SWAP3 SWAP2 POP POP JUMP JUMPDEST PUSH2 0x1891 DUP2 PUSH2 0x147D JUMP JUMPDEST DUP3 MSTORE POP POP JUMP JUMPDEST PUSH1 0x0 DUP3 DUP3 MSTORE PUSH1 0x20 DUP3 ADD SWAP1 POP SWAP3 SWAP2 POP POP JUMP JUMPDEST PUSH1 0x0 PUSH2 0x18B3 DUP3 PUSH2 0x149E JUMP JUMPDEST PUSH2 0x18BD DUP2 DUP6 PUSH2 0x1897 JUMP JUMPDEST SWAP4 POP PUSH2 0x18CD DUP2 DUP6 PUSH1 0x20 DUP7 ADD PUSH2 0x14BA JUMP JUMPDEST PUSH2 0x18D6 DUP2 PUSH2 0x14E4 JUMP JUMPDEST DUP5 ADD SWAP2 POP POP SWAP3 SWAP2 POP POP JUMP JUMPDEST PUSH2 0x18EA DUP2 PUSH2 0x1584 JUMP JUMPDEST DUP3 MSTORE POP POP JUMP JUMPDEST PUSH1 0x0 PUSH2 0x160 DUP3 ADD SWAP1 POP PUSH2 0x1906 PUSH1 0x0 DUP4 ADD DUP15 PUSH2 0x185E JUMP JUMPDEST PUSH2 0x1913 PUSH1 0x20 DUP4 ADD DUP14 PUSH2 0x1888 JUMP JUMPDEST DUP2 DUP2 SUB PUSH1 0x40 DUP4 ADD MSTORE PUSH2 0x1925 DUP2 DUP13 PUSH2 0x18A8 JUMP JUMPDEST SWAP1 POP DUP2 DUP2 SUB PUSH1 0x60 DUP4 ADD MSTORE PUSH2 0x1939 DUP2 DUP12 PUSH2 0x18A8 JUMP JUMPDEST SWAP1 POP PUSH2 0x1948 PUSH1 0x80 DUP4 ADD DUP11 PUSH2 0x185E JUMP JUMPDEST PUSH2 0x1955 PUSH1 0xA0 DUP4 ADD DUP10 PUSH2 0x18E1 JUMP JUMPDEST PUSH2 0x1962 PUSH1 0xC0 DUP4 ADD DUP9 PUSH2 0x1888 JUMP JUMPDEST DUP2 DUP2 SUB PUSH1 0xE0 DUP4 ADD MSTORE PUSH2 0x1974 DUP2 DUP8 PUSH2 0x18A8 JUMP JUMPDEST SWAP1 POP PUSH2 0x1984 PUSH2 0x100 DUP4 ADD DUP7 PUSH2 0x1888 JUMP JUMPDEST PUSH2 0x1992 PUSH2 0x120 DUP4 ADD DUP6 PUSH2 0x185E JUMP JUMPDEST PUSH2 0x19A0 PUSH2 0x140 DUP4 ADD DUP5 PUSH2 0x185E JUMP JUMPDEST SWAP13 SWAP12 POP POP POP POP POP POP POP POP POP POP POP POP JUMP JUMPDEST PUSH32 0x4E487B7100000000000000000000000000000000000000000000000000000000 PUSH1 0x0 MSTORE PUSH1 0x22 PUSH1 0x4 MSTORE PUSH1 0x24 PUSH1 0x0 REVERT JUMPDEST PUSH1 0x0 PUSH1 0x2 DUP3 DIV SWAP1 POP PUSH1 0x1 DUP3 AND DUP1 PUSH2 0x19F7 JUMPI PUSH1 0x7F DUP3 AND SWAP2 POP JUMPDEST PUSH1 0x20 DUP3 LT DUP2 SUB PUSH2 0x1A0A JUMPI PUSH2 0x1A09 PUSH2 0x19B0 JUMP JUMPDEST JUMPDEST POP SWAP2 SWAP1 POP JUMP JUMPDEST PUSH32 0x5461736B206E6F74206F70656E00000000000000000000000000000000000000 PUSH1 0x0 DUP3 ADD MSTORE POP JUMP JUMPDEST PUSH1 0x0 PUSH2 0x1A46 PUSH1 0xD DUP4 PUSH2 0x1897 JUMP JUMPDEST SWAP2 POP PUSH2 0x1A51 DUP3 PUSH2 0x1A10 JUMP JUMPDEST PUSH1 0x20 DUP3 ADD SWAP1 POP SWAP2 SWAP1 POP JUMP JUMPDEST PUSH1 0x0 PUSH1 0x20 DUP3 ADD SWAP1 POP DUP2 DUP2 SUB PUSH1 0x0 DUP4 ADD MSTORE PUSH2 0x1A75 DUP2 PUSH2 0x1A39 JUMP JUMPDEST SWAP1 POP SWAP2 SWAP1 POP JUMP JUMPDEST PUSH32 0x43616E6E6F7420616363657074206F776E207461736B00000000000000000000 PUSH1 0x0 DUP3 ADD MSTORE POP JUMP JUMPDEST PUSH1 0x0 PUSH2 0x1AB2 PUSH1 0x16 DUP4 PUSH2 0x1897 JUMP JUMPDEST SWAP2 POP PUSH2 0x1ABD DUP3 PUSH2 0x1A7C JUMP JUMPDEST PUSH1 0x20 DUP3 ADD SWAP1 POP SWAP2 SWAP1 POP JUMP JUMPDEST PUSH1 0x0 PUSH1 0x20 DUP3 ADD SWAP1 POP DUP2 DUP2 SUB PUSH1 0x0 DUP4 ADD MSTORE PUSH2 0x1AE1 DUP2 PUSH2 0x1AA5 JUMP JUMPDEST SWAP1 POP SWAP2 SWAP1 POP JUMP JUMPDEST PUSH32 0x52657761726420726563697069656E7420726571756972656400000000000000 PUSH1 0x0 DUP3 ADD MSTORE POP JUMP JUMPDEST PUSH1 0x0 PUSH2 0x1B1E PUSH1 0x19 DUP4 PUSH2 0x1897 JUMP JUMPDEST SWAP2 POP PUSH2 0x1B29 DUP3 PUSH2 0x1AE8 JUMP JUMPDEST PUSH1 0x20 DUP3 ADD SWAP1 POP SWAP2 SWAP1 POP JUMP JUMPDEST PUSH1 0x0 PUSH1 0x20 DUP3 ADD SWAP1 POP DUP2 DUP2 SUB PUSH1 0x0 DUP4 ADD MSTORE PUSH2 0x1B4D DUP2 PUSH2 0x1B11 JUMP JUMPDEST SWAP1 POP SWAP2 SWAP1 POP JUMP JUMPDEST PUSH1 0x0 DUP3 SWAP1 POP SWAP3 SWAP2 POP POP JUMP JUMPDEST PUSH32 0x4E487B7100000000000000000000000000000000000000000000000000000000 PUSH1 0x0 MSTORE PUSH1 0x41 PUSH1 0x4 MSTORE PUSH1 0x24 PUSH1 0x0 REVERT JUMPDEST PUSH1 0x0 DUP2 SWAP1 POP DUP2 PUSH1 0x0 MSTORE PUSH1 0x20 PUSH1 0x0 KECCAK256 SWAP1 POP SWAP2 SWAP1 POP JUMP JUMPDEST PUSH1 0x0 PUSH1 0x20 PUSH1 0x1F DUP4 ADD DIV SWAP1 POP SWAP2 SWAP1 POP JUMP JUMPDEST PUSH1 0x0 DUP3 DUP3 SHL SWAP1 POP SWAP3 SWAP2 POP POP JUMP JUMPDEST PUSH1 0x0 PUSH1 0x8 DUP4 MUL PUSH2 0x1BF0 PUSH32 0xFFFFFFFFFFFFFFFFFFFFFFFFFFFFFFFFFFFFFFFFFFFFFFFFFFFFFFFFFFFFFFFF DUP3 PUSH2 0x1BB3 JUMP JUMPDEST PUSH2 0x1BFA DUP7 DUP4 PUSH2 0x1BB3 JUMP JUMPDEST SWAP6 POP DUP1 NOT DUP5 AND SWAP4 POP DUP1 DUP7 AND DUP5 OR SWAP3 POP POP POP SWAP4 SWAP3 POP POP POP JUMP JUMPDEST PUSH1 0x0 DUP2 SWAP1 POP SWAP2 SWAP1 POP JUMP JUMPDEST PUSH1 0x0 PUSH2 0x1C37 PUSH2 0x1C32 PUSH2 0x1C2D DUP5 PUSH2 0x13EB JUMP JUMPDEST PUSH2 0x1C12 JUMP JUMPDEST PUSH2 0x13EB JUMP JUMPDEST SWAP1 POP SWAP2 SWAP1 POP JUMP JUMPDEST PUSH1 0x0 DUP2 SWAP1 POP SWAP2 SWAP1 POP JUMP JUMPDEST PUSH2 0x1C51 DUP4 PUSH2 0x1C1C JUMP JUMPDEST PUSH2 0x1C65 PUSH2 0x1C5D DUP3 PUSH2 0x1C3E JUMP JUMPDEST DUP5 DUP5 SLOAD PUSH2 0x1BC0 JUMP JUMPDEST DUP3 SSTORE POP POP POP POP JUMP JUMPDEST PUSH1 0x0 SWAP1 JUMP JUMPDEST PUSH2 0x1C7A PUSH2 0x1C6D JUMP JUMPDEST PUSH2 0x1C85 DUP2 DUP5 DUP5 PUSH2 0x1C48 JUMP JUMPDEST POP POP POP JUMP JUMPDEST JUMPDEST DUP2 DUP2 LT ISZERO PUSH2 0x1CA9 JUMPI PUSH2 0x1C9E PUSH1 0x0 DUP3 PUSH2 0x1C72 JUMP JUMPDEST PUSH1 0x1 DUP2 ADD SWAP1 POP PUSH2 0x1C8B JUMP JUMPDEST POP POP JUMP JUMPDEST PUSH1 0x1F DUP3 GT ISZERO PUSH2 0x1CEE JUMPI PUSH2 0x1CBF DUP2 PUSH2 0x1B8E JUMP JUMPDEST PUSH2 0x1CC8 DUP5 PUSH2 0x1BA3 JUMP JUMPDEST DUP2 ADD PUSH1 0x20 DUP6 LT ISZERO PUSH2 0x1CD7 JUMPI DUP2 SWAP1 POP JUMPDEST PUSH2 0x1CEB PUSH2 0x1CE3 DUP6 PUSH2 0x1BA3 JUMP JUMPDEST DUP4 ADD DUP3 PUSH2 0x1C8A JUMP JUMPDEST POP POP JUMPDEST POP POP POP JUMP JUMPDEST PUSH1 0x0 DUP3 DUP3 SHR SWAP1 POP SWAP3 SWAP2 POP POP JUMP JUMPDEST PUSH1 0x0 PUSH2 0x1D11 PUSH1 0x0 NOT DUP5 PUSH1 0x8 MUL PUSH2 0x1CF3 JUMP JUMPDEST NOT DUP1 DUP4 AND SWAP2 POP POP SWAP3 SWAP2 POP POP JUMP JUMPDEST PUSH1 0x0 PUSH2 0x1D2A DUP4 DUP4 PUSH2 0x1D00 JUMP JUMPDEST SWAP2 POP DUP3 PUSH1 0x2 MUL DUP3 OR SWAP1 POP SWAP3 SWAP2 POP POP JUMP JUMPDEST PUSH2 0x1D44 DUP4 DUP4 PUSH2 0x1B54 JUMP JUMPDEST PUSH8 0xFFFFFFFFFFFFFFFF DUP2 GT ISZERO PUSH2 0x1D5D JUMPI PUSH2 0x1D5C PUSH2 0x1B5F JUMP JUMPDEST JUMPDEST PUSH2 0x1D67 DUP3 SLOAD PUSH2 0x19DF JUMP JUMPDEST PUSH2 0x1D72 DUP3 DUP3 DUP6 PUSH2 0x1CAD JUMP JUMPDEST PUSH1 0x0 PUSH1 0x1F DUP4 GT PUSH1 0x1 DUP2 EQ PUSH2 0x1DA1 JUMPI PUSH1 0x0 DUP5 ISZERO PUSH2 0x1D8F JUMPI DUP3 DUP8 ADD CALLDATALOAD SWAP1 POP JUMPDEST PUSH2 0x1D99 DUP6 DUP3 PUSH2 0x1D1E JUMP JUMPDEST DUP7 SSTORE POP PUSH2 0x1E01 JUMP JUMPDEST PUSH1 0x1F NOT DUP5 AND PUSH2 0x1DAF DUP7 PUSH2 0x1B8E JUMP JUMPDEST PUSH1 0x0 JUMPDEST DUP3 DUP2 LT ISZERO PUSH2 0x1DD7 JUMPI DUP5 DUP10 ADD CALLDATALOAD DUP3 SSTORE PUSH1 0x1 DUP3 ADD SWAP2 POP PUSH1 0x20 DUP6 ADD SWAP5 POP PUSH1 0x20 DUP2 ADD SWAP1 POP PUSH2 0x1DB2 JUMP JUMPDEST DUP7 DUP4 LT ISZERO PUSH2 0x1DF4 JUMPI DUP5 DUP10 ADD CALLDATALOAD PUSH2 0x1DF0 PUSH1 0x1F DUP10 AND DUP3 PUSH2 0x1D00 JUMP JUMPDEST DUP4 SSTORE POP JUMPDEST PUSH1 0x1 PUSH1 0x2 DUP9 MUL ADD DUP9 SSTORE POP POP POP JUMPDEST POP POP POP POP POP POP POP JUMP JUMPDEST DUP3 DUP2 DUP4 CALLDATACOPY PUSH1 0x0 DUP4 DUP4 ADD MSTORE POP POP POP JUMP JUMPDEST PUSH1 0x0 PUSH2 0x1E25 DUP4 DUP6 PUSH2 0x1897 JUMP JUMPDEST SWAP4 POP PUSH2 0x1E32 DUP4 DUP6 DUP5 PUSH2 0x1E0A JUMP JUMPDEST PUSH2 0x1E3B DUP4 PUSH2 0x14E4 JUMP JUMPDEST DUP5 ADD SWAP1 POP SWAP4 SWAP3 POP POP POP JUMP JUMPDEST PUSH1 0x0 PUSH1 0x20 DUP3 ADD SWAP1 POP DUP2 DUP2 SUB PUSH1 0x0 DUP4 ADD MSTORE PUSH2 0x1E61 DUP2 DUP5 DUP7 PUSH2 0x1E19 JUMP JUMPDEST SWAP1 POP SWAP4 SWAP3 POP POP POP JUMP JUMPDEST PUSH32 0x526577617264206D757374206265203E20300000000000000000000000000000 PUSH1 0x0 DUP3 ADD MSTORE POP JUMP JUMPDEST PUSH1 0x0 PUSH2 0x1EA0 PUSH1 0x12 DUP4 PUSH2 0x1897 JUMP JUMPDEST SWAP2 POP PUSH2 0x1EAB DUP3 PUSH2 0x1E6A JUMP JUMPDEST PUSH1 0x20 DUP3 ADD SWAP1 POP SWAP2 SWAP1 POP JUMP JUMPDEST PUSH1 0x0 PUSH1 0x20 DUP3 ADD SWAP1 POP DUP2 DUP2 SUB PUSH1 0x0 DUP4 ADD MSTORE PUSH2 0x1ECF DUP2 PUSH2 0x1E93 JUMP JUMPDEST SWAP1 POP SWAP2 SWAP1 POP JUMP JUMPDEST PUSH32 0x53656E642065786163742072657761726420616D6F756E742061732049564500 PUSH1 0x0 DUP3 ADD MSTORE POP JUMP JUMPDEST PUSH1 0x0 PUSH2 0x1F0C PUSH1 0x1F DUP4 PUSH2 0x1897 JUMP JUMPDEST SWAP2 POP PUSH2 0x1F17 DUP3 PUSH2 0x1ED6 JUMP JUMPDEST PUSH1 0x20 DUP3 ADD SWAP1 POP SWAP2 SWAP1 POP JUMP JUMPDEST PUSH1 0x0 PUSH1 0x20 DUP3 ADD SWAP1 POP DUP2 DUP2 SUB PUSH1 0x0 DUP4 ADD MSTORE PUSH2 0x1F3B DUP2 PUSH2 0x1EFF JUMP JUMPDEST SWAP1 POP SWAP2 SWAP1 POP JUMP JUMPDEST PUSH32 0x4E487B7100000000000000000000000000000000000000000000000000000000 PUSH1 0x0 MSTORE PUSH1 0x11 PUSH1 0x4 MSTORE PUSH1 0x24 PUSH1 0x0 REVERT JUMPDEST PUSH1 0x0 PUSH2 0x1F7C DUP3 PUSH2 0x13EB JUMP JUMPDEST SWAP2 POP PUSH32 0xFFFFFFFFFFFFFFFFFFFFFFFFFFFFFFFFFFFFFFFFFFFFFFFFFFFFFFFFFFFFFFFF DUP3 SUB PUSH2 0x1FAE JUMPI PUSH2 0x1FAD PUSH2 0x1F42 JUMP JUMPDEST JUMPDEST PUSH1 0x1 DUP3 ADD SWAP1 POP SWAP2 SWAP1 POP JUMP JUMPDEST PUSH2 0x1FC2 DUP3 PUSH2 0x149E JUMP JUMPDEST PUSH8 0xFFFFFFFFFFFFFFFF DUP2 GT ISZERO PUSH2 0x1FDB JUMPI PUSH2 0x1FDA PUSH2 0x1B5F JUMP JUMPDEST JUMPDEST PUSH2 0x1FE5 DUP3 SLOAD PUSH2 0x19DF JUMP JUMPDEST PUSH2 0x1FF0 DUP3 DUP3 DUP6 PUSH2 0x1CAD JUMP JUMPDEST PUSH1 0x0 PUSH1 0x20 SWAP1 POP PUSH1 0x1F DUP4 GT PUSH1 0x1 DUP2 EQ PUSH2 0x2023 JUMPI PUSH1 0x0 DUP5 ISZERO PUSH2 0x2011 JUMPI DUP3 DUP8 ADD MLOAD SWAP1 POP JUMPDEST PUSH2 0x201B DUP6 DUP3 PUSH2 0x1D1E JUMP JUMPDEST DUP7 SSTORE POP PUSH2 0x2083 JUMP JUMPDEST PUSH1 0x1F NOT DUP5 AND PUSH2 0x2031 DUP7 PUSH2 0x1B8E JUMP JUMPDEST PUSH1 0x0 JUMPDEST DUP3 DUP2 LT ISZERO PUSH2 0x2059 JUMPI DUP5 DUP10 ADD MLOAD DUP3 SSTORE PUSH1 0x1 DUP3 ADD SWAP2 POP PUSH1 0x20 DUP6 ADD SWAP5 POP PUSH1 0x20 DUP2 ADD SWAP1 POP PUSH2 0x2034 JUMP JUMPDEST DUP7 DUP4 LT ISZERO PUSH2 0x2076 JUMPI DUP5 DUP10 ADD MLOAD PUSH2 0x2072 PUSH1 0x1F DUP10 AND DUP3 PUSH2 0x1D00 JUMP JUMPDEST DUP4 SSTORE POP JUMPDEST PUSH1 0x1 PUSH1 0x2 DUP9 MUL ADD DUP9 SSTORE POP POP POP JUMPDEST POP POP POP POP POP POP JUMP JUMPDEST PUSH32 0x43616E206F6E6C792063616E63656C206F70656E207461736B73000000000000 PUSH1 0x0 DUP3 ADD MSTORE POP JUMP JUMPDEST PUSH1 0x0 PUSH2 0x20C1 PUSH1 0x1A DUP4 PUSH2 0x1897 JUMP JUMPDEST SWAP2 POP PUSH2 0x20CC DUP3 PUSH2 0x208B JUMP JUMPDEST PUSH1 0x20 DUP3 ADD SWAP1 POP SWAP2 SWAP1 POP JUMP JUMPDEST PUSH1 0x0 PUSH1 0x20 DUP3 ADD SWAP1 POP DUP2 DUP2 SUB PUSH1 0x0 DUP4 ADD MSTORE PUSH2 0x20F0 DUP2 PUSH2 0x20B4 JUMP JUMPDEST SWAP1 POP SWAP2 SWAP1 POP JUMP JUMPDEST PUSH32 0x4F6E6C7920706F737465722063616E2063616E63656C00000000000000000000 PUSH1 0x0 DUP3 ADD MSTORE POP JUMP JUMPDEST PUSH1 0x0 PUSH2 0x212D PUSH1 0x16 DUP4 PUSH2 0x1897 JUMP JUMPDEST SWAP2 POP PUSH2 0x2138 DUP3 PUSH2 0x20F7 JUMP JUMPDEST PUSH1 0x20 DUP3 ADD SWAP1 POP SWAP2 SWAP1 POP JUMP JUMPDEST PUSH1 0x0 PUSH1 0x20 DUP3 ADD SWAP1 POP DUP2 DUP2 SUB PUSH1 0x0 DUP4 ADD MSTORE PUSH2 0x215C DUP2 PUSH2 0x2120 JUMP JUMPDEST SWAP1 POP SWAP2 SWAP1 POP JUMP JUMPDEST PUSH1 0x0 DUP2 SWAP1 POP SWAP3 SWAP2 POP POP JUMP JUMPDEST POP JUMP JUMPDEST PUSH1 0x0 PUSH2 0x217E PUSH1 0x0 DUP4 PUSH2 0x2163 JUMP JUMPDEST SWAP2 POP PUSH2 0x2189 DUP3 PUSH2 0x216E JUMP JUMPDEST PUSH1 0x0 DUP3 ADD SWAP1 POP SWAP2 SWAP1 POP JUMP JUMPDEST PUSH1 0x0 PUSH2 0x219F DUP3 PUSH2 0x2171 JUMP JUMPDEST SWAP2 POP DUP2 SWAP1 POP SWAP2 SWAP1 POP JUMP JUMPDEST PUSH32 0x526566756E64206661696C656400000000000000000000000000000000000000 PUSH1 0x0 DUP3 ADD MSTORE POP JUMP JUMPDEST PUSH1 0x0 PUSH2 0x21DF PUSH1 0xD DUP4 PUSH2 0x1897 JUMP JUMPDEST SWAP2 POP PUSH2 0x21EA DUP3 PUSH2 0x21A9 JUMP JUMPDEST PUSH1 0x20 DUP3 ADD SWAP1 POP SWAP2 SWAP1 POP JUMP JUMPDEST PUSH1 0x0 PUSH1 0x20 DUP3 ADD SWAP1 POP DUP2 DUP2 SUB PUSH1 0x0 DUP4 ADD MSTORE PUSH2 0x220E DUP2 PUSH2 0x21D2 JUMP JUMPDEST SWAP1 POP SWAP2 SWAP1 POP JUMP JUMPDEST PUSH32 0x5461736B206E6F74206163636570746564000000000000000000000000000000 PUSH1 0x0 DUP3 ADD MSTORE POP JUMP JUMPDEST PUSH1 0x0 PUSH2 0x224B PUSH1 0x11 DUP4 PUSH2 0x1897 JUMP JUMPDEST SWAP2 POP PUSH2 0x2256 DUP3 PUSH2 0x2215 JUMP JUMPDEST PUSH1 0x20 DUP3 ADD SWAP1 POP SWAP2 SWAP1 POP JUMP JUMPDEST PUSH1 0x0 PUSH1 0x20 DUP3 ADD SWAP1 POP DUP2 DUP2 SUB PUSH1 0x0 DUP4 ADD MSTORE PUSH2 0x227A DUP2 PUSH2 0x223E JUMP JUMPDEST SWAP1 POP SWAP2 SWAP1 POP JUMP JUMPDEST PUSH32 0x4F6E6C7920706F737465722063616E20636F6E6669726D20636F6D706C657469 PUSH1 0x0 DUP3 ADD MSTORE PUSH32 0x6F6E000000000000000000000000000000000000000000000000000000000000 PUSH1 0x20 DUP3 ADD MSTORE POP JUMP JUMPDEST PUSH1 0x0 PUSH2 0x22DD PUSH1 0x22 DUP4 PUSH2 0x1897 JUMP JUMPDEST SWAP2 POP PUSH2 0x22E8 DUP3 PUSH2 0x2281 JUMP JUMPDEST PUSH1 0x40 DUP3 ADD SWAP1 POP SWAP2 SWAP1 POP JUMP JUMPDEST PUSH1 0x0 PUSH1 0x20 DUP3 ADD SWAP1 POP DUP2 DUP2 SUB PUSH1 0x0 DUP4 ADD MSTORE PUSH2 0x230C DUP2 PUSH2 0x22D0 JUMP JUMPDEST SWAP1 POP SWAP2 SWAP1 POP JUMP JUMPDEST PUSH32 0x526577617264207472616E73666572206661696C656400000000000000000000 PUSH1 0x0 DUP3 ADD MSTORE POP JUMP JUMPDEST PUSH1 0x0 PUSH2 0x2349 PUSH1 0x16 DUP4 PUSH2 0x1897 JUMP JUMPDEST SWAP2 POP PUSH2 0x2354 DUP3 PUSH2 0x2313 JUMP JUMPDEST PUSH1 0x20 DUP3 ADD SWAP1 POP SWAP2 SWAP1 POP JUMP JUMPDEST PUSH1 0x0 PUSH1 0x20 DUP3 ADD SWAP1 POP DUP2 DUP2 SUB PUSH1 0x0 DUP4 ADD MSTORE PUSH2 0x2378 DUP2 PUSH2 0x233C JUMP JUMPDEST SWAP1 POP SWAP2 SWAP1 POP JUMP INVALID LOG2 PUSH5 0x6970667358 0x22 SLT KECCAK256 0xE8 CALLCODE 0x22 0xC2 CODESIZE 0xB4 0xE5 0xBD SWAP10 PUSH0 0xEE CODECOPY 0x28 TSTORE PUSH14 0x7873330011C0E1D633C6C4A3C692 EQ 0x4E CALLVALUE PUSH5 0x736F6C6343 STOP ADDMOD XOR STOP CALLER "},"methodIdentifiers":{"acceptTask(uint256,string,address)":"1f30accb","cancelTask(uint256)":"7eec20a8","completeTask(uint256)":"e1e29558","createTask(string,string,uint256)":"41a4e30a","getTask(uint256)":"1d65e77e","nextTaskId()":"fdc3d8d7","tasks(uint256)":"8d977672"}}}}}