{"contracts/Reputation.sol":{"Reputation":{"abi":[{"anonymous":false,"inputs":[{"indexed":true,"internalType":"string","name":"agentId","type":"string"},{"indexed":false,"internalType":"string","name":"eventType","type":"string"},{"indexed":false,"internalType":"int256","name":"delta","type":"int256"}],"name":"ReputationUpdated","type":"event"},{"inputs":[{"internalType":"string","name":"agentId","type":"string"}],"name":"endorse","outputs":[],"stateMutability":"nonpayable","type":"function"},{"inputs":[{"internalType":"string","name":"agentId","type":"string"}],"name":"getReputation","outputs":[{"components":[{"internalType":"uint256","name":"tasksCompleted","type":"uint256"},{"internalType":"uint256","name":"tasksFailed","type":"uint256"},{"internalType":"uint256","name":"totalCogEarned","type":"uint256"},{"internalType":"uint256","name":"endorsements","type":"uint256"},{"internalType":"uint256","name":"lastUpdated","type":"uint256"}],"internalType":"struct Reputation.AgentRep","name":"","type":"tuple"}],"stateMutability":"view","type":"function"},{"inputs":[{"internalType":"string","name":"agentId","type":"string"}],"name":"getScore","outputs":[{"internalType":"uint256","name":"","type":"uint256"}],"stateMutability":"view","type":"function"},{"inputs":[{"internalType":"string","name":"agentId","type":"string"},{"internalType":"uint256","name":"cogEarned","type":"uint256"}],"name":"recordTaskComplete","outputs":[],"stateMutability":"nonpayable","type":"function"},{"inputs":[{"internalType":"string","name":"agentId","type":"string"}],"name":"recordTaskFailed","outputs":[],"stateMutability":"nonpayable","type":"function"},{"inputs":[{"internalType":"string","name":"","type":"string"}],"name":"reputations","outputs":[{"internalType":"uint256","name":"tasksCompleted","type":"uint256"},{"internalType":"uint256","name":"tasksFailed","type":"uint256"},{"internalType":"uint256","name":"totalCogEarned","type":"uint256"},{"internalType":"uint256","name":"endorsements","type":"uint256"},{"internalType":"uint256","name":"lastUpdated","type":"uint256"}],"stateMutability":"view","type":"function"}],"evm":{"bytecode":{"linkReferences":{},"object":"608060405234801561001057600080fd5b50610c50806100206000396000f3fe608060405234801561001057600080fd5b50600436106100625760003560e01c806316020273146100675780633d1103f4146100975780633dbb97c7146100c75780633f904bb8146100e35780634e90845d146100ff578063c38a01151461011b575b600080fd5b610081600480360381019061007c9190610538565b61014f565b60405161008e919061059e565b60405180910390f35b6100b160048036038101906100ac9190610538565b6101c6565b6040516100be9190610630565b60405180910390f35b6100e160048036038101906100dc9190610677565b610233565b005b6100fd60048036038101906100f89190610538565b6102eb565b005b61011960048036038101906101149190610538565b610388565b005b61013560048036038101906101309190610818565b610444565b604051610146959493929190610861565b60405180910390f35b600080600084846040516101649291906108e4565b9081526020016040518091039020905060008160010154826000015461018a919061092c565b90506000810361019f576064925050506101c0565b80606483600001546101b19190610960565b6101bb91906109d1565b925050505b92915050565b6101ce610490565b600083836040516101e09291906108e4565b90815260200160405180910390206040518060a001604052908160008201548152602001600182015481526020016002820154815260200160038201548152602001600482015481525050905092915050565b60008084846040516102469291906108e4565b90815260200160405180910390209050600181600001600082825461026b919061092c565b9250508190555081816002016000828254610286919061092c565b9250508190555042816004018190555083836040516102a69291906108e4565b60405180910390207f5cfaa30335c907ba6dbead1c970ec59683388dbea566ad6ba450db80e7b71bec836040516102dd9190610a78565b60405180910390a250505050565b60008083836040516102fe9291906108e4565b908152602001604051809103902090506001816003016000828254610323919061092c565b9250508190555042816004018190555082826040516103439291906108e4565b60405180910390207f5cfaa30335c907ba6dbead1c970ec59683388dbea566ad6ba450db80e7b71bec600160405161037b9190610b37565b60405180910390a2505050565b600080838360405161039b9291906108e4565b9081526020016040518091039020905060018160010160008282546103c0919061092c565b9250508190555042816004018190555082826040516103e09291906108e4565b60405180910390207f5cfaa30335c907ba6dbead1c970ec59683388dbea566ad6ba450db80e7b71bec7fffffffffffffffffffffffffffffffffffffffffffffffffffffffffffffffff6040516104379190610bec565b60405180910390a2505050565b6000818051602081018201805184825260208301602085012081835280955050505050506000915090508060000154908060010154908060020154908060030154908060040154905085565b6040518060a0016040528060008152602001600081526020016000815260200160008152602001600081525090565b6000604051905090565b600080fd5b600080fd5b600080fd5b600080fd5b600080fd5b60008083601f8401126104f8576104f76104d3565b5b8235905067ffffffffffffffff811115610515576105146104d8565b5b602083019150836001820283011115610531576105306104dd565b5b9250929050565b6000806020838503121561054f5761054e6104c9565b5b600083013567ffffffffffffffff81111561056d5761056c6104ce565b5b610579858286016104e2565b92509250509250929050565b6000819050919050565b61059881610585565b82525050565b60006020820190506105b3600083018461058f565b92915050565b6105c281610585565b82525050565b60a0820160008201516105de60008501826105b9565b5060208201516105f160208501826105b9565b50604082015161060460408501826105b9565b50606082015161061760608501826105b9565b50608082015161062a60808501826105b9565b50505050565b600060a08201905061064560008301846105c8565b92915050565b61065481610585565b811461065f57600080fd5b50565b6000813590506106718161064b565b92915050565b6000806000604084860312156106905761068f6104c9565b5b600084013567ffffffffffffffff8111156106ae576106ad6104ce565b5b6106ba868287016104e2565b935093505060206106cd86828701610662565b9150509250925092565b600080fd5b6000601f19601f8301169050919050565b7f4e487b7100000000000000000000000000000000000000000000000000000000600052604160045260246000fd5b610725826106dc565b810181811067ffffffffffffffff82111715610744576107436106ed565b5b80604052505050565b60006107576104bf565b9050610763828261071c565b919050565b600067ffffffffffffffff821115610783576107826106ed565b5b61078c826106dc565b9050602081019050919050565b82818337600083830152505050565b60006107bb6107b684610768565b61074d565b9050828152602081018484840111156107d7576107d66106d7565b5b6107e2848285610799565b509392505050565b600082601f8301126107ff576107fe6104d3565b5b813561080f8482602086016107a8565b91505092915050565b60006020828403121561082e5761082d6104c9565b5b600082013567ffffffffffffffff81111561084c5761084b6104ce565b5b610858848285016107ea565b91505092915050565b600060a082019050610876600083018861058f565b610883602083018761058f565b610890604083018661058f565b61089d606083018561058f565b6108aa608083018461058f565b9695505050505050565b600081905092915050565b60006108cb83856108b4565b93506108d8838584610799565b82840190509392505050565b60006108f18284866108bf565b91508190509392505050565b7f4e487b7100000000000000000000000000000000000000000000000000000000600052601160045260246000fd5b600061093782610585565b915061094283610585565b925082820190508082111561095a576109596108fd565b5b92915050565b600061096b82610585565b915061097683610585565b925082820261098481610585565b9150828204841483151761099b5761099a6108fd565b5b5092915050565b7f4e487b7100000000000000000000000000000000000000000000000000000000600052601260045260246000fd5b60006109dc82610585565b91506109e783610585565b9250826109f7576109f66109a2565b5b828204905092915050565b600082825260208201905092915050565b7f7461736b5f636f6d706c65746500000000000000000000000000000000000000600082015250565b6000610a49600d83610a02565b9150610a5482610a13565b602082019050919050565b6000819050919050565b610a7281610a5f565b82525050565b60006040820190508181036000830152610a9181610a3c565b9050610aa06020830184610a69565b92915050565b7f656e646f7273656d656e74000000000000000000000000000000000000000000600082015250565b6000610adc600b83610a02565b9150610ae782610aa6565b602082019050919050565b6000819050919050565b6000819050919050565b6000610b21610b1c610b1784610af2565b610afc565b610a5f565b9050919050565b610b3181610b06565b82525050565b60006040820190508181036000830152610b5081610acf565b9050610b5f6020830184610b28565b92915050565b7f7461736b5f6661696c6564000000000000000000000000000000000000000000600082015250565b6000610b9b600b83610a02565b9150610ba682610b65565b602082019050919050565b6000819050919050565b6000610bd6610bd1610bcc84610bb1565b610afc565b610a5f565b9050919050565b610be681610bbb565b82525050565b60006040820190508181036000830152610c0581610b8e565b9050610c146020830184610bdd565b9291505056fea26469706673582212209550875bd6de192267850918ea695e21d791a75baf20c4a3925fde67c20062a864736f6c63430008180033","opcodes":"PUSH1 0x80 PUSH1 0x40 MSTORE CALLVALUE DUP1 ISZERO PUSH2 0x10 JUMPI PUSH1 0x0 DUP1 REVERT JUMPDEST POP PUSH2 0xC50 DUP1 PUSH2 0x20 PUSH1 0x0 CODECOPY PUSH1 0x0 RETURN INVALID PUSH1 0x80 PUSH1 0x40 MSTORE CALLVALUE DUP1 ISZERO PUSH2 0x10 JUMPI PUSH1 0x0 DUP1 REVERT JUMPDEST POP PUSH1 0x4 CALLDATASIZE LT PUSH2 0x62 JUMPI PUSH1 0x0 CALLDATALOAD PUSH1 0xE0 SHR DUP1 PUSH4 0x16020273 EQ PUSH2 0x67 JUMPI DUP1 PUSH4 0x3D1103F4 EQ PUSH2 0x97 JUMPI DUP1 PUSH4 0x3DBB97C7 EQ PUSH2 0xC7 JUMPI DUP1 PUSH4 0x3F904BB8 EQ PUSH2 0xE3 JUMPI DUP1 PUSH4 0x4E90845D EQ PUSH2 0xFF JUMPI DUP1 PUSH4 0xC38A0115 EQ PUSH2 0x11B JUMPI JUMPDEST PUSH1 0x0 DUP1 REVERT JUMPDEST PUSH2 0x81 PUSH1 0x4 DUP1 CALLDATASIZE SUB DUP2 ADD SWAP1 PUSH2 0x7C SWAP2 SWAP1 PUSH2 0x538 JUMP JUMPDEST PUSH2 0x14F JUMP JUMPDEST PUSH1 0x40 MLOAD PUSH2 0x8E SWAP2 SWAP1 PUSH2 0x59E JUMP JUMPDEST PUSH1 0x40 MLOAD DUP1 SWAP2 SUB SWAP1 RETURN JUMPDEST PUSH2 0xB1 PUSH1 0x4 DUP1 CALLDATASIZE SUB DUP2 ADD SWAP1 PUSH2 0xAC SWAP2 SWAP1 PUSH2 0x538 JUMP JUMPDEST PUSH2 0x1C6 JUMP JUMPDEST PUSH1 0x40 MLOAD PUSH2 0xBE SWAP2 SWAP1 PUSH2 0x630 JUMP JUMPDEST PUSH1 0x40 MLOAD DUP1 SWAP2 SUB SWAP1 RETURN JUMPDEST PUSH2 0xE1 PUSH1 0x4 DUP1 CALLDATASIZE SUB DUP2 ADD SWAP1 PUSH2 0xDC SWAP2 SWAP1 PUSH2 0x677 JUMP JUMPDEST PUSH2 0x233 JUMP JUMPDEST STOP JUMPDEST PUSH2 0xFD PUSH1 0x4 DUP1 CALLDATASIZE SUB DUP2 ADD SWAP1 PUSH2 0xF8 SWAP2 SWAP1 PUSH2 0x538 JUMP JUMPDEST PUSH2 0x2EB JUMP JUMPDEST STOP JUMPDEST PUSH2 0x119 PUSH1 0x4 DUP1 CALLDATASIZE SUB DUP2 ADD SWAP1 PUSH2 0x114 SWAP2 SWAP1 PUSH2 0x538 JUMP JUMPDEST PUSH2 0x388 JUMP JUMPDEST STOP JUMPDEST PUSH2 0x135 PUSH1 0x4 DUP1 CALLDATASIZE SUB DUP2 ADD SWAP1 PUSH2 0x130 SWAP2 SWAP1 PUSH2 0x818 JUMP JUMPDEST PUSH2 0x444 JUMP JUMPDEST PUSH1 0x40 MLOAD PUSH2 0x146 SWAP6 SWAP5 SWAP4 SWAP3 SWAP2 SWAP1 PUSH2 0x861 JUMP JUMPDEST PUSH1 0x40 MLOAD DUP1 SWAP2 SUB SWAP1 RETURN JUMPDEST PUSH1 0x0 DUP1 PUSH1 0x0 DUP5 DUP5 PUSH1 0x40 MLOAD PUSH2 0x164 SWAP3 SWAP2 SWAP1 PUSH2 0x8E4 JUMP JUMPDEST SWAP1 DUP2 MSTORE PUSH1 0x20 ADD PUSH1 0x40 MLOAD DUP1 SWAP2 SUB SWAP1 KECCAK256 SWAP1 POP PUSH1 0x0 DUP2 PUSH1 0x1 ADD SLOAD DUP3 PUSH1 0x0 ADD SLOAD PUSH2 0x18A SWAP2 SWAP1 PUSH2 0x92C JUMP JUMPDEST SWAP1 POP PUSH1 0x0 DUP2 SUB PUSH2 0x19F JUMPI PUSH1 0x64 SWAP3 POP POP POP PUSH2 0x1C0 JUMP JUMPDEST DUP1 PUSH1 0x64 DUP4 PUSH1 0x0 ADD SLOAD PUSH2 0x1B1 SWAP2 SWAP1 PUSH2 0x960 JUMP JUMPDEST PUSH2 0x1BB SWAP2 SWAP1 PUSH2 0x9D1 JUMP JUMPDEST SWAP3 POP POP POP JUMPDEST SWAP3 SWAP2 POP POP JUMP JUMPDEST PUSH2 0x1CE PUSH2 0x490 JUMP JUMPDEST PUSH1 0x0 DUP4 DUP4 PUSH1 0x40 MLOAD PUSH2 0x1E0 SWAP3 SWAP2 SWAP1 PUSH2 0x8E4 JUMP JUMPDEST SWAP1 DUP2 MSTORE PUSH1 0x20 ADD PUSH1 0x40 MLOAD DUP1 SWAP2 SUB SWAP1 KECCAK256 PUSH1 0x40 MLOAD DUP1 PUSH1 0xA0 ADD PUSH1 0x40 MSTORE SWAP1 DUP2 PUSH1 0x0 DUP3 ADD SLOAD DUP2 MSTORE PUSH1 0x20 ADD PUSH1 0x1 DUP3 ADD SLOAD DUP2 MSTORE PUSH1 0x20 ADD PUSH1 0x2 DUP3 ADD SLOAD DUP2 MSTORE PUSH1 0x20 ADD PUSH1 0x3 DUP3 ADD SLOAD DUP2 MSTORE PUSH1 0x20 ADD PUSH1 0x4 DUP3 ADD SLOAD DUP2 MSTORE POP POP SWAP1 POP SWAP3 SWAP2 POP POP JUMP JUMPDEST PUSH1 0x0 DUP1 DUP5 DUP5 PUSH1 0x40 MLOAD PUSH2 0x246 SWAP3 SWAP2 SWAP1 PUSH2 0x8E4 JUMP JUMPDEST SWAP1 DUP2 MSTORE PUSH1 0x20 ADD PUSH1 0x40 MLOAD DUP1 SWAP2 SUB SWAP1 KECCAK256 SWAP1 POP PUSH1 0x1 DUP2 PUSH1 0x0 ADD PUSH1 0x0 DUP3 DUP3 SLOAD PUSH2 0x26B SWAP2 SWAP1 PUSH2 0x92C JUMP JUMPDEST SWAP3 POP POP DUP2 SWAP1 SSTORE POP DUP2 DUP2 PUSH1 0x2 ADD PUSH1 0x0 DUP3 DUP3 SLOAD PUSH2 0x286 SWAP2 SWAP1 PUSH2 0x92C JUMP JUMPDEST SWAP3 POP POP DUP2 SWAP1 SSTORE POP TIMESTAMP DUP2 PUSH1 0x4 ADD DUP2 SWAP1 SSTORE POP DUP4 DUP4 PUSH1 0x40 MLOAD PUSH2 0x2A6 SWAP3 SWAP2 SWAP1 PUSH2 0x8E4 JUMP JUMPDEST PUSH1 0x40 MLOAD DUP1 SWAP2 SUB SWAP1 KECCAK256 PUSH32 0x5CFAA30335C907BA6DBEAD1C970EC59683388DBEA566AD6BA450DB80E7B71BEC DUP4 PUSH1 0x40 MLOAD PUSH2 0x2DD SWAP2 SWAP1 PUSH2 0xA78 JUMP JUMPDEST PUSH1 0x40 MLOAD DUP1 SWAP2 SUB SWAP1 LOG2 POP POP POP POP JUMP JUMPDEST PUSH1 0x0 DUP1 DUP4 DUP4 PUSH1 0x40 MLOAD PUSH2 0x2FE SWAP3 SWAP2 SWAP1 PUSH2 0x8E4 JUMP JUMPDEST SWAP1 DUP2 MSTORE PUSH1 0x20 ADD PUSH1 0x40 MLOAD DUP1 SWAP2 SUB SWAP1 KECCAK256 SWAP1 POP PUSH1 0x1 DUP2 PUSH1 0x3 ADD PUSH1 0x0 DUP3 DUP3 SLOAD PUSH2 0x323 SWAP2 SWAP1 PUSH2 0x92C JUMP JUMPDEST SWAP3 POP POP DUP2 SWAP1 SSTORE POP TIMESTAMP DUP2 PUSH1 0x4 ADD DUP2 SWAP1 SSTORE POP DUP3 DUP3 PUSH1 0x40 MLOAD PUSH2 0x343 SWAP3 SWAP2 SWAP1 PUSH2 0x8E4 JUMP JUMPDEST PUSH1 0x40 MLOAD DUP1 SWAP2 SUB SWAP1 KECCAK256 PUSH32 0x5CFAA30335C907BA6DBEAD1C970EC59683388DBEA566AD6BA450DB80E7B71BEC PUSH1 0x1 PUSH1 0x40 MLOAD PUSH2 0x37B SWAP2 SWAP1 PUSH2 0xB37 JUMP JUMPDEST PUSH1 0x40 MLOAD DUP1 SWAP2 SUB SWAP1 LOG2 POP POP POP JUMP JUMPDEST PUSH1 0x0 DUP1 DUP4 DUP4 PUSH1 0x40 MLOAD PUSH2 0x39B SWAP3 SWAP2 SWAP1 PUSH2 0x8E4 JUMP JUMPDEST SWAP1 DUP2 MSTORE PUSH1 0x20 ADD PUSH1 0x40 MLOAD DUP1 SWAP2 SUB SWAP1 KECCAK256 SWAP1 POP PUSH1 0x1 DUP2 PUSH1 0x1 ADD PUSH1 0x0 DUP3 DUP3 SLOAD PUSH2 0x3C0 SWAP2 SWAP1 PUSH2 0x92C JUMP JUMPDEST SWAP3 POP POP DUP2 SWAP1 SSTORE POP TIMESTAMP DUP2 PUSH1 0x4 ADD DUP2 SWAP1 SSTORE POP DUP3 DUP3 PUSH1 0x40 MLOAD PUSH2 0x3E0 SWAP3 SWAP2 SWAP1 PUSH2 0x8E4 JUMP JUMPDEST PUSH1 0x40 MLOAD DUP1 SWAP2 SUB SWAP1 KECCAK256 PUSH32 0x5CFAA30335C907BA6DBEAD1C970EC59683388DBEA566AD6BA450DB80E7B71BEC PUSH32 0xFFFFFFFFFFFFFFFFFFFFFFFFFFFFFFFFFFFFFFFFFFFFFFFFFFFFFFFFFFFFFFFF PUSH1 0x40 MLOAD PUSH2 0x437 SWAP2 SWAP1 PUSH2 0xBEC JUMP JUMPDEST PUSH1 0x40 MLOAD DUP1 SWAP2 SUB SWAP1 LOG2 POP POP POP JUMP JUMPDEST PUSH1 0x0 DUP2 DUP1 MLOAD PUSH1 0x20 DUP2 ADD DUP3 ADD DUP1 MLOAD DUP5 DUP3 MSTORE PUSH1 0x20 DUP4 ADD PUSH1 0x20 DUP6 ADD KECCAK256 DUP2 DUP4 MSTORE DUP1 SWAP6 POP POP POP POP POP POP PUSH1 0x0 SWAP2 POP SWAP1 POP DUP1 PUSH1 0x0 ADD SLOAD SWAP1 DUP1 PUSH1 0x1 ADD SLOAD SWAP1 DUP1 PUSH1 0x2 ADD SLOAD SWAP1 DUP1 PUSH1 0x3 ADD SLOAD SWAP1 DUP1 PUSH1 0x4 ADD SLOAD SWAP1 POP DUP6 JUMP JUMPDEST PUSH1 0x40 MLOAD DUP1 PUSH1 0xA0 ADD PUSH1 0x40 MSTORE DUP1 PUSH1 0x0 DUP2 MSTORE PUSH1 0x20 ADD PUSH1 0x0 DUP2 MSTORE PUSH1 0x20 ADD PUSH1 0x0 DUP2 MSTORE PUSH1 0x20 ADD PUSH1 0x0 DUP2 MSTORE PUSH1 0x20 ADD PUSH1 0x0 DUP2 MSTORE POP SWAP1 JUMP JUMPDEST PUSH1 0x0 PUSH1 0x40 MLOAD SWAP1 POP SWAP1 JUMP JUMPDEST PUSH1 0x0 DUP1 REVERT JUMPDEST PUSH1 0x0 DUP1 REVERT JUMPDEST PUSH1 0x0 DUP1 REVERT JUMPDEST PUSH1 0x0 DUP1 REVERT JUMPDEST PUSH1 0x0 DUP1 REVERT JUMPDEST PUSH1 0x0 DUP1 DUP4 PUSH1 0x1F DUP5 ADD SLT PUSH2 0x4F8 JUMPI PUSH2 0x4F7 PUSH2 0x4D3 JUMP JUMPDEST JUMPDEST DUP3 CALLDATALOAD SWAP1 POP PUSH8 0xFFFFFFFFFFFFFFFF DUP2 GT ISZERO PUSH2 0x515 JUMPI PUSH2 0x514 PUSH2 0x4D8 JUMP JUMPDEST JUMPDEST PUSH1 0x20 DUP4 ADD SWAP2 POP DUP4 PUSH1 0x1 DUP3 MUL DUP4 ADD GT ISZERO PUSH2 0x531 JUMPI PUSH2 0x530 PUSH2 0x4DD JUMP JUMPDEST JUMPDEST SWAP3 POP SWAP3 SWAP1 POP JUMP JUMPDEST PUSH1 0x0 DUP1 PUSH1 0x20 DUP4 DUP6 SUB SLT ISZERO PUSH2 0x54F JUMPI PUSH2 0x54E PUSH2 0x4C9 JUMP JUMPDEST JUMPDEST PUSH1 0x0 DUP4 ADD CALLDATALOAD PUSH8 0xFFFFFFFFFFFFFFFF DUP2 GT ISZERO PUSH2 0x56D JUMPI PUSH2 0x56C PUSH2 0x4CE JUMP JUMPDEST JUMPDEST PUSH2 0x579 DUP6 DUP3 DUP7 ADD PUSH2 0x4E2 JUMP JUMPDEST SWAP3 POP SWAP3 POP POP SWAP3 POP SWAP3 SWAP1 POP JUMP JUMPDEST PUSH1 0x0 DUP2 SWAP1 POP SWAP2 SWAP1 POP JUMP JUMPDEST PUSH2 0x598 DUP2 PUSH2 0x585 JUMP JUMPDEST DUP3 MSTORE POP POP JUMP JUMPDEST PUSH1 0x0 PUSH1 0x20 DUP3 ADD SWAP1 POP PUSH2 0x5B3 PUSH1 0x0 DUP4 ADD DUP5 PUSH2 0x58F JUMP JUMPDEST SWAP3 SWAP2 POP POP JUMP JUMPDEST PUSH2 0x5C2 DUP2 PUSH2 0x585 JUMP JUMPDEST DUP3 MSTORE POP POP JUMP JUMPDEST PUSH1 0xA0 DUP3 ADD PUSH1 0x0 DUP3 ADD MLOAD PUSH2 0x5DE PUSH1 0x0 DUP6 ADD DUP3 PUSH2 0x5B9 JUMP JUMPDEST POP PUSH1 0x20 DUP3 ADD MLOAD PUSH2 0x5F1 PUSH1 0x20 DUP6 ADD DUP3 PUSH2 0x5B9 JUMP JUMPDEST POP PUSH1 0x40 DUP3 ADD MLOAD PUSH2 0x604 PUSH1 0x40 DUP6 ADD DUP3 PUSH2 0x5B9 JUMP JUMPDEST POP PUSH1 0x60 DUP3 ADD MLOAD PUSH2 0x617 PUSH1 0x60 DUP6 ADD DUP3 PUSH2 0x5B9 JUMP JUMPDEST POP PUSH1 0x80 DUP3 ADD MLOAD PUSH2 0x62A PUSH1 0x80 DUP6 ADD DUP3 PUSH2 0x5B9 JUMP JUMPDEST POP POP POP POP JUMP JUMPDEST PUSH1 0x0 PUSH1 0xA0 DUP3 ADD SWAP1 POP PUSH2 0x645 PUSH1 0x0 DUP4 ADD DUP5 PUSH2 0x5C8 JUMP JUMPDEST SWAP3 SWAP2 POP POP JUMP JUMPDEST PUSH2 0x654 DUP2 PUSH2 0x585 JUMP JUMPDEST DUP2 EQ PUSH2 0x65F JUMPI PUSH1 0x0 DUP1 REVERT JUMPDEST POP JUMP JUMPDEST PUSH1 0x0 DUP2 CALLDATALOAD SWAP1 POP PUSH2 0x671 DUP2 PUSH2 0x64B JUMP JUMPDEST SWAP3 SWAP2 POP POP JUMP JUMPDEST PUSH1 0x0 DUP1 PUSH1 0x0 PUSH1 0x40 DUP5 DUP7 SUB SLT ISZERO PUSH2 0x690 JUMPI PUSH2 0x68F PUSH2 0x4C9 JUMP JUMPDEST JUMPDEST PUSH1 0x0 DUP5 ADD CALLDATALOAD PUSH8 0xFFFFFFFFFFFFFFFF DUP2 GT ISZERO PUSH2 0x6AE JUMPI PUSH2 0x6AD PUSH2 0x4CE JUMP JUMPDEST JUMPDEST PUSH2 0x6BA DUP7 DUP3 DUP8 ADD PUSH2 0x4E2 JUMP JUMPDEST SWAP4 POP SWAP4 POP POP PUSH1 0x20 PUSH2 0x6CD DUP7 DUP3 DUP8 ADD PUSH2 0x662 JUMP JUMPDEST SWAP2 POP POP SWAP3 POP SWAP3 POP SWAP3 JUMP JUMPDEST PUSH1 0x0 DUP1 REVERT JUMPDEST PUSH1 0x0 PUSH1 0x1F NOT PUSH1 0x1F DUP4 ADD AND SWAP1 POP SWAP2 SWAP1 POP JUMP JUMPDEST PUSH32 0x4E487B7100000000000000000000000000000000000000000000000000000000 PUSH1 0x0 MSTORE PUSH1 0x41 PUSH1 0x4 MSTORE PUSH1 0x24 PUSH1 0x0 REVERT JUMPDEST PUSH2 0x725 DUP3 PUSH2 0x6DC JUMP JUMPDEST DUP2 ADD DUP2 DUP2 LT PUSH8 0xFFFFFFFFFFFFFFFF DUP3 GT OR ISZERO PUSH2 0x744 JUMPI PUSH2 0x743 PUSH2 0x6ED JUMP JUMPDEST JUMPDEST DUP1 PUSH1 0x40 MSTORE POP POP POP JUMP JUMPDEST PUSH1 0x0 PUSH2 0x757 PUSH2 0x4BF JUMP JUMPDEST SWAP1 POP PUSH2 0x763 DUP3 DUP3 PUSH2 0x71C JUMP JUMPDEST SWAP2 SWAP1 POP JUMP JUMPDEST PUSH1 0x0 PUSH8 0xFFFFFFFFFFFFFFFF DUP3 GT ISZERO PUSH2 0x783 JUMPI PUSH2 0x782 PUSH2 0x6ED JUMP JUMPDEST JUMPDEST PUSH2 0x78C DUP3 PUSH2 0x6DC JUMP JUMPDEST SWAP1 POP PUSH1 0x20 DUP2 ADD SWAP1 POP SWAP2 SWAP1 POP JUMP JUMPDEST DUP3 DUP2 DUP4 CALLDATACOPY PUSH1 0x0 DUP4 DUP4 ADD MSTORE POP POP POP JUMP JUMPDEST PUSH1 0x0 PUSH2 0x7BB PUSH2 0x7B6 DUP5 PUSH2 0x768 JUMP JUMPDEST PUSH2 0x74D JUMP JUMPDEST SWAP1 POP DUP3 DUP2 MSTORE PUSH1 0x20 DUP2 ADD DUP5 DUP5 DUP5 ADD GT ISZERO PUSH2 0x7D7 JUMPI PUSH2 0x7D6 PUSH2 0x6D7 JUMP JUMPDEST JUMPDEST PUSH2 0x7E2 DUP5 DUP3 DUP6 PUSH2 0x799 JUMP JUMPDEST POP SWAP4 SWAP3 POP POP POP JUMP JUMPDEST PUSH1 0x0 DUP3 PUSH1 0x1F DUP4 ADD SLT PUSH2 0x7FF JUMPI PUSH2 0x7FE PUSH2 0x4D3 JUMP JUMPDEST JUMPDEST DUP2 CALLDATALOAD PUSH2 0x80F DUP5 DUP3 PUSH1 0x20 DUP7 ADD PUSH2 0x7A8 JUMP JUMPDEST SWAP2 POP POP SWAP3 SWAP2 POP POP JUMP JUMPDEST PUSH1 0x0 PUSH1 0x20 DUP3 DUP5 SUB SLT ISZERO PUSH2 0x82E JUMPI PUSH2 0x82D PUSH2 0x4C9 JUMP JUMPDEST JUMPDEST PUSH1 0x0 DUP3 ADD CALLDATALOAD PUSH8 0xFFFFFFFFFFFFFFFF DUP2 GT ISZERO PUSH2 0x84C JUMPI PUSH2 0x84B PUSH2 0x4CE JUMP JUMPDEST JUMPDEST PUSH2 0x858 DUP5 DUP3 DUP6 ADD PUSH2 0x7EA JUMP JUMPDEST SWAP2 POP POP SWAP3 SWAP2 POP POP JUMP JUMPDEST PUSH1 0x0 PUSH1 0xA0 DUP3 ADD SWAP1 POP PUSH2 0x876 PUSH1 0x0 DUP4 ADD DUP9 PUSH2 0x58F JUMP JUMPDEST PUSH2 0x883 PUSH1 0x20 DUP4 ADD DUP8 PUSH2 0x58F JUMP JUMPDEST PUSH2 0x890 PUSH1 0x40 DUP4 ADD DUP7 PUSH2 0x58F JUMP JUMPDEST PUSH2 0x89D PUSH1 0x60 DUP4 ADD DUP6 PUSH2 0x58F JUMP JUMPDEST PUSH2 0x8AA PUSH1 0x80 DUP4 ADD DUP5 PUSH2 0x58F JUMP JUMPDEST SWAP7 SWAP6 POP POP POP POP POP POP JUMP JUMPDEST PUSH1 0x0 DUP2 SWAP1 POP SWAP3 SWAP2 POP POP JUMP JUMPDEST PUSH1 0x0 PUSH2 0x8CB DUP4 DUP6 PUSH2 0x8B4 JUMP JUMPDEST SWAP4 POP PUSH2 0x8D8 DUP4 DUP6 DUP5 PUSH2 0x799 JUMP JUMPDEST DUP3 DUP5 ADD SWAP1 POP SWAP4 SWAP3 POP POP POP JUMP JUMPDEST PUSH1 0x0 PUSH2 0x8F1 DUP3 DUP5 DUP7 PUSH2 0x8BF JUMP JUMPDEST SWAP2 POP DUP2 SWAP1 POP SWAP4 SWAP3 POP POP POP JUMP JUMPDEST PUSH32 0x4E487B7100000000000000000000000000000000000000000000000000000000 PUSH1 0x0 MSTORE PUSH1 0x11 PUSH1 0x4 MSTORE PUSH1 0x24 PUSH1 0x0 REVERT JUMPDEST PUSH1 0x0 PUSH2 0x937 DUP3 PUSH2 0x585 JUMP JUMPDEST SWAP2 POP PUSH2 0x942 DUP4 PUSH2 0x585 JUMP JUMPDEST SWAP3 POP DUP3 DUP3 ADD SWAP1 POP DUP1 DUP3 GT ISZERO PUSH2 0x95A JUMPI PUSH2 0x959 PUSH2 0x8FD JUMP JUMPDEST JUMPDEST SWAP3 SWAP2 POP POP JUMP JUMPDEST PUSH1 0x0 PUSH2 0x96B DUP3 PUSH2 0x585 JUMP JUMPDEST SWAP2 POP PUSH2 0x976 DUP4 PUSH2 0x585 JUMP JUMPDEST SWAP3 POP DUP3 DUP3 MUL PUSH2 0x984 DUP2 PUSH2 0x585 JUMP JUMPDEST SWAP2 POP DUP3 DUP3 DIV DUP5 EQ DUP4 ISZERO OR PUSH2 0x99B JUMPI PUSH2 0x99A PUSH2 0x8FD JUMP JUMPDEST JUMPDEST POP SWAP3 SWAP2 POP POP JUMP JUMPDEST PUSH32 0x4E487B7100000000000000000000000000000000000000000000000000000000 PUSH1 0x0 MSTORE PUSH1 0x12 PUSH1 0x4 MSTORE PUSH1 0x24 PUSH1 0x0 REVERT JUMPDEST PUSH1 0x0 PUSH2 0x9DC DUP3 PUSH2 0x585 JUMP JUMPDEST SWAP2 POP PUSH2 0x9E7 DUP4 PUSH2 0x585 JUMP JUMPDEST SWAP3 POP DUP3 PUSH2 0x9F7 JUMPI PUSH2 0x9F6 PUSH2 0x9A2 JUMP JUMPDEST JUMPDEST DUP3 DUP3 DIV SWAP1 POP SWAP3 SWAP2 POP POP JUMP JUMPDEST PUSH1 0x0 DUP3 DUP3 MSTORE PUSH1 0x20 DUP3 ADD SWAP1 POP SWAP3 SWAP2 POP POP JUMP JUMPDEST PUSH32 0x7461736B5F636F6D706C65746500000000000000000000000000000000000000 PUSH1 0x0 DUP3 ADD MSTORE POP JUMP JUMPDEST PUSH1 0x0 PUSH2 0xA49 PUSH1 0xD DUP4 PUSH2 0xA02 JUMP JUMPDEST SWAP2 POP PUSH2 0xA54 DUP3 PUSH2 0xA13 JUMP JUMPDEST PUSH1 0x20 DUP3 ADD SWAP1 POP SWAP2 SWAP1 POP JUMP JUMPDEST PUSH1 0x0 DUP2 SWAP1 POP SWAP2 SWAP1 POP JUMP JUMPDEST PUSH2 0xA72 DUP2 PUSH2 0xA5F JUMP JUMPDEST DUP3 MSTORE POP POP JUMP JUMPDEST PUSH1 0x0 PUSH1 0x40 DUP3 ADD SWAP1 POP DUP2 DUP2 SUB PUSH1 0x0 DUP4 ADD MSTORE PUSH2 0xA91 DUP2 PUSH2 0xA3C JUMP JUMPDEST SWAP1 POP PUSH2 0xAA0 PUSH1 0x20 DUP4 ADD DUP5 PUSH2 0xA69 JUMP JUMPDEST SWAP3 SWAP2 POP POP JUMP JUMPDEST PUSH32 0x656E646F7273656D656E74000000000000000000000000000000000000000000 PUSH1 0x0 DUP3 ADD MSTORE POP JUMP JUMPDEST PUSH1 0x0 PUSH2 0xADC PUSH1 0xB DUP4 PUSH2 0xA02 JUMP JUMPDEST SWAP2 POP PUSH2 0xAE7 DUP3 PUSH2 0xAA6 JUMP JUMPDEST PUSH1 0x20 DUP3 ADD SWAP1 POP SWAP2 SWAP1 POP JUMP JUMPDEST PUSH1 0x0 DUP2 SWAP1 POP SWAP2 SWAP1 POP JUMP JUMPDEST PUSH1 0x0 DUP2 SWAP1 POP SWAP2 SWAP1 POP JUMP JUMPDEST PUSH1 0x0 PUSH2 0xB21 PUSH2 0xB1C PUSH2 0xB17 DUP5 PUSH2 0xAF2 JUMP JUMPDEST PUSH2 0xAFC JUMP JUMPDEST PUSH2 0xA5F JUMP JUMPDEST SWAP1 POP SWAP2 SWAP1 POP JUMP JUMPDEST PUSH2 0xB31 DUP2 PUSH2 0xB06 JUMP JUMPDEST DUP3 MSTORE POP POP JUMP JUMPDEST PUSH1 0x0 PUSH1 0x40 DUP3 ADD SWAP1 POP DUP2 DUP2 SUB PUSH1 0x0 DUP4 ADD MSTORE PUSH2 0xB50 DUP2 PUSH2 0xACF JUMP JUMPDEST SWAP1 POP PUSH2 0xB5F PUSH1 0x20 DUP4 ADD DUP5 PUSH2 0xB28 JUMP JUMPDEST SWAP3 SWAP2 POP POP JUMP JUMPDEST PUSH32 0x7461736B5F6661696C6564000000000000000000000000000000000000000000 PUSH1 0x0 DUP3 ADD MSTORE POP JUMP JUMPDEST PUSH1 0x0 PUSH2 0xB9B PUSH1 0xB DUP4 PUSH2 0xA02 JUMP JUMPDEST SWAP2 POP PUSH2 0xBA6 DUP3 PUSH2 0xB65 JUMP JUMPDEST PUSH1 0x20 DUP3 ADD SWAP1 POP SWAP2 SWAP1 POP JUMP JUMPDEST PUSH1 0x0 DUP2 SWAP1 POP SWAP2 SWAP1 POP JUMP JUMPDEST PUSH1 0x0 PUSH2 0xBD6 PUSH2 0xBD1 PUSH2 0xBCC DUP5 PUSH2 0xBB1 JUMP JUMPDEST PUSH2 0xAFC JUMP JUMPDEST PUSH2 0xA5F JUMP JUMPDEST SWAP1 POP SWAP2 SWAP1 POP JUMP JUMPDEST PUSH2 0xBE6 DUP2 PUSH2 0xBBB JUMP JUMPDEST DUP3 MSTORE POP POP JUMP JUMPDEST PUSH1 0x0 PUSH1 0x40 DUP3 ADD SWAP1 POP DUP2 DUP2 SUB PUSH1 0x0 DUP4 ADD MSTORE PUSH2 0xC05 DUP2 PUSH2 0xB8E JUMP JUMPDEST SWAP1 POP PUSH2 0xC14 PUSH1 0x20 DUP4 ADD DUP5 PUSH2 0xBDD JUMP JUMPDEST SWAP3 SWAP2 POP POP JUMP INVALID LOG2 PUSH5 0x6970667358 0x22 SLT KECCAK256 SWAP6 POP DUP8 JUMPDEST 0xD6 0xDE NOT 0x22 PUSH8 0x850918EA695E21D7 SWAP2 0xA7 JUMPDEST 0xAF KECCAK256 0xC4 LOG3 SWAP3 PUSH0 0xDE PUSH8 0xC20062A864736F6C PUSH4 0x43000818 STOP CALLER "},"methodIdentifiers":{"endorse(string)":"3f904bb8","getReputation(string)":"3d1103f4","getScore(string)":"16020273","recordTaskComplete(string,uint256)":"3dbb97c7","recordTaskFailed(string)":"4e90845d","reputations(string)":"c38a0115"}}}}}