{
  "_format": "hh-sol-artifact-1",
  "contractName": "AgentRegistry",
  "sourceName": "contracts/AgentRegistry.sol",
  "abi": [
    {
      "anonymous": false,
      "inputs": [
        {
          "indexed": true,
          "internalType": "string",
          "name": "agentId",
          "type": "string"
        }
      ],
      "name": "AgentDeactivated",
      "type": "event"
    },
    {
      "anonymous": false,
      "inputs": [
        {
          "indexed": true,
          "internalType": "string",
          "name": "agentId",
          "type": "string"
        },
        {
          "indexed": true,
          "internalType": "address",
          "name": "owner",
          "type": "address"
        },
        {
          "indexed": false,
          "internalType": "string",
          "name": "name",
          "type": "string"
        }
      ],
      "name": "AgentRegistered",
      "type": "event"
    },
    {
      "inputs": [
        {
          "internalType": "uint256",
          "name": "",
          "type": "uint256"
        }
      ],
      "name": "agentIds",
      "outputs": [
        {
          "internalType": "string",
          "name": "",
          "type": "string"
        }
      ],
      "stateMutability": "view",
      "type": "function"
    },
    {
      "inputs": [
        {
          "internalType": "string",
          "name": "",
          "type": "string"
        }
      ],
      "name": "agents",
      "outputs": [
        {
          "internalType": "address",
          "name": "owner",
          "type": "address"
        },
        {
          "internalType": "string",
          "name": "agentId",
          "type": "string"
        },
        {
          "internalType": "string",
          "name": "name",
          "type": "string"
        },
        {
          "internalType": "string",
          "name": "metadataURI",
          "type": "string"
        },
        {
          "internalType": "uint256",
          "name": "registeredAt",
          "type": "uint256"
        },
        {
          "internalType": "bool",
          "name": "active",
          "type": "bool"
        }
      ],
      "stateMutability": "view",
      "type": "function"
    },
    {
      "inputs": [
        {
          "internalType": "string",
          "name": "agentId",
          "type": "string"
        }
      ],
      "name": "deactivate",
      "outputs": [],
      "stateMutability": "nonpayable",
      "type": "function"
    },
    {
      "inputs": [
        {
          "internalType": "string",
          "name": "agentId",
          "type": "string"
        }
      ],
      "name": "getAgent",
      "outputs": [
        {
          "components": [
            {
              "internalType": "address",
              "name": "owner",
              "type": "address"
            },
            {
              "internalType": "string",
              "name": "agentId",
              "type": "string"
            },
            {
              "internalType": "string",
              "name": "name",
              "type": "string"
            },
            {
              "internalType": "string",
              "name": "metadataURI",
              "type": "string"
            },
            {
              "internalType": "uint256",
              "name": "registeredAt",
              "type": "uint256"
            },
            {
              "internalType": "bool",
              "name": "active",
              "type": "bool"
            }
          ],
          "internalType": "struct AgentRegistry.AgentInfo",
          "name": "",
          "type": "tuple"
        }
      ],
      "stateMutability": "view",
      "type": "function"
    },
    {
      "inputs": [
        {
          "internalType": "string",
          "name": "agentId",
          "type": "string"
        },
        {
          "internalType": "string",
          "name": "name",
          "type": "string"
        },
        {
          "internalType": "string",
          "name": "metadataURI",
          "type": "string"
        }
      ],
      "name": "register",
      "outputs": [],
      "stateMutability": "nonpayable",
      "type": "function"
    },
    {
      "inputs": [],
      "name": "totalAgents",
      "outputs": [
        {
          "internalType": "uint256",
          "name": "",
          "type": "uint256"
        }
      ],
      "stateMutability": "view",
      "type": "function"
    }
  ],
  "bytecode": "0x608060405234801561001057600080fd5b506116a0806100206000396000f3fe608060405234801561001057600080fd5b50600436106100625760003560e01c806327ee999d146100675780634cd08d031461008357806356e760581461009f578063794464e9146100cf578063c5053712146100ff578063cf6ee0cb1461011d575b600080fd5b610081600480360381019061007c9190610b84565b610152565b005b61009d60048036038101906100989190610bd1565b610286565b005b6100b960048036038101906100b49190610cbb565b610581565b6040516100c69190610d78565b60405180910390f35b6100e960048036038101906100e49190610b84565b61062d565b6040516100f69190610ee6565b60405180910390f35b610107610899565b6040516101149190610f17565b60405180910390f35b61013760048036038101906101329190611062565b6108a6565b604051610149969594939291906110c9565b60405180910390f35b3373ffffffffffffffffffffffffffffffffffffffff166000838360405161017b92919061116f565b908152602001604051809103902060000160009054906101000a900473ffffffffffffffffffffffffffffffffffffffff1673ffffffffffffffffffffffffffffffffffffffff1614610203576040517f08c379a00000000000000000000000000000000000000000000000000000000081526004016101fa906111d4565b60405180910390fd5b600080838360405161021692919061116f565b908152602001604051809103902060050160006101000a81548160ff021916908315150217905550818160405161024e92919061116f565b60405180910390207febf881b0f9e1b4a0cd64caa43de3b84857b09effa71637f5cbdd156e2331ab5160405160405180910390a25050565b600080878760405161029992919061116f565b908152602001604051809103902060040154146102eb576040517f08c379a00000000000000000000000000000000000000000000000000000000081526004016102e290611240565b60405180910390fd5b6040518060c001604052803373ffffffffffffffffffffffffffffffffffffffff16815260200187878080601f016020809104026020016040519081016040528093929190818152602001838380828437600081840152601f19601f82011690508083019250505050505050815260200185858080601f016020809104026020016040519081016040528093929190818152602001838380828437600081840152601f19601f82011690508083019250505050505050815260200183838080601f016020809104026020016040519081016040528093929190818152602001838380828437600081840152601f19601f820116905080830192505050505050508152602001428152602001600115158152506000878760405161040f92919061116f565b908152602001604051809103902060008201518160000160006101000a81548173ffffffffffffffffffffffffffffffffffffffff021916908373ffffffffffffffffffffffffffffffffffffffff1602179055506020820151816001019081610479919061146c565b50604082015181600201908161048f919061146c565b5060608201518160030190816104a5919061146c565b506080820151816004015560a08201518160050160006101000a81548160ff0219169083151502179055509050506001868690918060018154018082558091505060019003906000526020600020016000909192909192909192909192509182610510929190611549565b503373ffffffffffffffffffffffffffffffffffffffff16868660405161053892919061116f565b60405180910390207fc43f3529413bf4994b5fe9d3ce632ca9fb8a6bb4e9c0662994bb7994f1f5b5e88686604051610571929190611646565b60405180910390a3505050505050565b6001818154811061059157600080fd5b9060005260206000200160009150905080546105ac9061128f565b80601f01602080910402602001604051908101604052809291908181526020018280546105d89061128f565b80156106255780601f106105fa57610100808354040283529160200191610625565b820191906000526020600020905b81548152906001019060200180831161060857829003601f168201915b505050505081565b610635610abd565b6000838360405161064792919061116f565b90815260200160405180910390206040518060c00160405290816000820160009054906101000a900473ffffffffffffffffffffffffffffffffffffffff1673ffffffffffffffffffffffffffffffffffffffff1673ffffffffffffffffffffffffffffffffffffffff1681526020016001820180546106c69061128f565b80601f01602080910402602001604051908101604052809291908181526020018280546106f29061128f565b801561073f5780601f106107145761010080835404028352916020019161073f565b820191906000526020600020905b81548152906001019060200180831161072257829003601f168201915b505050505081526020016002820180546107589061128f565b80601f01602080910402602001604051908101604052809291908181526020018280546107849061128f565b80156107d15780601f106107a6576101008083540402835291602001916107d1565b820191906000526020600020905b8154815290600101906020018083116107b457829003601f168201915b505050505081526020016003820180546107ea9061128f565b80601f01602080910402602001604051908101604052809291908181526020018280546108169061128f565b80156108635780601f1061083857610100808354040283529160200191610863565b820191906000526020600020905b81548152906001019060200180831161084657829003601f168201915b50505050508152602001600482015481526020016005820160009054906101000a900460ff161515151581525050905092915050565b6000600180549050905090565b6000818051602081018201805184825260208301602085012081835280955050505050506000915090508060000160009054906101000a900473ffffffffffffffffffffffffffffffffffffffff16908060010180546109059061128f565b80601f01602080910402602001604051908101604052809291908181526020018280546109319061128f565b801561097e5780601f106109535761010080835404028352916020019161097e565b820191906000526020600020905b81548152906001019060200180831161096157829003601f168201915b5050505050908060020180546109939061128f565b80601f01602080910402602001604051908101604052809291908181526020018280546109bf9061128f565b8015610a0c5780601f106109e157610100808354040283529160200191610a0c565b820191906000526020600020905b8154815290600101906020018083116109ef57829003601f168201915b505050505090806003018054610a219061128f565b80601f0160208091040260200160405190810160405280929190818152602001828054610a4d9061128f565b8015610a9a5780601f10610a6f57610100808354040283529160200191610a9a565b820191906000526020600020905b815481529060010190602001808311610a7d57829003601f168201915b5050505050908060040154908060050160009054906101000a900460ff16905086565b6040518060c00160405280600073ffffffffffffffffffffffffffffffffffffffff168152602001606081526020016060815260200160608152602001600081526020016000151581525090565b6000604051905090565b600080fd5b600080fd5b600080fd5b600080fd5b600080fd5b60008083601f840112610b4457610b43610b1f565b5b8235905067ffffffffffffffff811115610b6157610b60610b24565b5b602083019150836001820283011115610b7d57610b7c610b29565b5b9250929050565b60008060208385031215610b9b57610b9a610b15565b5b600083013567ffffffffffffffff811115610bb957610bb8610b1a565b5b610bc585828601610b2e565b92509250509250929050565b60008060008060008060608789031215610bee57610bed610b15565b5b600087013567ffffffffffffffff811115610c0c57610c0b610b1a565b5b610c1889828a01610b2e565b9650965050602087013567ffffffffffffffff811115610c3b57610c3a610b1a565b5b610c4789828a01610b2e565b9450945050604087013567ffffffffffffffff811115610c6a57610c69610b1a565b5b610c7689828a01610b2e565b92509250509295509295509295565b6000819050919050565b610c9881610c85565b8114610ca357600080fd5b50565b600081359050610cb581610c8f565b92915050565b600060208284031215610cd157610cd0610b15565b5b6000610cdf84828501610ca6565b91505092915050565b600081519050919050565b600082825260208201905092915050565b60005b83811015610d22578082015181840152602081019050610d07565b60008484015250505050565b6000601f19601f8301169050919050565b6000610d4a82610ce8565b610d548185610cf3565b9350610d64818560208601610d04565b610d6d81610d2e565b840191505092915050565b60006020820190508181036000830152610d928184610d3f565b905092915050565b600073ffffffffffffffffffffffffffffffffffffffff82169050919050565b6000610dc582610d9a565b9050919050565b610dd581610dba565b82525050565b600082825260208201905092915050565b6000610df782610ce8565b610e018185610ddb565b9350610e11818560208601610d04565b610e1a81610d2e565b840191505092915050565b610e2e81610c85565b82525050565b60008115159050919050565b610e4981610e34565b82525050565b600060c083016000830151610e676000860182610dcc565b5060208301518482036020860152610e7f8282610dec565b91505060408301518482036040860152610e998282610dec565b91505060608301518482036060860152610eb38282610dec565b9150506080830151610ec86080860182610e25565b5060a0830151610edb60a0860182610e40565b508091505092915050565b60006020820190508181036000830152610f008184610e4f565b905092915050565b610f1181610c85565b82525050565b6000602082019050610f2c6000830184610f08565b92915050565b600080fd5b7f4e487b7100000000000000000000000000000000000000000000000000000000600052604160045260246000fd5b610f6f82610d2e565b810181811067ffffffffffffffff82111715610f8e57610f8d610f37565b5b80604052505050565b6000610fa1610b0b565b9050610fad8282610f66565b919050565b600067ffffffffffffffff821115610fcd57610fcc610f37565b5b610fd682610d2e565b9050602081019050919050565b82818337600083830152505050565b600061100561100084610fb2565b610f97565b90508281526020810184848401111561102157611020610f32565b5b61102c848285610fe3565b509392505050565b600082601f83011261104957611048610b1f565b5b8135611059848260208601610ff2565b91505092915050565b60006020828403121561107857611077610b15565b5b600082013567ffffffffffffffff81111561109657611095610b1a565b5b6110a284828501611034565b91505092915050565b6110b481610dba565b82525050565b6110c381610e34565b82525050565b600060c0820190506110de60008301896110ab565b81810360208301526110f08188610d3f565b905081810360408301526111048187610d3f565b905081810360608301526111188186610d3f565b90506111276080830185610f08565b61113460a08301846110ba565b979650505050505050565b600081905092915050565b6000611156838561113f565b9350611163838584610fe3565b82840190509392505050565b600061117c82848661114a565b91508190509392505050565b7f4e6f74206f776e65720000000000000000000000000000000000000000000000600082015250565b60006111be600983610cf3565b91506111c982611188565b602082019050919050565b600060208201905081810360008301526111ed816111b1565b9050919050565b7f4167656e7420616c726561647920726567697374657265640000000000000000600082015250565b600061122a601883610cf3565b9150611235826111f4565b602082019050919050565b600060208201905081810360008301526112598161121d565b9050919050565b7f4e487b7100000000000000000000000000000000000000000000000000000000600052602260045260246000fd5b600060028204905060018216806112a757607f821691505b6020821081036112ba576112b9611260565b5b50919050565b60008190508160005260206000209050919050565b60006020601f8301049050919050565b600082821b905092915050565b6000600883026113227fffffffffffffffffffffffffffffffffffffffffffffffffffffffffffffffff826112e5565b61132c86836112e5565b95508019841693508086168417925050509392505050565b6000819050919050565b600061136961136461135f84610c85565b611344565b610c85565b9050919050565b6000819050919050565b6113838361134e565b61139761138f82611370565b8484546112f2565b825550505050565b600090565b6113ac61139f565b6113b781848461137a565b505050565b5b818110156113db576113d06000826113a4565b6001810190506113bd565b5050565b601f821115611420576113f1816112c0565b6113fa846112d5565b81016020851015611409578190505b61141d611415856112d5565b8301826113bc565b50505b505050565b600082821c905092915050565b600061144360001984600802611425565b1980831691505092915050565b600061145c8383611432565b9150826002028217905092915050565b61147582610ce8565b67ffffffffffffffff81111561148e5761148d610f37565b5b611498825461128f565b6114a38282856113df565b600060209050601f8311600181146114d657600084156114c4578287015190505b6114ce8582611450565b865550611536565b601f1984166114e4866112c0565b60005b8281101561150c578489015182556001820191506020850194506020810190506114e7565b868310156115295784890151611525601f891682611432565b8355505b6001600288020188555050505b505050505050565b600082905092915050565b611553838361153e565b67ffffffffffffffff81111561156c5761156b610f37565b5b611576825461128f565b6115818282856113df565b6000601f8311600181146115b0576000841561159e578287013590505b6115a88582611450565b865550611610565b601f1984166115be866112c0565b60005b828110156115e6578489013582556001820191506020850194506020810190506115c1565b8683101561160357848901356115ff601f891682611432565b8355505b6001600288020188555050505b50505050505050565b60006116258385610cf3565b9350611632838584610fe3565b61163b83610d2e565b840190509392505050565b60006020820190508181036000830152611661818486611619565b9050939250505056fea264697066735822122078b677053b776b9ef2e77b3c4063678c0585025804b3de326df6e3303eac687c64736f6c63430008180033",
  "linkReferences": {},
  "deployedLinkReferences": {}
}